{
  "address": "0xf952441B7997bC229e883988F34d9eBC6C1105bd",
  "abi": [
    {
      "inputs": [],
      "stateMutability": "nonpayable",
      "type": "constructor"
    },
    {
      "inputs": [],
      "name": "CurrencyError",
      "type": "error"
    },
    {
      "inputs": [],
      "name": "InitializedError",
      "type": "error"
    },
    {
      "inputs": [],
      "name": "ListedError",
      "type": "error"
    },
    {
      "inputs": [],
      "name": "TokenError",
      "type": "error"
    },
    {
      "inputs": [],
      "name": "ZeroError",
      "type": "error"
    },
    {
      "anonymous": false,
      "inputs": [
        {
          "indexed": true,
          "internalType": "address",
          "name": "from",
          "type": "address"
        },
        {
          "indexed": true,
          "internalType": "uint256",
          "name": "tokenId",
          "type": "uint256"
        }
      ],
      "name": "Claimed",
      "type": "event"
    },
    {
      "anonymous": false,
      "inputs": [
        {
          "indexed": true,
          "internalType": "address",
          "name": "from",
          "type": "address"
        },
        {
          "indexed": true,
          "internalType": "uint256",
          "name": "tokenId",
          "type": "uint256"
        },
        {
          "indexed": true,
          "internalType": "uint256",
          "name": "currencyId",
          "type": "uint256"
        }
      ],
      "name": "Modified",
      "type": "event"
    },
    {
      "anonymous": false,
      "inputs": [
        {
          "indexed": true,
          "internalType": "address",
          "name": "previousOwner",
          "type": "address"
        },
        {
          "indexed": true,
          "internalType": "address",
          "name": "newOwner",
          "type": "address"
        }
      ],
      "name": "OwnershipTransferred",
      "type": "event"
    },
    {
      "anonymous": false,
      "inputs": [
        {
          "indexed": true,
          "internalType": "address",
          "name": "from",
          "type": "address"
        },
        {
          "indexed": true,
          "internalType": "address",
          "name": "token",
          "type": "address"
        },
        {
          "indexed": true,
          "internalType": "uint256",
          "name": "tokenId",
          "type": "uint256"
        },
        {
          "indexed": false,
          "internalType": "uint256",
          "name": "value",
          "type": "uint256"
        }
      ],
      "name": "Sacrificed",
      "type": "event"
    },
    {
      "anonymous": false,
      "inputs": [
        {
          "indexed": true,
          "internalType": "address",
          "name": "from",
          "type": "address"
        },
        {
          "indexed": true,
          "internalType": "address",
          "name": "token",
          "type": "address"
        },
        {
          "indexed": true,
          "internalType": "uint256",
          "name": "base",
          "type": "uint256"
        }
      ],
      "name": "SetBaseCost",
      "type": "event"
    },
    {
      "anonymous": false,
      "inputs": [
        {
          "indexed": true,
          "internalType": "uint256",
          "name": "currencyId",
          "type": "uint256"
        },
        {
          "indexed": true,
          "internalType": "uint256",
          "name": "cost",
          "type": "uint256"
        }
      ],
      "name": "SetCurrencyCost",
      "type": "event"
    },
    {
      "anonymous": false,
      "inputs": [
        {
          "indexed": true,
          "internalType": "address",
          "name": "from",
          "type": "address"
        },
        {
          "indexed": true,
          "internalType": "address",
          "name": "token",
          "type": "address"
        },
        {
          "indexed": true,
          "internalType": "uint256",
          "name": "tokenId",
          "type": "uint256"
        },
        {
          "indexed": false,
          "internalType": "uint256",
          "name": "premium",
          "type": "uint256"
        }
      ],
      "name": "SetPremiumCost",
      "type": "event"
    },
    {
      "anonymous": false,
      "inputs": [
        {
          "indexed": true,
          "internalType": "address",
          "name": "from",
          "type": "address"
        },
        {
          "indexed": true,
          "internalType": "address",
          "name": "token",
          "type": "address"
        },
        {
          "indexed": true,
          "internalType": "uint256",
          "name": "tokenId",
          "type": "uint256"
        },
        {
          "indexed": false,
          "internalType": "uint256",
          "name": "amount",
          "type": "uint256"
        }
      ],
      "name": "Taken",
      "type": "event"
    },
    {
      "inputs": [
        {
          "internalType": "uint256",
          "name": "tokenId",
          "type": "uint256"
        }
      ],
      "name": "claim",
      "outputs": [],
      "stateMutability": "nonpayable",
      "type": "function"
    },
    {
      "inputs": [
        {
          "internalType": "address",
          "name": "",
          "type": "address"
        }
      ],
      "name": "cost",
      "outputs": [
        {
          "internalType": "uint256",
          "name": "",
          "type": "uint256"
        }
      ],
      "stateMutability": "view",
      "type": "function"
    },
    {
      "inputs": [
        {
          "internalType": "uint256",
          "name": "",
          "type": "uint256"
        }
      ],
      "name": "currencyCost",
      "outputs": [
        {
          "internalType": "uint256",
          "name": "",
          "type": "uint256"
        }
      ],
      "stateMutability": "view",
      "type": "function"
    },
    {
      "inputs": [
        {
          "internalType": "uint256",
          "name": "tokenId",
          "type": "uint256"
        },
        {
          "internalType": "uint256",
          "name": "currencyId",
          "type": "uint256"
        }
      ],
      "name": "modify",
      "outputs": [],
      "stateMutability": "nonpayable",
      "type": "function"
    },
    {
      "inputs": [
        {
          "internalType": "address",
          "name": "",
          "type": "address"
        },
        {
          "internalType": "address",
          "name": "from",
          "type": "address"
        },
        {
          "internalType": "uint256[]",
          "name": "ids",
          "type": "uint256[]"
        },
        {
          "internalType": "uint256[]",
          "name": "values",
          "type": "uint256[]"
        },
        {
          "internalType": "bytes",
          "name": "",
          "type": "bytes"
        }
      ],
      "name": "onERC1155BatchReceived",
      "outputs": [
        {
          "internalType": "bytes4",
          "name": "",
          "type": "bytes4"
        }
      ],
      "stateMutability": "nonpayable",
      "type": "function"
    },
    {
      "inputs": [
        {
          "internalType": "address",
          "name": "",
          "type": "address"
        },
        {
          "internalType": "address",
          "name": "from",
          "type": "address"
        },
        {
          "internalType": "uint256",
          "name": "tokenId",
          "type": "uint256"
        },
        {
          "internalType": "uint256",
          "name": "value",
          "type": "uint256"
        },
        {
          "internalType": "bytes",
          "name": "",
          "type": "bytes"
        }
      ],
      "name": "onERC1155Received",
      "outputs": [
        {
          "internalType": "bytes4",
          "name": "",
          "type": "bytes4"
        }
      ],
      "stateMutability": "nonpayable",
      "type": "function"
    },
    {
      "inputs": [
        {
          "internalType": "address",
          "name": "",
          "type": "address"
        },
        {
          "internalType": "address",
          "name": "from",
          "type": "address"
        },
        {
          "internalType": "uint256",
          "name": "tokenId",
          "type": "uint256"
        },
        {
          "internalType": "bytes",
          "name": "",
          "type": "bytes"
        }
      ],
      "name": "onERC721Received",
      "outputs": [
        {
          "internalType": "bytes4",
          "name": "",
          "type": "bytes4"
        }
      ],
      "stateMutability": "nonpayable",
      "type": "function"
    },
    {
      "inputs": [],
      "name": "owner",
      "outputs": [
        {
          "internalType": "address",
          "name": "",
          "type": "address"
        }
      ],
      "stateMutability": "view",
      "type": "function"
    },
    {
      "inputs": [
        {
          "internalType": "address",
          "name": "",
          "type": "address"
        },
        {
          "internalType": "uint256",
          "name": "",
          "type": "uint256"
        }
      ],
      "name": "premium",
      "outputs": [
        {
          "internalType": "uint256",
          "name": "",
          "type": "uint256"
        }
      ],
      "stateMutability": "view",
      "type": "function"
    },
    {
      "inputs": [],
      "name": "renounceOwnership",
      "outputs": [],
      "stateMutability": "nonpayable",
      "type": "function"
    },
    {
      "inputs": [
        {
          "internalType": "address",
          "name": "token",
          "type": "address"
        },
        {
          "internalType": "uint256",
          "name": "tokenId",
          "type": "uint256"
        },
        {
          "internalType": "uint256",
          "name": "amount",
          "type": "uint256"
        },
        {
          "internalType": "bool",
          "name": "forShadowling",
          "type": "bool"
        }
      ],
      "name": "sacrifice1155",
      "outputs": [],
      "stateMutability": "nonpayable",
      "type": "function"
    },
    {
      "inputs": [
        {
          "internalType": "address",
          "name": "token",
          "type": "address"
        },
        {
          "internalType": "uint256",
          "name": "tokenId",
          "type": "uint256"
        },
        {
          "internalType": "bool",
          "name": "forShadowling",
          "type": "bool"
        }
      ],
      "name": "sacrifice721",
      "outputs": [],
      "stateMutability": "nonpayable",
      "type": "function"
    },
    {
      "inputs": [
        {
          "internalType": "address",
          "name": "token",
          "type": "address"
        },
        {
          "internalType": "uint256",
          "name": "amount",
          "type": "uint256"
        }
      ],
      "name": "setBaseCost",
      "outputs": [],
      "stateMutability": "nonpayable",
      "type": "function"
    },
    {
      "inputs": [
        {
          "internalType": "uint256",
          "name": "currencyId",
          "type": "uint256"
        },
        {
          "internalType": "uint256",
          "name": "newCost",
          "type": "uint256"
        }
      ],
      "name": "setCurrencyCost",
      "outputs": [],
      "stateMutability": "nonpayable",
      "type": "function"
    },
    {
      "inputs": [
        {
          "internalType": "address",
          "name": "token",
          "type": "address"
        },
        {
          "internalType": "uint256",
          "name": "tokenId",
          "type": "uint256"
        },
        {
          "internalType": "uint256",
          "name": "amount",
          "type": "uint256"
        }
      ],
      "name": "setPremiumCost",
      "outputs": [],
      "stateMutability": "nonpayable",
      "type": "function"
    },
    {
      "inputs": [
        {
          "internalType": "address",
          "name": "shadowling_",
          "type": "address"
        }
      ],
      "name": "setShadowling",
      "outputs": [],
      "stateMutability": "nonpayable",
      "type": "function"
    },
    {
      "inputs": [
        {
          "internalType": "uint256",
          "name": "price",
          "type": "uint256"
        }
      ],
      "name": "setShadowlingCost",
      "outputs": [],
      "stateMutability": "nonpayable",
      "type": "function"
    },
    {
      "inputs": [
        {
          "internalType": "address",
          "name": "void_",
          "type": "address"
        }
      ],
      "name": "setVoid",
      "outputs": [],
      "stateMutability": "nonpayable",
      "type": "function"
    },
    {
      "inputs": [],
      "name": "shadowling",
      "outputs": [
        {
          "internalType": "address",
          "name": "",
          "type": "address"
        }
      ],
      "stateMutability": "view",
      "type": "function"
    },
    {
      "inputs": [],
      "name": "shadowlingCost",
      "outputs": [
        {
          "internalType": "uint256",
          "name": "",
          "type": "uint256"
        }
      ],
      "stateMutability": "view",
      "type": "function"
    },
    {
      "inputs": [
        {
          "internalType": "uint256",
          "name": "tokenId",
          "type": "uint256"
        }
      ],
      "name": "summon",
      "outputs": [],
      "stateMutability": "nonpayable",
      "type": "function"
    },
    {
      "inputs": [
        {
          "internalType": "bytes4",
          "name": "interfaceId",
          "type": "bytes4"
        }
      ],
      "name": "supportsInterface",
      "outputs": [
        {
          "internalType": "bool",
          "name": "",
          "type": "bool"
        }
      ],
      "stateMutability": "view",
      "type": "function"
    },
    {
      "inputs": [
        {
          "internalType": "address",
          "name": "token",
          "type": "address"
        },
        {
          "internalType": "uint256",
          "name": "tokenId",
          "type": "uint256"
        },
        {
          "internalType": "uint256",
          "name": "amount",
          "type": "uint256"
        }
      ],
      "name": "takeMany",
      "outputs": [],
      "stateMutability": "nonpayable",
      "type": "function"
    },
    {
      "inputs": [
        {
          "internalType": "address",
          "name": "token",
          "type": "address"
        },
        {
          "internalType": "uint256",
          "name": "tokenId",
          "type": "uint256"
        }
      ],
      "name": "takeSingle",
      "outputs": [],
      "stateMutability": "nonpayable",
      "type": "function"
    },
    {
      "inputs": [
        {
          "internalType": "address",
          "name": "token",
          "type": "address"
        },
        {
          "internalType": "uint256",
          "name": "tokenId",
          "type": "uint256"
        }
      ],
      "name": "totalCost",
      "outputs": [
        {
          "internalType": "uint256",
          "name": "",
          "type": "uint256"
        }
      ],
      "stateMutability": "view",
      "type": "function"
    },
    {
      "inputs": [
        {
          "internalType": "address",
          "name": "newOwner",
          "type": "address"
        }
      ],
      "name": "transferOwnership",
      "outputs": [],
      "stateMutability": "nonpayable",
      "type": "function"
    },
    {
      "inputs": [],
      "name": "void",
      "outputs": [
        {
          "internalType": "address",
          "name": "",
          "type": "address"
        }
      ],
      "stateMutability": "view",
      "type": "function"
    }
  ],
  "transactionHash": "0x811b6f5a5cf59bd58db0ccc8eaec27ce0867b48b65265b29a69ec428816ba722",
  "args": [],
  "solcInputHash": "6033effa045c60e762cff4c40681be6f",
  "bytecode": "0x608060405234801561001057600080fd5b5061001a33610023565b60018055610073565b600080546001600160a01b038381166001600160a01b0319831681178455604051919092169283917f8be0079c531659141344cd1fd0a4f28419497f9722a3daafe3b4186f6b6457e09190a35050565b611a1b806100826000396000f3fe608060405234801561001057600080fd5b50600436106101795760003560e01c806375cc86a4116100d9578063ac4c25b211610087578063ac4c25b21461036e578063bc197c8114610381578063dd5cbc80146103a3578063ee576de7146103b6578063f23a6e61146103c9578063f2fde38b146103e9578063fdd50693146103fc57600080fd5b806375cc86a4146102cc5780637fe49e00146102ec5780638271c5a51461030c57806385d058871461031f5780638da5cb5b146103325780639875f3c714610352578063a01f410d1461036557600080fd5b8063379607f511610136578063379607f51461022c578063380d1e1f1461023f5780633fc9f35514610252578063680ae620146102655780636e91f10414610278578063715018a61461028b57806371c6fe621461029357600080fd5b806301ffc9a71461017e578063035d9f2a146101a657806309c12f6e146101bb57806313ee4a81146101ce578063150b7a02146101e15780632326a02c14610219575b600080fd5b61019161018c36600461177a565b61040f565b60405190151581526020015b60405180910390f35b6101b96101b43660046117a4565b610446565b005b6101b96101c93660046116fd565b61050f565b6101b96101dc3660046114ab565b61059f565b6102006101ef3660046115a4565b630a85bd0160e11b95945050505050565b6040516001600160e01b0319909116815260200161019d565b6101b9610227366004611732565b6106a1565b6101b961023a3660046117a4565b610904565b6101b961024d3660046117a4565b610a0b565b6101b96102603660046114ab565b610a3f565b6101b9610273366004611693565b610b42565b6101b96102863660046116fd565b610bbb565b6101b9610d0c565b6102be6102a1366004611693565b600760209081526000928352604080842090915290825290205481565b60405190815260200161019d565b6102be6102da3660046117a4565b60066020526000908152604090205481565b6102be6102fa3660046114ab565b60056020526000908152604090205481565b6101b961031a3660046117bd565b610d47565b6101b961032d3660046117bd565b610dee565b61033a610efa565b6040516001600160a01b03909116815260200161019d565b6102be610360366004611693565b610f09565b6102be60045481565b60025461033a906001600160a01b031681565b61020061038f3660046114e5565b63bc197c8160e01b98975050505050505050565b6101b96103b1366004611693565b610f4a565b6101b96103c43660046116bf565b61107d565b6102006103d7366004611617565b63f23a6e6160e01b9695505050505050565b6101b96103f73660046114ab565b611296565b60035461033a906001600160a01b031681565b60006001600160e01b031982166380ac58cd60e01b148061044057506001600160e01b03198216636cdb3d1360e11b145b92915050565b600260015414156104725760405162461bcd60e51b8152600401610469906118fc565b60405180910390fd5b600260015580600a8110806104875750600181105b156104a557604051630aaff25360e41b815260040160405180910390fd5b6003546001600160a01b031663c77eefa683336040518363ffffffff1660e01b81526004016104d5929190611933565b600060405180830381600087803b1580156104ef57600080fd5b505af1158015610503573d6000803e3d6000fd5b50506001805550505050565b33610518610efa565b6001600160a01b03161461053e5760405162461bcd60e51b8152600401610469906118c7565b6001600160a01b0383166000818152600760209081526040808320868452825291829020849055905183815284929133917fd3f07ca0a8e78f29d8f76b6e727b63ae6c34dd8df1a01b76efc61804e5db3124910160405180910390a4505050565b336105a8610efa565b6001600160a01b0316146105ce5760405162461bcd60e51b8152600401610469906118c7565b6003546001600160a01b0316156105f85760405163d7a1a5ef60e01b815260040160405180910390fd5b306001600160a01b0316816001600160a01b0316638da5cb5b6040518163ffffffff1660e01b815260040160206040518083038186803b15801561063b57600080fd5b505afa15801561064f573d6000803e3d6000fd5b505050506040513d601f19601f8201168201806040525081019061067391906114c8565b6001600160a01b0316141561069e57600380546001600160a01b0319166001600160a01b0383161790555b50565b600260015414156106c45760405162461bcd60e51b8152600401610469906118fc565b60026001556001600160a01b038416600090815260056020526040902054849061070157604051638182dbb760e01b815260040160405180910390fd5b8261071f57604051630597a9ab60e11b815260040160405180910390fd5b33600061072c8787610f09565b9050600185111561075757670de0b6b3a764000061074a8287611984565b6107549190611962565b90505b83156107d257600354604051636eeaf0d960e11b81526001600160a01b039091169063ddd5e1b29061078f9089908690600401611933565b600060405180830381600087803b1580156107a957600080fd5b505af11580156107bd573d6000803e3d6000fd5b50505050600454816107cf91906119a3565b90505b6002546040516340c10f1960e01b81526001600160a01b03909116906340c10f199061080490859085906004016118ae565b600060405180830381600087803b15801561081e57600080fd5b505af1158015610832573d6000803e3d6000fd5b505060408051600081526020810191829052637921219560e11b9091526001600160a01b038a16925063f242432a915061087790859030908b908b9060248101611869565b600060405180830381600087803b15801561089157600080fd5b505af11580156108a5573d6000803e3d6000fd5b5050505085876001600160a01b0316836001600160a01b03167f913181a1b1ead04e30c61c10546e0e4950fd0f1f9e122ff883080312930e9abf846040516108ef91815260200190565b60405180910390a45050600180555050505050565b600260015414156109275760405162461bcd60e51b8152600401610469906118fc565b600260015580600a81108061093c5750600181105b1561095a57604051630aaff25360e41b815260040160405180910390fd5b600454339061096890611333565b600354604051636eeaf0d960e11b81526001600160a01b039091169063ddd5e1b29061099a9086908590600401611933565b600060405180830381600087803b1580156109b457600080fd5b505af11580156109c8573d6000803e3d6000fd5b50506040518592506001600160a01b03841691507fd8138f8a3f377c5259ca548e70e4c2de94f129f5a11036a15b69513cba2b426a90600090a350506001805550565b33610a14610efa565b6001600160a01b031614610a3a5760405162461bcd60e51b8152600401610469906118c7565b600455565b33610a48610efa565b6001600160a01b031614610a6e5760405162461bcd60e51b8152600401610469906118c7565b6002546001600160a01b031615610a985760405163d7a1a5ef60e01b815260040160405180910390fd5b306001600160a01b0316816001600160a01b0316638da5cb5b6040518163ffffffff1660e01b815260040160206040518083038186803b158015610adb57600080fd5b505afa158015610aef573d6000803e3d6000fd5b505050506040513d601f19601f82011682018060405250810190610b1391906114c8565b6001600160a01b0316141561069e57600280546001600160a01b0383166001600160a01b031990911617905550565b33610b4b610efa565b6001600160a01b031614610b715760405162461bcd60e51b8152600401610469906118c7565b6001600160a01b0382166000818152600560205260408082208490555183929133917fa292d75692645497fed2391b95e268a055cbd26ffae25f408bd10b7135cea6269190a45050565b33610bc4610efa565b6001600160a01b031614610bea5760405162461bcd60e51b8152600401610469906118c7565b60026001541415610c0d5760405162461bcd60e51b8152600401610469906118fc565b600260015580610c3057604051630597a9ab60e11b815260040160405180910390fd5b826001600160a01b031663f242432a30610c48610efa565b604080516000815260208101918290526001600160e01b031960e086901b16909152610c7d9291908790879060248101611869565b600060405180830381600087803b158015610c9757600080fd5b505af1158015610cab573d6000803e3d6000fd5b5050505081836001600160a01b0316610cc13390565b6001600160a01b03167f28d2cfe87984a8cc7e24396f474935b5cd864f06c0a75315261b1200ab32802184604051610cfb91815260200190565b60405180910390a450506001805550565b33610d15610efa565b6001600160a01b031614610d3b5760405162461bcd60e51b8152600401610469906118c7565b610d4560006113b8565b565b33610d50610efa565b6001600160a01b031614610d765760405162461bcd60e51b8152600401610469906118c7565b81610d836001600a6119a3565b811180610d905750600181105b15610dae57604051632380c6df60e01b815260040160405180910390fd5b60008381526006602052604080822084905551839185917f3f388cecda5117f6ad1658cf6dd06da87f6f6d72492e3f8acc08803792b5772d9190a3505050565b60026001541415610e115760405162461bcd60e51b8152600401610469906118fc565b600260015581600a811080610e265750600181105b15610e4457604051630aaff25360e41b815260040160405180910390fd5b600082815260066020526040902054610e5c81611333565b6003546040516385d0588760e01b815260048101869052602481018590526001600160a01b03909116906385d0588790604401600060405180830381600087803b158015610ea957600080fd5b505af1158015610ebd573d6000803e3d6000fd5b505060405185925086915033907f30251b050c2639441362268961f1e92038b6e0e074621935e198f6f8f3fd759690600090a45050600180555050565b6000546001600160a01b031690565b6001600160a01b038216600081815260076020908152604080832085845282528083205493835260059091528120549091610f439161194a565b9392505050565b33610f53610efa565b6001600160a01b031614610f795760405162461bcd60e51b8152600401610469906118c7565b60026001541415610f9c5760405162461bcd60e51b8152600401610469906118fc565b60026001556001600160a01b0382166342842e0e30610fb9610efa565b6040516001600160e01b031960e085901b1681526001600160a01b0392831660048201529116602482015260448101849052606401600060405180830381600087803b15801561100857600080fd5b505af115801561101c573d6000803e3d6000fd5b5050505080826001600160a01b03166110323390565b6001600160a01b03167f28d2cfe87984a8cc7e24396f474935b5cd864f06c0a75315261b1200ab328021600160405161106d91815260200190565b60405180910390a4505060018055565b600260015414156110a05760405162461bcd60e51b8152600401610469906118fc565b60026001556001600160a01b03831660009081526005602052604090205483906110dd57604051638182dbb760e01b815260040160405180910390fd5b3360006110ea8686610f09565b9050831561116757600354604051636eeaf0d960e11b81526001600160a01b039091169063ddd5e1b2906111249088908690600401611933565b600060405180830381600087803b15801561113e57600080fd5b505af1158015611152573d6000803e3d6000fd5b505050506004548161116491906119a3565b90505b6002546040516340c10f1960e01b81526001600160a01b03909116906340c10f199061119990859085906004016118ae565b600060405180830381600087803b1580156111b357600080fd5b505af11580156111c7573d6000803e3d6000fd5b505060408051600081526020810191829052635c46a7ef60e11b9091526001600160a01b038916925063b88d4fde915061120a90859030908a906024810161182c565b600060405180830381600087803b15801561122457600080fd5b505af1158015611238573d6000803e3d6000fd5b5050505084866001600160a01b0316836001600160a01b03167f913181a1b1ead04e30c61c10546e0e4950fd0f1f9e122ff883080312930e9abf8460405161128291815260200190565b60405180910390a450506001805550505050565b3361129f610efa565b6001600160a01b0316146112c55760405162461bcd60e51b8152600401610469906118c7565b6001600160a01b03811661132a5760405162461bcd60e51b815260206004820152602660248201527f4f776e61626c653a206e6577206f776e657220697320746865207a65726f206160448201526564647265737360d01b6064820152608401610469565b61069e816113b8565b8061135157604051630597a9ab60e11b815260040160405180910390fd5b600254604051632770a7eb60e21b81526001600160a01b0390911690639dc29fac9061138390339085906004016118ae565b600060405180830381600087803b15801561139d57600080fd5b505af11580156113b1573d6000803e3d6000fd5b5050505050565b600080546001600160a01b038381166001600160a01b0319831681178455604051919092169283917f8be0079c531659141344cd1fd0a4f28419497f9722a3daafe3b4186f6b6457e09190a35050565b60008083601f84011261141a57600080fd5b50813567ffffffffffffffff81111561143257600080fd5b6020830191508360208260051b850101111561144d57600080fd5b9250929050565b8035801515811461146457600080fd5b919050565b60008083601f84011261147b57600080fd5b50813567ffffffffffffffff81111561149357600080fd5b60208301915083602082850101111561144d57600080fd5b6000602082840312156114bd57600080fd5b8135610f43816119d0565b6000602082840312156114da57600080fd5b8151610f43816119d0565b60008060008060008060008060a0898b03121561150157600080fd5b883561150c816119d0565b9750602089013561151c816119d0565b9650604089013567ffffffffffffffff8082111561153957600080fd5b6115458c838d01611408565b909850965060608b013591508082111561155e57600080fd5b61156a8c838d01611408565b909650945060808b013591508082111561158357600080fd5b506115908b828c01611469565b999c989b5096995094979396929594505050565b6000806000806000608086880312156115bc57600080fd5b85356115c7816119d0565b945060208601356115d7816119d0565b935060408601359250606086013567ffffffffffffffff8111156115fa57600080fd5b61160688828901611469565b969995985093965092949392505050565b60008060008060008060a0878903121561163057600080fd5b863561163b816119d0565b9550602087013561164b816119d0565b94506040870135935060608701359250608087013567ffffffffffffffff81111561167557600080fd5b61168189828a01611469565b979a9699509497509295939492505050565b600080604083850312156116a657600080fd5b82356116b1816119d0565b946020939093013593505050565b6000806000606084860312156116d457600080fd5b83356116df816119d0565b9250602084013591506116f460408501611454565b90509250925092565b60008060006060848603121561171257600080fd5b833561171d816119d0565b95602085013595506040909401359392505050565b6000806000806080858703121561174857600080fd5b8435611753816119d0565b9350602085013592506040850135915061176f60608601611454565b905092959194509250565b60006020828403121561178c57600080fd5b81356001600160e01b031981168114610f4357600080fd5b6000602082840312156117b657600080fd5b5035919050565b600080604083850312156117d057600080fd5b50508035926020909101359150565b6000815180845260005b81811015611805576020818501810151868301820152016117e9565b81811115611817576000602083870101525b50601f01601f19169290920160200192915050565b6001600160a01b038581168252841660208201526040810183905260806060820181905260009061185f908301846117df565b9695505050505050565b6001600160a01b03868116825285166020820152604081018490526060810183905260a0608082018190526000906118a3908301846117df565b979650505050505050565b6001600160a01b03929092168252602082015260400190565b6020808252818101527f4f776e61626c653a2063616c6c6572206973206e6f7420746865206f776e6572604082015260600190565b6020808252601f908201527f5265656e7472616e637947756172643a207265656e7472616e742063616c6c00604082015260600190565b9182526001600160a01b0316602082015260400190565b6000821982111561195d5761195d6119ba565b500190565b60008261197f57634e487b7160e01b600052601260045260246000fd5b500490565b600081600019048311821515161561199e5761199e6119ba565b500290565b6000828210156119b5576119b56119ba565b500390565b634e487b7160e01b600052601160045260246000fd5b6001600160a01b038116811461069e57600080fdfea264697066735822122082e7b0b445977490afba271b28a03f0c582727541195249d88879e701d033fe864736f6c63430008060033",
  "devdoc": {
    "kind": "dev",
    "methods": {
      "claim(uint256)": {
        "params": {
          "tokenId": "Token with `tokenId` to mint. Maps tokenId to individual item ids in ItemIds"
        }
      },
      "owner()": {
        "details": "Returns the address of the current owner."
      },
      "renounceOwnership()": {
        "details": "Leaves the contract without owner. It will not be possible to call `onlyOwner` functions anymore. Can only be called by the current owner. NOTE: Renouncing ownership will leave the contract without an owner, thereby removing any functionality that is only available to the owner."
      },
      "sacrifice1155(address,uint256,uint256,bool)": {
        "details": "Sacrifice function for ERC1155",
        "params": {
          "forShadowling": "If true, mints a Shadowling using the void that was minted",
          "token": "Asset to sacrifice",
          "tokenId": "Specific asset to sacrifice"
        }
      },
      "sacrifice721(address,uint256,bool)": {
        "details": "Sacrifice function for ERC721, must be approved beforehand",
        "params": {
          "forShadowling": "If true, mints a Shadowling using the void that was minted",
          "token": "Asset to sacrifice",
          "tokenId": "Specific asset to sacrifice"
        }
      },
      "setBaseCost(address,uint256)": {
        "params": {
          "amount": "Amount of void minted per `token` burned",
          "token": "Address to update the cost value of"
        }
      },
      "setPremiumCost(address,uint256,uint256)": {
        "params": {
          "amount": "Extra amount of void tokens received",
          "token": "Address to update the cost value of",
          "tokenId": "Specific tokenId to delist"
        }
      },
      "setShadowling(address)": {
        "details": "One time use"
      },
      "setVoid(address)": {
        "details": "One time use"
      },
      "supportsInterface(bytes4)": {
        "details": "Returns true if this contract implements the interface defined by `interfaceId`. See the corresponding https://eips.ethereum.org/EIPS/eip-165#how-interfaces-are-identified[EIP section] to learn more about how these ids are created. This function call must use less than 30 000 gas."
      },
      "totalCost(address,uint256)": {
        "returns": {
          "_0": "Amount of VOID minted from sacrificing `token` with `tokenId"
        }
      },
      "transferOwnership(address)": {
        "details": "Transfers ownership of the contract to a new account (`newOwner`). Can only be called by the current owner."
      }
    },
    "version": 1
  },
  "userdoc": {
    "errors": {
      "CurrencyError()": [
        {
          "notice": "Thrown on attempting to use incorrect currencyId"
        }
      ],
      "InitializedError()": [
        {
          "notice": "Thrown on attempting to set an already set `void`"
        }
      ],
      "ListedError()": [
        {
          "notice": "Thrown on attempting to burn a non-whitelisted asset"
        }
      ],
      "TokenError()": [
        {
          "notice": "Thrown on attempting to use inccorect tokenId"
        }
      ],
      "ZeroError()": [
        {
          "notice": "Thrown on passing a zero value as a parameter, you're welcome"
        }
      ]
    },
    "events": {
      "Claimed(address,uint256)": {
        "notice": "Emitted on burning void tokens to claim a Shadowling"
      },
      "Modified(address,uint256,uint256)": {
        "notice": "Emitted on modifying a Shadowling's attributes"
      },
      "Sacrificed(address,address,uint256,uint256)": {
        "notice": "Emitted on sacrifice and minting of VOID"
      },
      "SetBaseCost(address,address,uint256)": {
        "notice": "Emitted on upating the base amount of void received from burning an nft"
      },
      "SetCurrencyCost(uint256,uint256)": {
        "notice": "Emitted on setting the price of a currency usage in void tokens"
      },
      "SetPremiumCost(address,address,uint256,uint256)": {
        "notice": "Emitted on updating the premium amount of void received from burning an nft"
      },
      "Taken(address,address,uint256,uint256)": {
        "notice": "Emitted when an owner removes tokens"
      }
    },
    "kind": "user",
    "methods": {
      "claim(uint256)": {
        "notice": "Mints Shadowlings to `msg.sender`, cannot mint 0 tokenId"
      },
      "cost(address)": {
        "notice": "Cost of the NFT with `address`, denominated in VOID tokens"
      },
      "currencyCost(uint256)": {
        "notice": "Maps currencyIds to their respective Void token cost"
      },
      "modify(uint256,uint256)": {
        "notice": "Modifies a Shadowling using with the `currencyId`, changing its attributes"
      },
      "premium(address,uint256)": {
        "notice": "Additional premium cost of an NFT with `tokenId`, denominated in VOID tokens"
      },
      "sacrifice1155(address,uint256,uint256,bool)": {
        "notice": "Sacrifices `amount` of `token` with `tokenId` to the Shadowpakt, and receives VOID"
      },
      "sacrifice721(address,uint256,bool)": {
        "notice": "Sacrifices `token` with `tokenId` to the Shadowpakt, and receives VOID"
      },
      "setBaseCost(address,uint256)": {
        "notice": "Update an `address` of an nft to be whitelisted to receive void on burn"
      },
      "setCurrencyCost(uint256,uint256)": {
        "notice": "Sets the cost of using this currency, denominated in void tokens"
      },
      "setPremiumCost(address,uint256,uint256)": {
        "notice": "Sets an extra amount of void received from burning an nft with `tokenId`"
      },
      "setShadowling(address)": {
        "notice": "Sets the shadowling contract"
      },
      "setShadowlingCost(uint256)": {
        "notice": "Sets the cost of minting a shdowling in void tokens"
      },
      "setVoid(address)": {
        "notice": "Sets the void token to this contract"
      },
      "shadowling()": {
        "notice": "Shadowling NFT"
      },
      "shadowlingCost()": {
        "notice": "Void burned for conjuring a Shadowling"
      },
      "summon(uint256)": {
        "notice": "Mints Shadowchain Origin Shadowlings to shadowpakt members, cannot mint 0 tokenId"
      },
      "takeMany(address,uint256,uint256)": {
        "notice": "Owner function to pull ERC1155 tokens from this contract for nefarious purposes"
      },
      "takeSingle(address,uint256)": {
        "notice": "Owner function to pull ERC721 tokens from this contract for nefarious purposes"
      },
      "void()": {
        "notice": "Void Token to mint"
      }
    },
    "notice": "Mints VOID in exchange for whitelisted NFTs",
    "version": 1
  },
  "storageLayout": {
    "storage": [
      {
        "astId": 7,
        "contract": "contracts/Altar.sol:Altar",
        "label": "_owner",
        "offset": 0,
        "slot": "0",
        "type": "t_address"
      },
      {
        "astId": 114,
        "contract": "contracts/Altar.sol:Altar",
        "label": "_status",
        "offset": 0,
        "slot": "1",
        "type": "t_uint256"
      },
      {
        "astId": 6598,
        "contract": "contracts/Altar.sol:Altar",
        "label": "void",
        "offset": 0,
        "slot": "2",
        "type": "t_address"
      },
      {
        "astId": 6602,
        "contract": "contracts/Altar.sol:Altar",
        "label": "shadowling",
        "offset": 0,
        "slot": "3",
        "type": "t_address"
      },
      {
        "astId": 6606,
        "contract": "contracts/Altar.sol:Altar",
        "label": "shadowlingCost",
        "offset": 0,
        "slot": "4",
        "type": "t_uint256"
      },
      {
        "astId": 6612,
        "contract": "contracts/Altar.sol:Altar",
        "label": "cost",
        "offset": 0,
        "slot": "5",
        "type": "t_mapping(t_address,t_uint256)"
      },
      {
        "astId": 6618,
        "contract": "contracts/Altar.sol:Altar",
        "label": "currencyCost",
        "offset": 0,
        "slot": "6",
        "type": "t_mapping(t_uint256,t_uint256)"
      },
      {
        "astId": 6626,
        "contract": "contracts/Altar.sol:Altar",
        "label": "premium",
        "offset": 0,
        "slot": "7",
        "type": "t_mapping(t_address,t_mapping(t_uint256,t_uint256))"
      }
    ],
    "types": {
      "t_address": {
        "encoding": "inplace",
        "label": "address",
        "numberOfBytes": "20"
      },
      "t_mapping(t_address,t_mapping(t_uint256,t_uint256))": {
        "encoding": "mapping",
        "key": "t_address",
        "label": "mapping(address => mapping(uint256 => uint256))",
        "numberOfBytes": "32",
        "value": "t_mapping(t_uint256,t_uint256)"
      },
      "t_mapping(t_address,t_uint256)": {
        "encoding": "mapping",
        "key": "t_address",
        "label": "mapping(address => uint256)",
        "numberOfBytes": "32",
        "value": "t_uint256"
      },
      "t_mapping(t_uint256,t_uint256)": {
        "encoding": "mapping",
        "key": "t_uint256",
        "label": "mapping(uint256 => uint256)",
        "numberOfBytes": "32",
        "value": "t_uint256"
      },
      "t_uint256": {
        "encoding": "inplace",
        "label": "uint256",
        "numberOfBytes": "32"
      }
    }
  }
}