{
  "address": "0x25749a6FF3cfC87019d4Bc00eD282D5B7BDE4b1d",
  "abi": [
    {
      "inputs": [],
      "stateMutability": "nonpayable",
      "type": "constructor"
    },
    {
      "inputs": [],
      "name": "BlockError",
      "type": "error"
    },
    {
      "inputs": [],
      "name": "CommitError",
      "type": "error"
    },
    {
      "inputs": [],
      "name": "CurrencyError",
      "type": "error"
    },
    {
      "inputs": [],
      "name": "HashError",
      "type": "error"
    },
    {
      "inputs": [],
      "name": "InitializedError",
      "type": "error"
    },
    {
      "inputs": [],
      "name": "ListedError",
      "type": "error"
    },
    {
      "inputs": [],
      "name": "RevealedError",
      "type": "error"
    },
    {
      "inputs": [],
      "name": "TokenError",
      "type": "error"
    },
    {
      "inputs": [],
      "name": "ZeroError",
      "type": "error"
    },
    {
      "anonymous": false,
      "inputs": [
        {
          "indexed": true,
          "internalType": "address",
          "name": "from",
          "type": "address"
        },
        {
          "indexed": true,
          "internalType": "uint256",
          "name": "tokenId",
          "type": "uint256"
        }
      ],
      "name": "Claimed",
      "type": "event"
    },
    {
      "anonymous": false,
      "inputs": [
        {
          "indexed": true,
          "internalType": "address",
          "name": "from",
          "type": "address"
        },
        {
          "indexed": true,
          "internalType": "uint256",
          "name": "tokenId",
          "type": "uint256"
        },
        {
          "indexed": true,
          "internalType": "uint256",
          "name": "currencyId",
          "type": "uint256"
        }
      ],
      "name": "Modified",
      "type": "event"
    },
    {
      "anonymous": false,
      "inputs": [
        {
          "indexed": true,
          "internalType": "address",
          "name": "previousOwner",
          "type": "address"
        },
        {
          "indexed": true,
          "internalType": "address",
          "name": "newOwner",
          "type": "address"
        }
      ],
      "name": "OwnershipTransferred",
      "type": "event"
    },
    {
      "anonymous": false,
      "inputs": [
        {
          "indexed": true,
          "internalType": "address",
          "name": "from",
          "type": "address"
        },
        {
          "indexed": false,
          "internalType": "bytes32",
          "name": "revealHash",
          "type": "bytes32"
        },
        {
          "indexed": false,
          "internalType": "uint256",
          "name": "random",
          "type": "uint256"
        }
      ],
      "name": "RevealHash",
      "type": "event"
    },
    {
      "anonymous": false,
      "inputs": [
        {
          "indexed": true,
          "internalType": "address",
          "name": "from",
          "type": "address"
        },
        {
          "indexed": true,
          "internalType": "address",
          "name": "token",
          "type": "address"
        },
        {
          "indexed": true,
          "internalType": "uint256",
          "name": "tokenId",
          "type": "uint256"
        },
        {
          "indexed": false,
          "internalType": "uint256",
          "name": "amount",
          "type": "uint256"
        },
        {
          "indexed": false,
          "internalType": "uint256",
          "name": "value",
          "type": "uint256"
        },
        {
          "indexed": false,
          "internalType": "uint256",
          "name": "shadowlingId",
          "type": "uint256"
        }
      ],
      "name": "Sacrificed",
      "type": "event"
    },
    {
      "anonymous": false,
      "inputs": [
        {
          "indexed": true,
          "internalType": "address",
          "name": "from",
          "type": "address"
        },
        {
          "indexed": true,
          "internalType": "address",
          "name": "token",
          "type": "address"
        },
        {
          "indexed": true,
          "internalType": "uint256",
          "name": "base",
          "type": "uint256"
        }
      ],
      "name": "SetBaseCost",
      "type": "event"
    },
    {
      "anonymous": false,
      "inputs": [
        {
          "indexed": true,
          "internalType": "uint256",
          "name": "currencyId",
          "type": "uint256"
        },
        {
          "indexed": true,
          "internalType": "uint256",
          "name": "cost",
          "type": "uint256"
        }
      ],
      "name": "SetCurrencyCost",
      "type": "event"
    },
    {
      "anonymous": false,
      "inputs": [
        {
          "indexed": true,
          "internalType": "address",
          "name": "from",
          "type": "address"
        },
        {
          "indexed": true,
          "internalType": "address",
          "name": "token",
          "type": "address"
        },
        {
          "indexed": true,
          "internalType": "uint256",
          "name": "tokenId",
          "type": "uint256"
        },
        {
          "indexed": false,
          "internalType": "uint256",
          "name": "premium",
          "type": "uint256"
        }
      ],
      "name": "SetPremiumCost",
      "type": "event"
    },
    {
      "anonymous": false,
      "inputs": [
        {
          "indexed": true,
          "internalType": "address",
          "name": "from",
          "type": "address"
        },
        {
          "indexed": true,
          "internalType": "address",
          "name": "token",
          "type": "address"
        },
        {
          "indexed": true,
          "internalType": "uint256",
          "name": "tokenId",
          "type": "uint256"
        },
        {
          "indexed": false,
          "internalType": "uint256",
          "name": "amount",
          "type": "uint256"
        }
      ],
      "name": "Taken",
      "type": "event"
    },
    {
      "inputs": [],
      "name": "SHADOWLING_COST",
      "outputs": [
        {
          "internalType": "uint256",
          "name": "",
          "type": "uint256"
        }
      ],
      "stateMutability": "view",
      "type": "function"
    },
    {
      "inputs": [
        {
          "internalType": "uint256",
          "name": "tokenId",
          "type": "uint256"
        },
        {
          "internalType": "bytes32",
          "name": "revealHash",
          "type": "bytes32"
        }
      ],
      "name": "claim",
      "outputs": [],
      "stateMutability": "nonpayable",
      "type": "function"
    },
    {
      "inputs": [
        {
          "internalType": "bytes32",
          "name": "hashedKey",
          "type": "bytes32"
        }
      ],
      "name": "commitKey",
      "outputs": [],
      "stateMutability": "nonpayable",
      "type": "function"
    },
    {
      "inputs": [
        {
          "internalType": "address",
          "name": "",
          "type": "address"
        }
      ],
      "name": "commits",
      "outputs": [
        {
          "internalType": "bytes32",
          "name": "commit",
          "type": "bytes32"
        },
        {
          "internalType": "uint64",
          "name": "blockNumber",
          "type": "uint64"
        },
        {
          "internalType": "bool",
          "name": "revealed",
          "type": "bool"
        }
      ],
      "stateMutability": "view",
      "type": "function"
    },
    {
      "inputs": [
        {
          "internalType": "address",
          "name": "",
          "type": "address"
        }
      ],
      "name": "cost",
      "outputs": [
        {
          "internalType": "uint256",
          "name": "",
          "type": "uint256"
        }
      ],
      "stateMutability": "view",
      "type": "function"
    },
    {
      "inputs": [
        {
          "internalType": "uint256",
          "name": "",
          "type": "uint256"
        }
      ],
      "name": "currencyCost",
      "outputs": [
        {
          "internalType": "uint256",
          "name": "",
          "type": "uint256"
        }
      ],
      "stateMutability": "view",
      "type": "function"
    },
    {
      "inputs": [
        {
          "internalType": "bytes32",
          "name": "keyHash",
          "type": "bytes32"
        }
      ],
      "name": "getHash",
      "outputs": [
        {
          "internalType": "bytes32",
          "name": "",
          "type": "bytes32"
        }
      ],
      "stateMutability": "view",
      "type": "function"
    },
    {
      "inputs": [
        {
          "internalType": "address",
          "name": "void_",
          "type": "address"
        },
        {
          "internalType": "address",
          "name": "shadowling_",
          "type": "address"
        }
      ],
      "name": "initialize",
      "outputs": [],
      "stateMutability": "nonpayable",
      "type": "function"
    },
    {
      "inputs": [
        {
          "internalType": "uint256",
          "name": "tokenId",
          "type": "uint256"
        },
        {
          "internalType": "uint256",
          "name": "currencyId",
          "type": "uint256"
        },
        {
          "internalType": "bytes32",
          "name": "revealHash",
          "type": "bytes32"
        }
      ],
      "name": "modify",
      "outputs": [],
      "stateMutability": "nonpayable",
      "type": "function"
    },
    {
      "inputs": [
        {
          "internalType": "address",
          "name": "",
          "type": "address"
        },
        {
          "internalType": "address",
          "name": "from",
          "type": "address"
        },
        {
          "internalType": "uint256[]",
          "name": "ids",
          "type": "uint256[]"
        },
        {
          "internalType": "uint256[]",
          "name": "values",
          "type": "uint256[]"
        },
        {
          "internalType": "bytes",
          "name": "",
          "type": "bytes"
        }
      ],
      "name": "onERC1155BatchReceived",
      "outputs": [
        {
          "internalType": "bytes4",
          "name": "",
          "type": "bytes4"
        }
      ],
      "stateMutability": "nonpayable",
      "type": "function"
    },
    {
      "inputs": [
        {
          "internalType": "address",
          "name": "",
          "type": "address"
        },
        {
          "internalType": "address",
          "name": "from",
          "type": "address"
        },
        {
          "internalType": "uint256",
          "name": "tokenId",
          "type": "uint256"
        },
        {
          "internalType": "uint256",
          "name": "value",
          "type": "uint256"
        },
        {
          "internalType": "bytes",
          "name": "",
          "type": "bytes"
        }
      ],
      "name": "onERC1155Received",
      "outputs": [
        {
          "internalType": "bytes4",
          "name": "",
          "type": "bytes4"
        }
      ],
      "stateMutability": "nonpayable",
      "type": "function"
    },
    {
      "inputs": [
        {
          "internalType": "address",
          "name": "",
          "type": "address"
        },
        {
          "internalType": "address",
          "name": "from",
          "type": "address"
        },
        {
          "internalType": "uint256",
          "name": "tokenId",
          "type": "uint256"
        },
        {
          "internalType": "bytes",
          "name": "",
          "type": "bytes"
        }
      ],
      "name": "onERC721Received",
      "outputs": [
        {
          "internalType": "bytes4",
          "name": "",
          "type": "bytes4"
        }
      ],
      "stateMutability": "nonpayable",
      "type": "function"
    },
    {
      "inputs": [],
      "name": "owner",
      "outputs": [
        {
          "internalType": "address",
          "name": "",
          "type": "address"
        }
      ],
      "stateMutability": "view",
      "type": "function"
    },
    {
      "inputs": [
        {
          "internalType": "address",
          "name": "",
          "type": "address"
        },
        {
          "internalType": "uint256",
          "name": "",
          "type": "uint256"
        }
      ],
      "name": "premium",
      "outputs": [
        {
          "internalType": "uint256",
          "name": "",
          "type": "uint256"
        }
      ],
      "stateMutability": "view",
      "type": "function"
    },
    {
      "inputs": [],
      "name": "renounceOwnership",
      "outputs": [],
      "stateMutability": "nonpayable",
      "type": "function"
    },
    {
      "inputs": [
        {
          "internalType": "bytes32",
          "name": "revealHash",
          "type": "bytes32"
        }
      ],
      "name": "revealKey",
      "outputs": [
        {
          "internalType": "uint256",
          "name": "",
          "type": "uint256"
        }
      ],
      "stateMutability": "nonpayable",
      "type": "function"
    },
    {
      "inputs": [
        {
          "internalType": "address",
          "name": "token",
          "type": "address"
        },
        {
          "internalType": "uint256",
          "name": "tokenId",
          "type": "uint256"
        },
        {
          "internalType": "uint256",
          "name": "amount",
          "type": "uint256"
        },
        {
          "internalType": "uint256",
          "name": "shadowlingId",
          "type": "uint256"
        }
      ],
      "name": "sacrifice1155",
      "outputs": [],
      "stateMutability": "nonpayable",
      "type": "function"
    },
    {
      "inputs": [
        {
          "internalType": "address",
          "name": "token",
          "type": "address"
        },
        {
          "internalType": "uint256",
          "name": "tokenId",
          "type": "uint256"
        },
        {
          "internalType": "uint256",
          "name": "shadowlingId",
          "type": "uint256"
        }
      ],
      "name": "sacrifice721",
      "outputs": [],
      "stateMutability": "nonpayable",
      "type": "function"
    },
    {
      "inputs": [
        {
          "internalType": "address",
          "name": "token",
          "type": "address"
        },
        {
          "internalType": "uint256",
          "name": "amount",
          "type": "uint256"
        }
      ],
      "name": "setBaseCost",
      "outputs": [],
      "stateMutability": "nonpayable",
      "type": "function"
    },
    {
      "inputs": [
        {
          "internalType": "uint256",
          "name": "currencyId",
          "type": "uint256"
        },
        {
          "internalType": "uint256",
          "name": "newCost",
          "type": "uint256"
        }
      ],
      "name": "setCurrencyCost",
      "outputs": [],
      "stateMutability": "nonpayable",
      "type": "function"
    },
    {
      "inputs": [
        {
          "internalType": "address",
          "name": "token",
          "type": "address"
        },
        {
          "internalType": "uint256",
          "name": "tokenId",
          "type": "uint256"
        },
        {
          "internalType": "uint256",
          "name": "amount",
          "type": "uint256"
        }
      ],
      "name": "setPremiumCost",
      "outputs": [],
      "stateMutability": "nonpayable",
      "type": "function"
    },
    {
      "inputs": [],
      "name": "shadowling",
      "outputs": [
        {
          "internalType": "address",
          "name": "",
          "type": "address"
        }
      ],
      "stateMutability": "view",
      "type": "function"
    },
    {
      "inputs": [
        {
          "internalType": "bytes4",
          "name": "interfaceId",
          "type": "bytes4"
        }
      ],
      "name": "supportsInterface",
      "outputs": [
        {
          "internalType": "bool",
          "name": "",
          "type": "bool"
        }
      ],
      "stateMutability": "view",
      "type": "function"
    },
    {
      "inputs": [
        {
          "internalType": "address",
          "name": "token",
          "type": "address"
        },
        {
          "internalType": "uint256",
          "name": "tokenId",
          "type": "uint256"
        },
        {
          "internalType": "uint256",
          "name": "amount",
          "type": "uint256"
        }
      ],
      "name": "takeMany",
      "outputs": [],
      "stateMutability": "nonpayable",
      "type": "function"
    },
    {
      "inputs": [
        {
          "internalType": "address",
          "name": "token",
          "type": "address"
        },
        {
          "internalType": "uint256",
          "name": "tokenId",
          "type": "uint256"
        }
      ],
      "name": "takeSingle",
      "outputs": [],
      "stateMutability": "nonpayable",
      "type": "function"
    },
    {
      "inputs": [
        {
          "internalType": "address",
          "name": "token",
          "type": "address"
        },
        {
          "internalType": "uint256",
          "name": "tokenId",
          "type": "uint256"
        }
      ],
      "name": "totalCost",
      "outputs": [
        {
          "internalType": "uint256",
          "name": "",
          "type": "uint256"
        }
      ],
      "stateMutability": "view",
      "type": "function"
    },
    {
      "inputs": [
        {
          "internalType": "address",
          "name": "newOwner",
          "type": "address"
        }
      ],
      "name": "transferOwnership",
      "outputs": [],
      "stateMutability": "nonpayable",
      "type": "function"
    },
    {
      "inputs": [],
      "name": "void",
      "outputs": [
        {
          "internalType": "address",
          "name": "",
          "type": "address"
        }
      ],
      "stateMutability": "view",
      "type": "function"
    }
  ],
  "transactionHash": "0xa14cd0f208de761118d9c75e6f80d7f5eab849b67bd07faf626c75b850dda6f1",
  "args": [],
  "solcInputHash": "7dedd8b6c185c6834f8a5639a74f0b2c",
  "bytecode": "0x608060405234801561001057600080fd5b5061001a33610024565b6001600255610076565b600180546001600160a01b038381166001600160a01b0319831681179093556040519116919082907f8be0079c531659141344cd1fd0a4f28419497f9722a3daafe3b4186f6b6457e090600090a35050565b611c75806100856000396000f3fe608060405234801561001057600080fd5b50600436106101845760003560e01c80637fe49e00116100d9578063ce695ef411610087578063ce695ef414610451578063d654723614610464578063dd5cbc8014610477578063eae6d9bc1461048a578063f23a6e611461049d578063f2fde38b146104bd578063fdd50693146104d057600080fd5b80637fe49e00146103435780638271c5a5146103635780638335d50a146103765780638da5cb5b146103e95780639875f3c714610409578063ac4c25b21461041c578063bc197c811461042f57600080fd5b8063680ae62011610136578063680ae620146102585780636e91f1041461026b578063715018a61461027e57806371c6fe621461028657806375cc86a4146102b15780637671e349146102d15780637b43a8e6146102e257600080fd5b806301ffc9a71461018957806309c12f6e146101b1578063150b7a02146101c657806331d14457146101fe5780633cf5040a14610211578063485cc955146102325780634ca75ae014610245575b600080fd5b61019c610197366004611969565b6104e3565b60405190151581526020015b60405180910390f35b6101c46101bf3660046118e0565b61051a565b005b6101e56101d43660046117c7565b630a85bd0160e11b95945050505050565b6040516001600160e01b031990911681526020016101a8565b6101c461020c366004611993565b6105b3565b61022461021f366004611950565b6106c7565b6040519081526020016101a8565b6101c46102403660046116d0565b610707565b6101c46102533660046119b5565b6108da565b6101c46102663660046118b4565b6109f1565b6101c46102793660046118e0565b610a6a565b6101c4610bba565b6102246102943660046118b4565b600760209081526000928352604080842090915290825290205481565b6102246102bf366004611950565b60066020526000908152604090205481565b61022469021e19e0c9bab240000081565b61031e6102f0366004611696565b600060208190529081526040902080546001909101546001600160401b03811690600160401b900460ff1683565b604080519384526001600160401b0390921660208401521515908201526060016101a8565b610224610351366004611696565b60056020526000908152604090205481565b6101c4610371366004611993565b610bf5565b6101c4610384366004611950565b604080516060810182529182526001600160401b034381166020808501918252600085850181815233825291819052939093209351845551600193909301805492511515600160401b0268ffffffffffffffffff199093169390911692909217179055565b6103f1610c9c565b6040516001600160a01b0390911681526020016101a8565b6102246104173660046118b4565b610cab565b6003546103f1906001600160a01b031681565b6101e561043d366004611709565b63bc197c8160e01b98975050505050505050565b6101c461045f366004611915565b610cec565b610224610472366004611950565b610f8f565b6101c46104853660046118b4565b611107565b6101c46104983660046118e0565b611239565b6101e56104ab366004611839565b63f23a6e6160e01b9695505050505050565b6101c46104cb366004611696565b611493565b6004546103f1906001600160a01b031681565b60006001600160e01b031982166380ac58cd60e01b148061051457506001600160e01b03198216636cdb3d1360e11b145b92915050565b33610523610c9c565b6001600160a01b0316146105525760405162461bcd60e51b815260040161054990611aee565b60405180910390fd5b6001600160a01b0383166000818152600760209081526040808320868452825291829020849055905183815284929133917fd3f07ca0a8e78f29d8f76b6e727b63ae6c34dd8df1a01b76efc61804e5db3124910160405180910390a4505050565b6002805414156105d55760405162461bcd60e51b815260040161054990611b23565b6002805581600a8110156105fc57604051630aaff25360e41b815260040160405180910390fd5b61060f69021e19e0c9bab2400000611533565b600061061a83610f8f565b905060003360048054604051630bce6ea960e31b81529293506001600160a01b031691635e737548916106539189918691889101611b5a565b600060405180830381600087803b15801561066d57600080fd5b505af1158015610681573d6000803e3d6000fd5b50506040518792506001600160a01b03841691507fd8138f8a3f377c5259ca548e70e4c2de94f129f5a11036a15b69513cba2b426a90600090a350506001600255505050565b6040516001600160601b03193060601b16602082015260348101829052600090605401604051602081830303815290604052805190602001209050919050565b33610710610c9c565b6001600160a01b0316146107365760405162461bcd60e51b815260040161054990611aee565b6003546001600160a01b0316156107605760405163d7a1a5ef60e01b815260040160405180910390fd5b306001600160a01b0316826001600160a01b0316638da5cb5b6040518163ffffffff1660e01b815260040160206040518083038186803b1580156107a357600080fd5b505afa1580156107b7573d6000803e3d6000fd5b505050506040513d601f19601f820116820180604052508101906107db91906116b3565b6001600160a01b0316141561080657600380546001600160a01b0319166001600160a01b0384161790555b6004546001600160a01b0316156108305760405163d7a1a5ef60e01b815260040160405180910390fd5b306001600160a01b0316816001600160a01b0316638da5cb5b6040518163ffffffff1660e01b815260040160206040518083038186803b15801561087357600080fd5b505afa158015610887573d6000803e3d6000fd5b505050506040513d601f19601f820116820180604052508101906108ab91906116b3565b6001600160a01b031614156108d657600480546001600160a01b0319166001600160a01b0383161790555b5050565b6002805414156108fc5760405162461bcd60e51b815260040161054990611b23565b6002805582600a81101561092357604051630aaff25360e41b815260040160405180910390fd5b60008381526006602052604090205461093b81611533565b600061094684610f8f565b6004805460405163044c1dfb60e31b815291820189905260248201889052604482018390529192506001600160a01b0390911690632260efd890606401600060405180830381600087803b15801561099d57600080fd5b505af11580156109b1573d6000803e3d6000fd5b505060405187925088915033907f30251b050c2639441362268961f1e92038b6e0e074621935e198f6f8f3fd759690600090a45050600160025550505050565b336109fa610c9c565b6001600160a01b031614610a205760405162461bcd60e51b815260040161054990611aee565b6001600160a01b0382166000818152600560205260408082208490555183929133917fa292d75692645497fed2391b95e268a055cbd26ffae25f408bd10b7135cea6269190a45050565b33610a73610c9c565b6001600160a01b031614610a995760405162461bcd60e51b815260040161054990611aee565b600280541415610abb5760405162461bcd60e51b815260040161054990611b23565b6002805580610add57604051630597a9ab60e11b815260040160405180910390fd5b826001600160a01b031663f242432a30610af5610c9c565b604080516000815260208101918290526001600160e01b031960e086901b16909152610b2a9291908790879060248101611a90565b600060405180830381600087803b158015610b4457600080fd5b505af1158015610b58573d6000803e3d6000fd5b5050505081836001600160a01b0316610b6e3390565b6001600160a01b03167f28d2cfe87984a8cc7e24396f474935b5cd864f06c0a75315261b1200ab32802184604051610ba891815260200190565b60405180910390a45050600160025550565b33610bc3610c9c565b6001600160a01b031614610be95760405162461bcd60e51b815260040161054990611aee565b610bf360006115b8565b565b33610bfe610c9c565b6001600160a01b031614610c245760405162461bcd60e51b815260040161054990611aee565b81610c316001600a611bfd565b811180610c3e5750600181105b15610c5c57604051632380c6df60e01b815260040160405180910390fd5b60008381526006602052604080822084905551839185917f3f388cecda5117f6ad1658cf6dd06da87f6f6d72492e3f8acc08803792b5772d9190a3505050565b6001546001600160a01b031690565b6001600160a01b038216600081815260076020908152604080832085845282528083205493835260059091528120549091610ce591611b79565b9392505050565b600280541415610d0e5760405162461bcd60e51b815260040161054990611b23565b600280556001600160a01b0384166000908152600560205260409020548490610d4a57604051638182dbb760e01b815260040160405180910390fd5b82610d6857604051630597a9ab60e11b815260040160405180910390fd5b336000610d758787610cab565b90506001851115610da057670de0b6b3a7640000610d938287611bde565b610d9d9190611bbc565b90505b600a841115610e58576000308588604051602001610dc093929190611a2e565b60408051601f1981840301815290829052805160209091012060048054630bce6ea960e31b84529193506001600160a01b0390911691635e73754891610e0c9189918891879101611b5a565b600060405180830381600087803b158015610e2657600080fd5b505af1158015610e3a573d6000803e3d6000fd5b5050505069021e19e0c9bab240000082610e549190611bfd565b9150505b6003546040516340c10f1960e01b81526001600160a01b03909116906340c10f1990610e8a9085908590600401611ad5565b600060405180830381600087803b158015610ea457600080fd5b505af1158015610eb8573d6000803e3d6000fd5b505060408051600081526020810191829052637921219560e11b9091526001600160a01b038a16925063f242432a9150610efd90859030908b908b9060248101611a90565b600060405180830381600087803b158015610f1757600080fd5b505af1158015610f2b573d6000803e3d6000fd5b505060408051888152602081018590529081018790528892506001600160a01b03808b1692508516907fd07a96141be9310b3a0c778f5f250e83196e4dc0d0833b82196bc633ead802789060600160405180910390a4505060016002555050505050565b3360009081526020819052604081206001810154600160401b900460ff1615610fcb5760405163ea1708f760e01b815260040160405180910390fd5b60018101805460ff60401b1916600160401b1790558054610feb846106c7565b146110095760405163061edd1560e11b815260040160405180910390fd5b60018101546001600160401b03908116439091161161103b57604051630fe34f0760e21b815260040160405180910390fd5b6001810154611054906001600160401b031660fa611b91565b6001600160401b0316436001600160401b0316111561108657604051630fe34f0760e21b815260040160405180910390fd5b6001810154604080516001600160401b0390921640602083018190529082018590529060009060600160408051808303601f190181528282528051602091820120888452908301819052925033917fbc016dd1cadeaefcb851af7a0a93532e0023d536894b730801f7bcfe7065bcc2910160405180910390a2949350505050565b33611110610c9c565b6001600160a01b0316146111365760405162461bcd60e51b815260040161054990611aee565b6002805414156111585760405162461bcd60e51b815260040161054990611b23565b600280556001600160a01b0382166342842e0e30611174610c9c565b6040516001600160e01b031960e085901b1681526001600160a01b0392831660048201529116602482015260448101849052606401600060405180830381600087803b1580156111c357600080fd5b505af11580156111d7573d6000803e3d6000fd5b5050505080826001600160a01b03166111ed3390565b6001600160a01b03167f28d2cfe87984a8cc7e24396f474935b5cd864f06c0a75315261b1200ab328021600160405161122891815260200190565b60405180910390a450506001600255565b60028054141561125b5760405162461bcd60e51b815260040161054990611b23565b600280556001600160a01b038316600090815260056020526040902054839061129757604051638182dbb760e01b815260040160405180910390fd5b3360006112a48686610cab565b9050600a84111561135e5760003085876040516020016112c693929190611a2e565b60408051601f1981840301815290829052805160209091012060048054630bce6ea960e31b84529193506001600160a01b0390911691635e737548916113129189918891879101611b5a565b600060405180830381600087803b15801561132c57600080fd5b505af1158015611340573d6000803e3d6000fd5b5050505069021e19e0c9bab24000008261135a9190611bfd565b9150505b6003546040516340c10f1960e01b81526001600160a01b03909116906340c10f19906113909085908590600401611ad5565b600060405180830381600087803b1580156113aa57600080fd5b505af11580156113be573d6000803e3d6000fd5b505060408051600081526020810191829052635c46a7ef60e11b9091526001600160a01b038916925063b88d4fde915061140190859030908a9060248101611a53565b600060405180830381600087803b15801561141b57600080fd5b505af115801561142f573d6000803e3d6000fd5b50506040805160018152602081018590529081018790528792506001600160a01b03808a1692508516907fd07a96141be9310b3a0c778f5f250e83196e4dc0d0833b82196bc633ead802789060600160405180910390a45050600160025550505050565b3361149c610c9c565b6001600160a01b0316146114c25760405162461bcd60e51b815260040161054990611aee565b6001600160a01b0381166115275760405162461bcd60e51b815260206004820152602660248201527f4f776e61626c653a206e6577206f776e657220697320746865207a65726f206160448201526564647265737360d01b6064820152608401610549565b611530816115b8565b50565b8061155157604051630597a9ab60e11b815260040160405180910390fd5b600354604051632770a7eb60e21b81526001600160a01b0390911690639dc29fac906115839033908590600401611ad5565b600060405180830381600087803b15801561159d57600080fd5b505af11580156115b1573d6000803e3d6000fd5b5050505050565b600180546001600160a01b038381166001600160a01b0319831681179093556040519116919082907f8be0079c531659141344cd1fd0a4f28419497f9722a3daafe3b4186f6b6457e090600090a35050565b60008083601f84011261161c57600080fd5b5081356001600160401b0381111561163357600080fd5b6020830191508360208260051b850101111561164e57600080fd5b9250929050565b60008083601f84011261166757600080fd5b5081356001600160401b0381111561167e57600080fd5b60208301915083602082850101111561164e57600080fd5b6000602082840312156116a857600080fd5b8135610ce581611c2a565b6000602082840312156116c557600080fd5b8151610ce581611c2a565b600080604083850312156116e357600080fd5b82356116ee81611c2a565b915060208301356116fe81611c2a565b809150509250929050565b60008060008060008060008060a0898b03121561172557600080fd5b883561173081611c2a565b9750602089013561174081611c2a565b965060408901356001600160401b038082111561175c57600080fd5b6117688c838d0161160a565b909850965060608b013591508082111561178157600080fd5b61178d8c838d0161160a565b909650945060808b01359150808211156117a657600080fd5b506117b38b828c01611655565b999c989b5096995094979396929594505050565b6000806000806000608086880312156117df57600080fd5b85356117ea81611c2a565b945060208601356117fa81611c2a565b93506040860135925060608601356001600160401b0381111561181c57600080fd5b61182888828901611655565b969995985093965092949392505050565b60008060008060008060a0878903121561185257600080fd5b863561185d81611c2a565b9550602087013561186d81611c2a565b9450604087013593506060870135925060808701356001600160401b0381111561189657600080fd5b6118a289828a01611655565b979a9699509497509295939492505050565b600080604083850312156118c757600080fd5b82356118d281611c2a565b946020939093013593505050565b6000806000606084860312156118f557600080fd5b833561190081611c2a565b95602085013595506040909401359392505050565b6000806000806080858703121561192b57600080fd5b843561193681611c2a565b966020860135965060408601359560600135945092505050565b60006020828403121561196257600080fd5b5035919050565b60006020828403121561197b57600080fd5b81356001600160e01b031981168114610ce557600080fd5b600080604083850312156119a657600080fd5b50508035926020909101359150565b6000806000606084860312156119ca57600080fd5b505081359360208301359350604090920135919050565b6000815180845260005b81811015611a07576020818501810151868301820152016119eb565b81811115611a19576000602083870101525b50601f01601f19169290920160200192915050565b60609390931b6001600160601b03191683526014830191909152603482015260540190565b6001600160a01b0385811682528416602082015260408101839052608060608201819052600090611a86908301846119e1565b9695505050505050565b6001600160a01b03868116825285166020820152604081018490526060810183905260a060808201819052600090611aca908301846119e1565b979650505050505050565b6001600160a01b03929092168252602082015260400190565b6020808252818101527f4f776e61626c653a2063616c6c6572206973206e6f7420746865206f776e6572604082015260600190565b6020808252601f908201527f5265656e7472616e637947756172643a207265656e7472616e742063616c6c00604082015260600190565b9283526001600160a01b03919091166020830152604082015260600190565b60008219821115611b8c57611b8c611c14565b500190565b60006001600160401b03808316818516808303821115611bb357611bb3611c14565b01949350505050565b600082611bd957634e487b7160e01b600052601260045260246000fd5b500490565b6000816000190483118215151615611bf857611bf8611c14565b500290565b600082821015611c0f57611c0f611c14565b500390565b634e487b7160e01b600052601160045260246000fd5b6001600160a01b038116811461153057600080fdfea2646970667358221220bcac25aa35ffce644590cf7af3169779b2f6534c36f14c39e4b254e553b6e0d864736f6c63430008060033",
  "devdoc": {
    "kind": "dev",
    "methods": {
      "claim(uint256,bytes32)": {
        "params": {
          "revealHash": "Unhashed key used in a commit",
          "tokenId": "Token with `tokenId` to mint. Maps tokenId to individual item ids in ItemIds"
        }
      },
      "commitKey(bytes32)": {
        "details": "Miner cannot guess key, user cannot get block hash (thats the idea)"
      },
      "initialize(address,address)": {
        "details": "One time use, these contracts must have their `owner` set to this address",
        "params": {
          "shadowling_": "Shadowlings ERC721 contract",
          "void_": "Void token contract"
        }
      },
      "owner()": {
        "details": "Returns the address of the current owner."
      },
      "renounceOwnership()": {
        "details": "Leaves the contract without owner. It will not be possible to call `onlyOwner` functions anymore. Can only be called by the current owner. NOTE: Renouncing ownership will leave the contract without an owner, thereby removing any functionality that is only available to the owner."
      },
      "revealKey(bytes32)": {
        "details": "Uses block hash and reveal hash for randomness"
      },
      "sacrifice1155(address,uint256,uint256,uint256)": {
        "details": "Sacrifice function for ERC1155",
        "params": {
          "shadowlingId": "If greater than start index, mints shadowling",
          "token": "Asset to sacrifice",
          "tokenId": "Specific asset to sacrifice"
        }
      },
      "sacrifice721(address,uint256,uint256)": {
        "details": "Sacrifice function for ERC721, must be approved beforehand",
        "params": {
          "shadowlingId": "If greater than start index, mints shadowling",
          "token": "Asset to sacrifice",
          "tokenId": "Specific asset to sacrifice"
        }
      },
      "setBaseCost(address,uint256)": {
        "params": {
          "amount": "Amount of void minted per `token` burned",
          "token": "Address to update the cost value of"
        }
      },
      "setPremiumCost(address,uint256,uint256)": {
        "params": {
          "amount": "Extra amount of void tokens received",
          "token": "Address to update the cost value of",
          "tokenId": "Specific tokenId to delist"
        }
      },
      "supportsInterface(bytes4)": {
        "details": "Returns true if this contract implements the interface defined by `interfaceId`. See the corresponding https://eips.ethereum.org/EIPS/eip-165#how-interfaces-are-identified[EIP section] to learn more about how these ids are created. This function call must use less than 30 000 gas."
      },
      "totalCost(address,uint256)": {
        "returns": {
          "_0": "Amount of VOID minted from sacrificing `token` with `tokenId"
        }
      },
      "transferOwnership(address)": {
        "details": "Transfers ownership of the contract to a new account (`newOwner`). Can only be called by the current owner."
      }
    },
    "version": 1
  },
  "userdoc": {
    "errors": {
      "BlockError()": [
        {
          "notice": "Thrown if attempting to reveal in same block or 250 blocks too late"
        }
      ],
      "CommitError()": [
        {
          "notice": "Thrown if a commit has already been revealed"
        }
      ],
      "CurrencyError()": [
        {
          "notice": "Thrown on attempting to use incorrect currencyId"
        }
      ],
      "HashError()": [
        {
          "notice": "Thrown if a hashed revealHash does not match the commit"
        }
      ],
      "InitializedError()": [
        {
          "notice": "Thrown on attempting to set an already set `void`"
        }
      ],
      "ListedError()": [
        {
          "notice": "Thrown on attempting to burn a non-whitelisted asset"
        }
      ],
      "RevealedError()": [
        {
          "notice": "Thrown on revealing a committed hash"
        }
      ],
      "TokenError()": [
        {
          "notice": "Thrown on attempting to use inccorect tokenId"
        }
      ],
      "ZeroError()": [
        {
          "notice": "Thrown on passing a zero value as a parameter, you're welcome"
        }
      ]
    },
    "events": {
      "Claimed(address,uint256)": {
        "notice": "Emitted on burning void tokens to claim a Shadowling"
      },
      "Modified(address,uint256,uint256)": {
        "notice": "Emitted on modifying a Shadowling's attributes"
      },
      "RevealHash(address,bytes32,uint256)": {
        "notice": "Emitted on revealing a committed hash key"
      },
      "Sacrificed(address,address,uint256,uint256,uint256,uint256)": {
        "notice": "Emitted on sacrifice and minting of VOID"
      },
      "SetBaseCost(address,address,uint256)": {
        "notice": "Emitted on upating the base amount of void received from burning an nft"
      },
      "SetCurrencyCost(uint256,uint256)": {
        "notice": "Emitted on setting the price of a currency usage in void tokens"
      },
      "SetPremiumCost(address,address,uint256,uint256)": {
        "notice": "Emitted on updating the premium amount of void received from burning an nft"
      },
      "Taken(address,address,uint256,uint256)": {
        "notice": "Emitted when an owner removes tokens"
      }
    },
    "kind": "user",
    "methods": {
      "SHADOWLING_COST()": {
        "notice": "Void burned for conjuring a Shadowling"
      },
      "claim(uint256,bytes32)": {
        "notice": "Mints Shadowlings to `msg.sender`, cannot mint 0 tokenId"
      },
      "commitKey(bytes32)": {
        "notice": "Commits a hashed key to be revealed later"
      },
      "commits(address)": {
        "notice": "Storage for commits"
      },
      "cost(address)": {
        "notice": "Cost of the NFT with `address`, denominated in VOID tokens"
      },
      "currencyCost(uint256)": {
        "notice": "Maps currencyIds to their respective Void token cost"
      },
      "getHash(bytes32)": {
        "notice": "Keccak256 hash of this contract's address and `keyHash`"
      },
      "initialize(address,address)": {
        "notice": "Sets the void token and shadowling contract addresses"
      },
      "modify(uint256,uint256,bytes32)": {
        "notice": "Modifies a Shadowling using with the `currencyId`, changing its attributes"
      },
      "premium(address,uint256)": {
        "notice": "Additional premium cost of an NFT with `tokenId`, denominated in VOID tokens"
      },
      "revealKey(bytes32)": {
        "notice": "Reveals the key by submitting `revealHash`"
      },
      "sacrifice1155(address,uint256,uint256,uint256)": {
        "notice": "Sacrifices `amount` of `token` with `tokenId` to the Shadowpakt, and receives VOID"
      },
      "sacrifice721(address,uint256,uint256)": {
        "notice": "Sacrifices `token` with `tokenId` to the Shadowpakt, and receives VOID"
      },
      "setBaseCost(address,uint256)": {
        "notice": "Update an `address` of an nft to be whitelisted to receive void on burn"
      },
      "setCurrencyCost(uint256,uint256)": {
        "notice": "Sets the cost of using this currency, denominated in void tokens"
      },
      "setPremiumCost(address,uint256,uint256)": {
        "notice": "Sets an extra amount of void received from burning an nft with `tokenId`"
      },
      "shadowling()": {
        "notice": "Shadowling NFT"
      },
      "takeMany(address,uint256,uint256)": {
        "notice": "Owner function to pull ERC1155 tokens from this contract for nefarious purposes"
      },
      "takeSingle(address,uint256)": {
        "notice": "Owner function to pull ERC721 tokens from this contract for nefarious purposes"
      },
      "void()": {
        "notice": "Void Token to mint"
      }
    },
    "notice": "Summons Shadowlings from the Shadowchain",
    "version": 1
  },
  "storageLayout": {
    "storage": [
      {
        "astId": 7575,
        "contract": "contracts/Altar.sol:Altar",
        "label": "commits",
        "offset": 0,
        "slot": "0",
        "type": "t_mapping(t_address,t_struct(Commit)7568_storage)"
      },
      {
        "astId": 7,
        "contract": "contracts/Altar.sol:Altar",
        "label": "_owner",
        "offset": 0,
        "slot": "1",
        "type": "t_address"
      },
      {
        "astId": 114,
        "contract": "contracts/Altar.sol:Altar",
        "label": "_status",
        "offset": 0,
        "slot": "2",
        "type": "t_uint256"
      },
      {
        "astId": 6606,
        "contract": "contracts/Altar.sol:Altar",
        "label": "void",
        "offset": 0,
        "slot": "3",
        "type": "t_address"
      },
      {
        "astId": 6610,
        "contract": "contracts/Altar.sol:Altar",
        "label": "shadowling",
        "offset": 0,
        "slot": "4",
        "type": "t_address"
      },
      {
        "astId": 6616,
        "contract": "contracts/Altar.sol:Altar",
        "label": "cost",
        "offset": 0,
        "slot": "5",
        "type": "t_mapping(t_address,t_uint256)"
      },
      {
        "astId": 6622,
        "contract": "contracts/Altar.sol:Altar",
        "label": "currencyCost",
        "offset": 0,
        "slot": "6",
        "type": "t_mapping(t_uint256,t_uint256)"
      },
      {
        "astId": 6630,
        "contract": "contracts/Altar.sol:Altar",
        "label": "premium",
        "offset": 0,
        "slot": "7",
        "type": "t_mapping(t_address,t_mapping(t_uint256,t_uint256))"
      }
    ],
    "types": {
      "t_address": {
        "encoding": "inplace",
        "label": "address",
        "numberOfBytes": "20"
      },
      "t_bool": {
        "encoding": "inplace",
        "label": "bool",
        "numberOfBytes": "1"
      },
      "t_bytes32": {
        "encoding": "inplace",
        "label": "bytes32",
        "numberOfBytes": "32"
      },
      "t_mapping(t_address,t_mapping(t_uint256,t_uint256))": {
        "encoding": "mapping",
        "key": "t_address",
        "label": "mapping(address => mapping(uint256 => uint256))",
        "numberOfBytes": "32",
        "value": "t_mapping(t_uint256,t_uint256)"
      },
      "t_mapping(t_address,t_struct(Commit)7568_storage)": {
        "encoding": "mapping",
        "key": "t_address",
        "label": "mapping(address => struct Shadowpakt.Commit)",
        "numberOfBytes": "32",
        "value": "t_struct(Commit)7568_storage"
      },
      "t_mapping(t_address,t_uint256)": {
        "encoding": "mapping",
        "key": "t_address",
        "label": "mapping(address => uint256)",
        "numberOfBytes": "32",
        "value": "t_uint256"
      },
      "t_mapping(t_uint256,t_uint256)": {
        "encoding": "mapping",
        "key": "t_uint256",
        "label": "mapping(uint256 => uint256)",
        "numberOfBytes": "32",
        "value": "t_uint256"
      },
      "t_struct(Commit)7568_storage": {
        "encoding": "inplace",
        "label": "struct Shadowpakt.Commit",
        "members": [
          {
            "astId": 7563,
            "contract": "contracts/Altar.sol:Altar",
            "label": "commit",
            "offset": 0,
            "slot": "0",
            "type": "t_bytes32"
          },
          {
            "astId": 7565,
            "contract": "contracts/Altar.sol:Altar",
            "label": "blockNumber",
            "offset": 0,
            "slot": "1",
            "type": "t_uint64"
          },
          {
            "astId": 7567,
            "contract": "contracts/Altar.sol:Altar",
            "label": "revealed",
            "offset": 8,
            "slot": "1",
            "type": "t_bool"
          }
        ],
        "numberOfBytes": "64"
      },
      "t_uint256": {
        "encoding": "inplace",
        "label": "uint256",
        "numberOfBytes": "32"
      },
      "t_uint64": {
        "encoding": "inplace",
        "label": "uint64",
        "numberOfBytes": "8"
      }
    }
  }
}