{
  "address": "0xD05222558624D7421cbDd52560bB933BC4998a45",
  "abi": [
    {
      "inputs": [
        {
          "internalType": "address",
          "name": "altar",
          "type": "address"
        }
      ],
      "stateMutability": "nonpayable",
      "type": "constructor"
    },
    {
      "inputs": [],
      "name": "ModifyError",
      "type": "error"
    },
    {
      "anonymous": false,
      "inputs": [
        {
          "indexed": true,
          "internalType": "address",
          "name": "owner",
          "type": "address"
        },
        {
          "indexed": true,
          "internalType": "address",
          "name": "approved",
          "type": "address"
        },
        {
          "indexed": true,
          "internalType": "uint256",
          "name": "tokenId",
          "type": "uint256"
        }
      ],
      "name": "Approval",
      "type": "event"
    },
    {
      "anonymous": false,
      "inputs": [
        {
          "indexed": true,
          "internalType": "address",
          "name": "owner",
          "type": "address"
        },
        {
          "indexed": true,
          "internalType": "address",
          "name": "operator",
          "type": "address"
        },
        {
          "indexed": false,
          "internalType": "bool",
          "name": "approved",
          "type": "bool"
        }
      ],
      "name": "ApprovalForAll",
      "type": "event"
    },
    {
      "anonymous": false,
      "inputs": [
        {
          "indexed": true,
          "internalType": "address",
          "name": "previousOwner",
          "type": "address"
        },
        {
          "indexed": true,
          "internalType": "address",
          "name": "newOwner",
          "type": "address"
        }
      ],
      "name": "OwnershipTransferred",
      "type": "event"
    },
    {
      "anonymous": false,
      "inputs": [
        {
          "indexed": true,
          "internalType": "address",
          "name": "from",
          "type": "address"
        },
        {
          "indexed": true,
          "internalType": "address",
          "name": "to",
          "type": "address"
        },
        {
          "indexed": true,
          "internalType": "uint256",
          "name": "tokenId",
          "type": "uint256"
        }
      ],
      "name": "Transfer",
      "type": "event"
    },
    {
      "inputs": [
        {
          "internalType": "address",
          "name": "to",
          "type": "address"
        },
        {
          "internalType": "uint256",
          "name": "tokenId",
          "type": "uint256"
        }
      ],
      "name": "approve",
      "outputs": [],
      "stateMutability": "nonpayable",
      "type": "function"
    },
    {
      "inputs": [
        {
          "internalType": "uint256",
          "name": "tokenId",
          "type": "uint256"
        }
      ],
      "name": "attributes",
      "outputs": [
        {
          "internalType": "string",
          "name": "",
          "type": "string"
        }
      ],
      "stateMutability": "view",
      "type": "function"
    },
    {
      "inputs": [
        {
          "internalType": "uint256",
          "name": "itemId",
          "type": "uint256"
        }
      ],
      "name": "attributesItem",
      "outputs": [
        {
          "internalType": "string",
          "name": "",
          "type": "string"
        }
      ],
      "stateMutability": "pure",
      "type": "function"
    },
    {
      "inputs": [
        {
          "internalType": "address",
          "name": "owner",
          "type": "address"
        }
      ],
      "name": "balanceOf",
      "outputs": [
        {
          "internalType": "uint256",
          "name": "",
          "type": "uint256"
        }
      ],
      "stateMutability": "view",
      "type": "function"
    },
    {
      "inputs": [
        {
          "internalType": "uint256",
          "name": "tokenId",
          "type": "uint256"
        },
        {
          "internalType": "address",
          "name": "recipient",
          "type": "address"
        },
        {
          "internalType": "uint256",
          "name": "seed",
          "type": "uint256"
        }
      ],
      "name": "claim",
      "outputs": [],
      "stateMutability": "nonpayable",
      "type": "function"
    },
    {
      "inputs": [],
      "name": "contractURI",
      "outputs": [
        {
          "internalType": "string",
          "name": "",
          "type": "string"
        }
      ],
      "stateMutability": "pure",
      "type": "function"
    },
    {
      "inputs": [
        {
          "internalType": "uint256",
          "name": "tokenId",
          "type": "uint256"
        }
      ],
      "name": "getApproved",
      "outputs": [
        {
          "internalType": "address",
          "name": "",
          "type": "address"
        }
      ],
      "stateMutability": "view",
      "type": "function"
    },
    {
      "inputs": [
        {
          "internalType": "address",
          "name": "owner",
          "type": "address"
        },
        {
          "internalType": "address",
          "name": "operator",
          "type": "address"
        }
      ],
      "name": "isApprovedForAll",
      "outputs": [
        {
          "internalType": "bool",
          "name": "",
          "type": "bool"
        }
      ],
      "stateMutability": "view",
      "type": "function"
    },
    {
      "inputs": [
        {
          "internalType": "uint256",
          "name": "tokenId",
          "type": "uint256"
        },
        {
          "internalType": "uint256",
          "name": "currencyId",
          "type": "uint256"
        },
        {
          "internalType": "uint256",
          "name": "seed",
          "type": "uint256"
        }
      ],
      "name": "modify",
      "outputs": [],
      "stateMutability": "nonpayable",
      "type": "function"
    },
    {
      "inputs": [],
      "name": "name",
      "outputs": [
        {
          "internalType": "string",
          "name": "",
          "type": "string"
        }
      ],
      "stateMutability": "view",
      "type": "function"
    },
    {
      "inputs": [],
      "name": "owner",
      "outputs": [
        {
          "internalType": "address",
          "name": "",
          "type": "address"
        }
      ],
      "stateMutability": "view",
      "type": "function"
    },
    {
      "inputs": [
        {
          "internalType": "uint256",
          "name": "tokenId",
          "type": "uint256"
        }
      ],
      "name": "ownerOf",
      "outputs": [
        {
          "internalType": "address",
          "name": "",
          "type": "address"
        }
      ],
      "stateMutability": "view",
      "type": "function"
    },
    {
      "inputs": [
        {
          "internalType": "uint256",
          "name": "tokenId",
          "type": "uint256"
        }
      ],
      "name": "properties",
      "outputs": [
        {
          "components": [
            {
              "internalType": "string",
              "name": "creature",
              "type": "string"
            },
            {
              "internalType": "string",
              "name": "item",
              "type": "string"
            },
            {
              "internalType": "string",
              "name": "origin",
              "type": "string"
            },
            {
              "internalType": "string",
              "name": "bloodline",
              "type": "string"
            },
            {
              "internalType": "string",
              "name": "perk",
              "type": "string"
            },
            {
              "internalType": "string",
              "name": "name",
              "type": "string"
            }
          ],
          "internalType": "struct Attributes.ItemStrings",
          "name": "",
          "type": "tuple"
        }
      ],
      "stateMutability": "view",
      "type": "function"
    },
    {
      "inputs": [
        {
          "internalType": "uint256",
          "name": "",
          "type": "uint256"
        }
      ],
      "name": "propertiesOf",
      "outputs": [
        {
          "internalType": "uint256",
          "name": "creature",
          "type": "uint256"
        },
        {
          "internalType": "uint256",
          "name": "item",
          "type": "uint256"
        },
        {
          "internalType": "uint256",
          "name": "origin",
          "type": "uint256"
        },
        {
          "internalType": "uint256",
          "name": "bloodline",
          "type": "uint256"
        },
        {
          "internalType": "uint256",
          "name": "perk",
          "type": "uint256"
        },
        {
          "internalType": "uint256",
          "name": "name",
          "type": "uint256"
        }
      ],
      "stateMutability": "view",
      "type": "function"
    },
    {
      "inputs": [
        {
          "internalType": "string",
          "name": "attributes",
          "type": "string"
        }
      ],
      "name": "render",
      "outputs": [
        {
          "internalType": "string",
          "name": "",
          "type": "string"
        }
      ],
      "stateMutability": "view",
      "type": "function"
    },
    {
      "inputs": [],
      "name": "renounceOwnership",
      "outputs": [],
      "stateMutability": "nonpayable",
      "type": "function"
    },
    {
      "inputs": [
        {
          "internalType": "address",
          "name": "from",
          "type": "address"
        },
        {
          "internalType": "address",
          "name": "to",
          "type": "address"
        },
        {
          "internalType": "uint256",
          "name": "tokenId",
          "type": "uint256"
        }
      ],
      "name": "safeTransferFrom",
      "outputs": [],
      "stateMutability": "nonpayable",
      "type": "function"
    },
    {
      "inputs": [
        {
          "internalType": "address",
          "name": "from",
          "type": "address"
        },
        {
          "internalType": "address",
          "name": "to",
          "type": "address"
        },
        {
          "internalType": "uint256",
          "name": "tokenId",
          "type": "uint256"
        },
        {
          "internalType": "bytes",
          "name": "_data",
          "type": "bytes"
        }
      ],
      "name": "safeTransferFrom",
      "outputs": [],
      "stateMutability": "nonpayable",
      "type": "function"
    },
    {
      "inputs": [
        {
          "internalType": "address",
          "name": "operator",
          "type": "address"
        },
        {
          "internalType": "bool",
          "name": "approved",
          "type": "bool"
        }
      ],
      "name": "setApprovalForAll",
      "outputs": [],
      "stateMutability": "nonpayable",
      "type": "function"
    },
    {
      "inputs": [
        {
          "internalType": "bytes4",
          "name": "interfaceId",
          "type": "bytes4"
        }
      ],
      "name": "supportsInterface",
      "outputs": [
        {
          "internalType": "bool",
          "name": "",
          "type": "bool"
        }
      ],
      "stateMutability": "view",
      "type": "function"
    },
    {
      "inputs": [],
      "name": "symbol",
      "outputs": [
        {
          "internalType": "string",
          "name": "",
          "type": "string"
        }
      ],
      "stateMutability": "view",
      "type": "function"
    },
    {
      "inputs": [
        {
          "internalType": "uint256",
          "name": "index",
          "type": "uint256"
        }
      ],
      "name": "tokenByIndex",
      "outputs": [
        {
          "internalType": "uint256",
          "name": "",
          "type": "uint256"
        }
      ],
      "stateMutability": "view",
      "type": "function"
    },
    {
      "inputs": [
        {
          "internalType": "address",
          "name": "owner",
          "type": "address"
        },
        {
          "internalType": "uint256",
          "name": "index",
          "type": "uint256"
        }
      ],
      "name": "tokenOfOwnerByIndex",
      "outputs": [
        {
          "internalType": "uint256",
          "name": "",
          "type": "uint256"
        }
      ],
      "stateMutability": "view",
      "type": "function"
    },
    {
      "inputs": [
        {
          "internalType": "uint256",
          "name": "tokenId",
          "type": "uint256"
        }
      ],
      "name": "tokenURI",
      "outputs": [
        {
          "internalType": "string",
          "name": "",
          "type": "string"
        }
      ],
      "stateMutability": "view",
      "type": "function"
    },
    {
      "inputs": [],
      "name": "totalSupply",
      "outputs": [
        {
          "internalType": "uint256",
          "name": "",
          "type": "uint256"
        }
      ],
      "stateMutability": "view",
      "type": "function"
    },
    {
      "inputs": [
        {
          "internalType": "address",
          "name": "from",
          "type": "address"
        },
        {
          "internalType": "address",
          "name": "to",
          "type": "address"
        },
        {
          "internalType": "uint256",
          "name": "tokenId",
          "type": "uint256"
        }
      ],
      "name": "transferFrom",
      "outputs": [],
      "stateMutability": "nonpayable",
      "type": "function"
    },
    {
      "inputs": [
        {
          "internalType": "address",
          "name": "newOwner",
          "type": "address"
        }
      ],
      "name": "transferOwnership",
      "outputs": [],
      "stateMutability": "nonpayable",
      "type": "function"
    }
  ],
  "transactionHash": "0xc63623277affd74070cb36d626c1c1cf137699a229c5834e1b1f41ea6fc10e30",
  "args": [
    "0x25749a6FF3cfC87019d4Bc00eD282D5B7BDE4b1d"
  ],
  "solcInputHash": "7dedd8b6c185c6834f8a5639a74f0b2c",
  "bytecode": "0x60806040523480156200001157600080fd5b5060405162005eec38038062005eec83398101604081905262000034916200029e565b604080518082018252600b81526a536861646f776c696e677360a81b6020808301918252835180850190945260048452635348445760e01b9084015281519192916200008391600091620001f8565b50805162000099906001906020840190620001f8565b505050620000b6620000b0620000cd60201b60201c565b620000d1565b6001600c55620000c68162000123565b506200030d565b3390565b600b80546001600160a01b038381166001600160a01b0319831681179093556040519116919082907f8be0079c531659141344cd1fd0a4f28419497f9722a3daafe3b4186f6b6457e090600090a35050565b600b546001600160a01b03163314620001835760405162461bcd60e51b815260206004820181905260248201527f4f776e61626c653a2063616c6c6572206973206e6f7420746865206f776e657260448201526064015b60405180910390fd5b6001600160a01b038116620001ea5760405162461bcd60e51b815260206004820152602660248201527f4f776e61626c653a206e6577206f776e657220697320746865207a65726f206160448201526564647265737360d01b60648201526084016200017a565b620001f581620000d1565b50565b8280546200020690620002d0565b90600052602060002090601f0160209004810192826200022a576000855562000275565b82601f106200024557805160ff191683800117855562000275565b8280016001018555821562000275579182015b828111156200027557825182559160200191906001019062000258565b506200028392915062000287565b5090565b5b8082111562000283576000815560010162000288565b600060208284031215620002b157600080fd5b81516001600160a01b0381168114620002c957600080fd5b9392505050565b600181811c90821680620002e557607f821691505b602082108114156200030757634e487b7160e01b600052602260045260246000fd5b50919050565b615bcf806200031d6000396000f3fe608060405234801561001057600080fd5b50600436106101795760003560e01c806370a08231116100d9578063c87b56dd11610087578063c87b56dd14610366578063d05dcc6a14610379578063dd7786861461038c578063e8a3d4851461039f578063e985e9c5146103a7578063f2fde38b146103ba578063f7b10808146103cd57600080fd5b806370a0823114610302578063715018a6146103155780638da5cb5b1461031d57806395d89b4114610325578063a22cb4651461032d578063ae64525514610340578063b88d4fde1461035357600080fd5b806323b872dd1161013657806323b872dd146102205780632f745c591461023357806342842e0e146102465780634f6ccce7146102595780635e7375481461026c578063606cf27e1461027f5780636352211e146102ef57600080fd5b806301ffc9a71461017e57806306fdde03146101a6578063081812fc146101bb578063095ea7b3146101e657806318160ddd146101fb5780632260efd81461020d575b600080fd5b61019161018c366004613a66565b6103ed565b60405190151581526020015b60405180910390f35b6101ae610418565b60405161019d9190614205565b6101ce6101c9366004613ae9565b6104aa565b6040516001600160a01b03909116815260200161019d565b6101f96101f4366004613a3c565b610537565b005b6008545b60405190815260200161019d565b6101f961021b366004613b27565b610648565b6101f961022e366004613948565b610804565b6101ff610241366004613a3c565b610835565b6101f9610254366004613948565b6108cb565b6101ff610267366004613ae9565b6108e6565b6101f961027a366004613b02565b610979565b6102c261028d366004613ae9565b600a60205260009081526040902080546001820154600283015460038401546004850154600590950154939492939192909186565b604080519687526020870195909552938501929092526060840152608083015260a082015260c00161019d565b6101ce6102fd366004613ae9565b610a35565b6101ff6103103660046138fa565b610aac565b6101f9610b33565b6101ce610b6e565b6101ae610b7d565b6101f961033b366004613a00565b610b8c565b6101ae61034e366004613aa0565b610c4d565b6101f9610361366004613984565b610cf4565b6101ae610374366004613ae9565b610d2c565b6101ae610387366004613ae9565b610ddc565b6101ae61039a366004613ae9565b610e72565b6101ae610e7d565b6101916103b5366004613915565b610ebc565b6101f96103c83660046138fa565b610eea565b6103e06103db366004613ae9565b610f8a565b60405161019d9190614327565b60006001600160e01b0319821663780e9d6360e01b1480610412575061041282610ff4565b92915050565b60606000805461042790614558565b80601f016020809104026020016040519081016040528092919081815260200182805461045390614558565b80156104a05780601f10610475576101008083540402835291602001916104a0565b820191906000526020600020905b81548152906001019060200180831161048357829003601f168201915b5050505050905090565b60006104b582611044565b61051b5760405162461bcd60e51b815260206004820152602c60248201527f4552433732313a20617070726f76656420717565727920666f72206e6f6e657860448201526b34b9ba32b73a103a37b5b2b760a11b60648201526084015b60405180910390fd5b506000908152600460205260409020546001600160a01b031690565b600061054282610a35565b9050806001600160a01b0316836001600160a01b031614156105b05760405162461bcd60e51b815260206004820152602160248201527f4552433732313a20617070726f76616c20746f2063757272656e74206f776e656044820152603960f91b6064820152608401610512565b336001600160a01b03821614806105cc57506105cc8133610ebc565b6106395760405162461bcd60e51b815260206004820152603860248201527f4552433732313a20617070726f76652063616c6c6572206973206e6f74206f776044820152771b995c881b9bdc88185c1c1c9bdd995908199bdc88185b1b60421b6064820152608401610512565b6106438383611061565b505050565b6002600c54141561066b5760405162461bcd60e51b8152600401610512906142f0565b6002600c5533610679610b6e565b6001600160a01b03161461069f5760405162461bcd60e51b81526004016105129061426a565b6000838152600a6020908152604091829020825160c08101845281548152600182015492810192909252600281015492820192909252600382015460608201526004820154608082015260059091015460a08201526106fc6137b4565b81518152602080830151908201526080820151604082015260a082015160608201526107298482856110cf565b8051909150610739576000610744565b805161074490611514565b82526020810151610756576000610764565b602081015161076490611529565b60208301526040810151610779576000610787565b60408101516107879061153e565b6080830152606081015161079c5760006107aa565b60608101516107aa90611553565b60a083019081526000958652600a6020908152604096879020845181559084015160018083019190915596840151600282015560608401516003820155608090930151600484015551600590920191909155505050600c55565b61080e3382611568565b61082a5760405162461bcd60e51b81526004016105129061429f565b610643838383611632565b600061084083610aac565b82106108a25760405162461bcd60e51b815260206004820152602b60248201527f455243373231456e756d657261626c653a206f776e657220696e646578206f7560448201526a74206f6620626f756e647360a81b6064820152608401610512565b506001600160a01b03919091166000908152600660209081526040808320938352929052205490565b61064383838360405180602001604052806000815250610cf4565b60006108f160085490565b82106109545760405162461bcd60e51b815260206004820152602c60248201527f455243373231456e756d657261626c653a20676c6f62616c20696e646578206f60448201526b7574206f6620626f756e647360a01b6064820152608401610512565b6008828154811061096757610967614604565b90600052602060002001549050919050565b6002600c54141561099c5760405162461bcd60e51b8152600401610512906142f0565b6002600c55336109aa610b6e565b6001600160a01b0316146109d05760405162461bcd60e51b81526004016105129061426a565b6109d9816117dd565b6000848152600a602090815260409182902083518155908301516001820155908201516002820155606082015160038201556080820151600482015560a090910151600590910155610a2b828461187a565b50506001600c5550565b6000818152600260205260408120546001600160a01b0316806104125760405162461bcd60e51b815260206004820152602960248201527f4552433732313a206f776e657220717565727920666f72206e6f6e657869737460448201526832b73a103a37b5b2b760b91b6064820152608401610512565b60006001600160a01b038216610b175760405162461bcd60e51b815260206004820152602a60248201527f4552433732313a2062616c616e636520717565727920666f7220746865207a65604482015269726f206164647265737360b01b6064820152608401610512565b506001600160a01b031660009081526003602052604090205490565b33610b3c610b6e565b6001600160a01b031614610b625760405162461bcd60e51b81526004016105129061426a565b610b6c6000611898565b565b600b546001600160a01b031690565b60606001805461042790614558565b6001600160a01b038216331415610be15760405162461bcd60e51b815260206004820152601960248201527822a9219b99189d1030b8383937bb32903a379031b0b63632b960391b6044820152606401610512565b3360008181526005602090815260408083206001600160a01b03871680855290835292819020805460ff191686151590811790915590519081529192917f17307eab39ab6107e8899845ad3d59bd9653f200f220920489ca2b5937696c31910160405180910390a35050565b6060610c576137d2565b60405180610100016040528060dc8152602001615a9560dc91398082526020808301859052604051600092610c90929091879101613b9b565b604051602081830303815290604052905080604051602001610cb29190613ecd565b6040516020818303038152906040529050610ccc816118ea565b604051602001610cdc919061400e565b60408051601f19818403018152919052949350505050565b610cfe3383611568565b610d1a5760405162461bcd60e51b81526004016105129061429f565b610d2684848484611a50565b50505050565b60606000610d3983610f8a565b90506000610d4682611a83565b610d4f85611c3e565b604051602001610d60929190613b9b565b60405160208183030381529060405290506000610dad610d7f83610c4d565b610d8887610ddc565b604051602001610d99929190613f19565b6040516020818303038152906040526118ea565b9050600081604051602001610dc29190614141565b60408051601f198184030181529190529695505050505050565b6060806000610df2610ded85610f8a565b611d57565b604051602001610e02919061406d565b604051602081830303815290604052905080610e1d85611e83565b604051602001610e2e929190613e6a565b604051602081830303815290604052905080604051602001610e509190613e45565b604051602081830303815290604052905080604051602001610cdc9190614186565b606061041282611ff4565b606060006040518060c0016040528060828152602001614f836082913990506000610ea7826118ea565b9050600081604051602001610cdc9190614141565b6001600160a01b03918216600090815260056020908152604080832093909416825291909152205460ff1690565b33610ef3610b6e565b6001600160a01b031614610f195760405162461bcd60e51b81526004016105129061426a565b6001600160a01b038116610f7e5760405162461bcd60e51b815260206004820152602660248201527f4f776e61626c653a206e6577206f776e657220697320746865207a65726f206160448201526564647265737360d01b6064820152608401610512565b610f8781611898565b50565b610f926137f9565b610412600a60008481526020019081526020016000206040518060c001604052908160008201548152602001600182015481526020016002820154815260200160038201548152602001600482015481526020016005820154815250506122d0565b60006001600160e01b031982166380ac58cd60e01b148061102557506001600160e01b03198216635b5e139f60e01b145b8061041257506301ffc9a760e01b6001600160e01b0319831614610412565b6000908152600260205260409020546001600160a01b0316151590565b600081815260046020526040902080546001600160a01b0319166001600160a01b038416908117909155819061109682610a35565b6001600160a01b03167f8c5be1e5ebec7d5bd14f71427d1e84f3dd0314c0f7b2291e5b200ac8c7c3b92560405160405180910390a45050565b6110d76137b4565b6110e3612710836145ae565b9150600460006110f28561234a565b905060078614156111e4578060011461111e5760405163fd88b53d60e01b815260040160405180910390fd5b60005b828110156111e257600086826004811061113d5761113d614604565b6020020151905061114f600185614515565b8214156111805761117d604051806040016040528060058152602001640534c4f54360dc1b815250876123a3565b87525b80156111cf576111ad60405180604001604052806005815260200164534c4f543160d81b815250876123a3565b876111b98460016143df565b600481106111c9576111c9614604565b60200201525b50806111da81614593565b915050611121565b505b600886141561128d578060031461120e5760405163fd88b53d60e01b815260040160405180910390fd5b60005b8281101561128b57600086826004811061122d5761122d614604565b60200201519050806112785761126060405180604001604052806005815260200164534c4f543160d81b815250876123a3565b87836004811061127257611272614604565b60200201525b508061128381614593565b915050611211565b505b60068614156112f15760005b828110156112ef5760008682600481106112b5576112b5614604565b6020020151905080156112dc5760008783600481106112d6576112d6614604565b60200201525b50806112e781614593565b915050611299565b505b600486141561139d5780156113195760405163fd88b53d60e01b815260040160405180910390fd5b6113888411156113545761134a60405180604001604052806005815260200164534c4f543160d81b815250856123a3565b602086015261139d565b61137b6040518060400160405280600581526020016429a627aa1960d91b815250856123a3565b85611387600185614515565b6004811061139757611397614604565b60200201525b600586141561144b5780156113c55760405163fd88b53d60e01b815260040160405180910390fd5b60005b82811015611449576123288511156113f85760008682600481106113ee576113ee614604565b6020020152611437565b61141f60405180604001604052806005815260200164534c4f543160d81b815250866123a3565b86826004811061143157611431614604565b60200201525b8061144181614593565b9150506113c8565b505b60028614156114b557612328841115611470576114698460016123e6565b94506114b5565b6101f4841015611485576114698460026123e6565b612328841080156114975750611b5884115b156114a7576114698460036123e6565b6114b28460046123e6565b94505b600386141561150a5760028111156114e05760405163fd88b53d60e01b815260040160405180910390fd5b6113888411156114fc576114f58460016123e6565b945061150a565b6115078460026123e6565b94505b5092949350505050565b6000610412611522836124f4565b6000612528565b6000610412611537836125bc565b6001612528565b600061041261154c836125ec565b6004612528565b60006104126115618361261c565b6005612528565b600061157382611044565b6115d45760405162461bcd60e51b815260206004820152602c60248201527f4552433732313a206f70657261746f7220717565727920666f72206e6f6e657860448201526b34b9ba32b73a103a37b5b2b760a11b6064820152608401610512565b60006115df83610a35565b9050806001600160a01b0316846001600160a01b0316148061161a5750836001600160a01b031661160f846104aa565b6001600160a01b0316145b8061162a575061162a8185610ebc565b949350505050565b826001600160a01b031661164582610a35565b6001600160a01b0316146116ad5760405162461bcd60e51b815260206004820152602960248201527f4552433732313a207472616e73666572206f6620746f6b656e2074686174206960448201526839903737ba1037bbb760b91b6064820152608401610512565b6001600160a01b03821661170f5760405162461bcd60e51b8152602060048201526024808201527f4552433732313a207472616e7366657220746f20746865207a65726f206164646044820152637265737360e01b6064820152608401610512565b61171a83838361264c565b611725600082611061565b6001600160a01b038316600090815260036020526040812080546001929061174e908490614515565b90915550506001600160a01b038216600090815260036020526040812080546001929061177c9084906143df565b909155505060008181526002602052604080822080546001600160a01b0319166001600160a01b0386811691821790925591518493918716917fddf252ad1be2c89b69c2b068fc378daa952ba7f163c4a11628f55a4df523b3ef91a4505050565b6118166040518060c001604052806000815260200160008152602001600081526020016000815260200160008152602001600081525090565b6040518060c0016040528061182a84611514565b815260200161183884611529565b8152602001611848846000612704565b81526020016118568461271a565b81526020016118648461153e565b815260200161187284611553565b905292915050565b61189482826040518060200160405280600081525061272f565b5050565b600b80546001600160a01b038381166001600160a01b0319831681179093556040519116919082907f8be0079c531659141344cd1fd0a4f28419497f9722a3daafe3b4186f6b6457e090600090a35050565b80516060908061190a575050604080516020810190915260008152919050565b600060036119198360026143df565b61192391906143f7565b61192e9060046144f6565b9050600061193d8260206143df565b67ffffffffffffffff8111156119555761195561461a565b6040519080825280601f01601f19166020018201604052801561197f576020820181803683370190505b509050600060405180606001604052806040815260200161548e604091399050600181016020830160005b86811015611a0b576003818a01810151603f601282901c8116860151600c83901c8216870151600684901c831688015192909316870151600891821b60ff94851601821b92841692909201901b91160160e01b8352600490920191016119aa565b506003860660018114611a255760028114611a3657611a42565b613d3d60f01b600119830152611a42565b603d60f81b6000198301525b505050918152949350505050565b611a5b848484611632565b611a6784848484612762565b610d265760405162461bcd60e51b815260040161051290614218565b6060611a8d61382f565b60405180606001604052806021815260200161546d60219139815282516020808301919091526040805160608101909152602880825290916158a890830139604082015260208301518160036020020181905250604051806060016040528060288152602001614b8060289139608082015260408381015160a08301528051606081019091526028808252615005602083013960c082015260608381015160e0830152604080519182019052602980825261502d6020830139610100820152608083015161012082015260408051606081019091526029808252614f5a602083013961014082015260a083015181600b5b6020020181905250604051806040016040528060078152602001661e17ba32bc3a1f60c91b81525081600c600d8110611bb957611bb9614604565b602090810291909101919091528151828201516040808501516060860151608087015160a088015160c089015160e08a01516101008b0151965160009a611c039a99989101613c35565b60408051808303601f1901815290829052610120840151610140850151610160860151610180870151939550610cdc94869490602001613bca565b6060611c4861382f565b604051806060016040528060228152602001614b5e602291398152611c6c8361286f565b8160016020020181905250604051806060016040528060298152602001614f31602991396040820152611c9e83612896565b6060808301919091526040805191820190526029808252615b7160208301396080820152611ccb836128bd565b60a082015260408051606081019091526029808252615056602083013960c0820152611cf6836128e4565b60e082015260408051606081019091526029808252614bd06020830139610100820152611d228361290b565b6101208201526040805160608101909152602980825261507f6020830139610140820152611d4f83612932565b81600b611b7e565b6060806000611d70611d696000612959565b855161297d565b905080611d8a611d806001612959565b866020015161297d565b604051602001611d9b929190613e6a565b604051602081830303815290604052905080611dc4611dba6002612959565b866040015161297d565b604051602001611dd5929190613e6a565b604051602081830303815290604052905080611dfe611df46003612959565b866060015161297d565b604051602001611e0f929190613e6a565b604051602081830303815290604052905080611e38611e2e6004612959565b866080015161297d565b604051602001611e49929190613e6a565b604051602081830303815290604052905080611e72611e686005612959565b8660a0015161297d565b604051602001610cdc929190613e6a565b6060806000611eb56040518060400160405280600381526020016229ba3960e91b815250611eb08661286f565b61297d565b905080611ee060405180604001604052806003815260200162088caf60eb1b815250611eb087612896565b604051602001611ef1929190613e6a565b60408051601f19818403018152828201909152600382526221b7b760e91b602083015291508190611f2590611eb0876128bd565b604051602001611f36929190613e6a565b60408051601f198184030181528282019091526003825262125b9d60ea1b602083015291508190611f6a90611eb0876128e4565b604051602001611f7b929190613e6a565b60408051601f19818403018152828201909152600382526257697360e81b602083015291508190611faf90611eb08761290b565b604051602001611fc0929190613e6a565b60408051601f19818403018152828201909152600382526243686160e81b602083015291508190611e7290611eb087612932565b6060600080612002846129a9565b91509150600061201182612959565b9050600061203b6040518060400160405280600481526020016314db1bdd60e21b8152508361297d565b60405160200161204b919061406d565b60408051601f19818403018152919052905060006120708486835b6020020151612a14565b905081612099604051806040016040528060048152602001634974656d60e01b8152508361297d565b6040516020016120aa929190613e6a565b60408051808303601f190181529190526020860151909250156121335760006120e46001878160200201516120df9190614515565b612b61565b90508261210f604051806040016040528060068152602001650a6eaccccd2f60d31b8152508361297d565b604051602001612120929190613e6a565b6040516020818303038152906040529250505b6040850151156121b057600061215c60018760025b60200201516121579190614515565b612b88565b90508261218c6040518060400160405280600b81526020016a09cc2daca40a0e4caccd2f60ab1b8152508361297d565b60405160200161219d929190613e6a565b6040516020818303038152906040529250505b60608501511561222d5760006121d960018760035b60200201516121d49190614515565b612baf565b9050826122096040518060400160405280600b81526020016a09cc2daca40a6eaccccd2f60ab1b8152508361297d565b60405160200161221a929190613e6a565b6040516020818303038152906040529250505b6080850151156122a457816122816040518060400160405280600c81526020016b20bab3b6b2b73a30ba34b7b760a11b8152506040518060400160405280600381526020016259657360e81b81525061297d565b604051602001612292929190613e6a565b60405160208183030381529060405291505b816040516020016122b59190613e45565b60408051601f19818403018152919052979650505050505050565b6122d86137f9565b6040518060c001604052806122f08460000151612bd6565b81526020016123028460200151612bd6565b81526020016123148460400151612bd6565b81526020016123268460600151612bd6565b81526020016123388460800151612bd6565b81526020016118728460a00151612bd6565b6000600481805b8281101561239b57600085826004811061236d5761236d614604565b602002015190508015612388578261238481614593565b9350505b508061239381614593565b915050612351565b509392505050565b6000620f424083836040516020016123bc929190613ef7565b6040516020818303038152906040528051906020012060001c6123df91906145ae565b9392505050565b6123ee6137b4565b6123f66137b4565b6040805180820190915260058152640534c4f54360dc1b602082015260019061241f90866123a3565b825283811061243057509050610412565b8061243a81614593565b91505061246460405180604001604052806005815260200164534c4f543160d81b815250866123a3565b602083015283811061247857509050610412565b8061248281614593565b9150506124ac6040518060400160405280600581526020016429a627aa1960d91b815250866123a3565b60408301528381106124c057509050610412565b6124e760405180604001604052806005815260200164534c4f543360d81b815250866123a3565b6060830152509392505050565b6124fc61384a565b6104128260405180604001604052806008815260200167435245415455524560c01b8152506031612bf2565b8151600090829061253a906001612cda565b61254490826143df565b905061255884600160200201516002612cda565b61256290826143df565b905061257684600260200201516003612cda565b61258090826143df565b905061259484600360200201516004612cda565b61259e90826143df565b90506125b284600460200201516005612cda565b61162a90826143df565b6125c461384a565b61041282604051806040016040528060048152602001634954454d60e01b8152506030612bf2565b6125f461384a565b61041282604051806040016040528060048152602001635045524b60e01b8152506028612bf2565b61262461384a565b61041282604051806040016040528060048152602001634e414d4560e01b81525060bb612bf2565b6001600160a01b0383166126a7576126a281600880546000838152600960205260408120829055600182018355919091527ff3f7a9fe364faab93b216da50a3214154f22a0a2b415b23a84c8169e8b636ee30155565b6126ca565b816001600160a01b0316836001600160a01b0316146126ca576126ca8382612cf5565b6001600160a01b0382166126e15761064381612d92565b826001600160a01b0316826001600160a01b031614610643576106438282612e41565b60006123df6127138484612e85565b6002612528565b600061041261272883612eee565b6003612528565b6127398383612f23565b6127466000848484612762565b6106435760405162461bcd60e51b815260040161051290614218565b60006001600160a01b0384163b1561286457604051630a85bd0160e11b81526001600160a01b0385169063150b7a02906127a69033908990889088906004016141c8565b602060405180830381600087803b1580156127c057600080fd5b505af19250505080156127f0575060408051601f3d908101601f191682019092526127ed91810190613a83565b60015b61284a573d80801561281e576040519150601f19603f3d011682016040523d82523d6000602084013e612823565b606091505b5080516128425760405162461bcd60e51b815260040161051290614218565b805181602001fd5b6001600160e01b031916630a85bd0160e11b14905061162a565b506001949350505050565b6060610412826040518060400160405280600381526020016229ba3960e91b815250613062565b60606104128260405180604001604052806003815260200162088caf60eb1b815250613062565b6060610412826040518060400160405280600381526020016221b7b760e91b815250613062565b60606104128260405180604001604052806003815260200162125b9d60ea1b815250613062565b6060610412826040518060400160405280600381526020016257697360e81b815250613062565b6060610412826040518060400160405280600381526020016243686160e81b815250613062565b6060610412604051806060016040528060288152602001614ba86028913983613179565b606082826040516020016129929291906140b2565b604051602081830303815290604052905092915050565b6129b161384a565b60006129be836000613208565b90506129cb836001613208565b82526129d8836002613208565b60208301526129e8836003613208565b60408301526129f8836004613208565b6060830152612a08836005613208565b60808301529092909150565b60608083612a3f57604051806102a00160405280610265815260200161564361026591399050612b57565b6001841415612a6b57604051806102a0016040528061026c81526020016150a861026c91399050612b57565b6002841415612a955760405180610120016040528060e28152602001614d0760e291399050612b57565b6003841415612ac15760405180610140016040528061010e8152602001614bf961010e91399050612b57565b6004841415612aed576040518061020001604052806101c581526020016158d06101c591399050612b57565b6005841415612b1957604051806105400160405280610517815260200161464761051791399050612b57565b60405162461bcd60e51b8152602060048201526013602482015272556e65787065637465642070726f706572747960681b6044820152606401610512565b61162a8184613179565b60606104126040518061018001604052806101488152602001614de9610148913983613179565b6060610412604051806101a0016040528061017581526020016154ce610175913983613179565b60606104126040518061018001604052806101598152602001615314610159913983613179565b6060600080612be4846129a9565b9150915061162a8282613223565b612bfa61384a565b612c0261384a565b8385604051602001612c15929190613ef7565b60408051601f1981840301815291905280516020909101209450612c3983866145ae565b815260006020820181905260408201819052612c566015876145ae565b9050600e811115612c7d57612c6c6018876145ae565b612c779060016143df565b60208301525b60138110612cd157612c90602e876145ae565b612c9b9060016143df565b6040830152612cab602b876145ae565b612cb69060016143df565b60608301526013811415612cc957612cd1565b600160808301525b50949350505050565b6000612ce78260106144f6565b8360ff16901b905092915050565b60006001612d0284610aac565b612d0c9190614515565b600083815260076020526040902054909150808214612d5f576001600160a01b03841660009081526006602090815260408083208584528252808320548484528184208190558352600790915290208190555b5060009182526007602090815260408084208490556001600160a01b039094168352600681528383209183525290812055565b600854600090612da490600190614515565b60008381526009602052604081205460088054939450909284908110612dcc57612dcc614604565b906000526020600020015490508060088381548110612ded57612ded614604565b6000918252602080832090910192909255828152600990915260408082208490558582528120556008805480612e2557612e256145ee565b6001900381819060005260206000200160009055905550505050565b6000612e4c83610aac565b6001600160a01b039093166000908152600660209081526040808320868452825280832085905593825260079052919091209190915550565b612e8d61384a565b8115612ec457612ebd836040518060400160405280600681526020016527a924a3a4a760d11b8152506005612bf2565b9050610412565b6123df836040518060400160405280600681526020016527a924a3a4a760d11b8152506010612bf2565b612ef661384a565b6104128260405180604001604052806009815260200168424c4f4f444c494e4560b81b8152506021612bf2565b6001600160a01b038216612f795760405162461bcd60e51b815260206004820181905260248201527f4552433732313a206d696e7420746f20746865207a65726f20616464726573736044820152606401610512565b612f8281611044565b15612fcf5760405162461bcd60e51b815260206004820152601c60248201527f4552433732313a20746f6b656e20616c7265616479206d696e746564000000006044820152606401610512565b612fdb6000838361264c565b6001600160a01b03821660009081526003602052604081208054600192906130049084906143df565b909155505060008181526002602052604080822080546001600160a01b0319166001600160a01b03861690811790915590518392907fddf252ad1be2c89b69c2b068fc378daa952ba7f163c4a11628f55a4df523b3ef908290a45050565b60606000613098836130738661338a565b604051602001613084929190613da6565b604051602081830303815290604052613488565b90508060006130bb856130aa8861338a565b604051602001613084929190613d6b565b90508082116130ca57816130cc565b805b915060006130ee866130dd8961338a565b604051602001613084929190613d30565b90508083116130fd57826130ff565b805b92506000613121876131108a61338a565b604051602001613084929190613cf5565b90508084116131305783613132565b805b93506000848284613143878a6143df565b61314d91906143df565b61315791906143df565b6131619190614515565b905061316c8161338a565b9998505050505050505050565b60606000613186846134cb565b6040805180820190915260018152600b60fa1b602082015290915060006131ac826134cb565b90506131cb604051806040016040528060008152602001600081525090565b60005b8681116131f3576131df85846134f8565b9150806131eb81614593565b9150506131ce565b506131fd8161351e565b979650505050505050565b60006132158260106144f6565b83901c60ff16905092915050565b60606000613232838583612066565b60208501519091501561329857806132756040518061018001604052806101488152602001614de96101489139602087015161327090600190614515565b613179565b604051602001613286929190613e09565b60405160208183030381529060405290505b6040840151156133575760006132b16001866002612148565b6040516020016132c19190614096565b60408051808303601f1901815291905260608601519091501561330f57806132ec60018760036121c5565b6040516020016132fd929190613e09565b60405160208183030381529060405290505b806040516020016133209190613ea7565b60405160208183030381529060405290508082604051602001613344929190613b9b565b6040516020818303038152906040529150505b6080840151156123df57806040516020016133729190613de1565b60405160208183030381529060405290509392505050565b6060816133ae5750506040805180820190915260018152600360fc1b602082015290565b8160005b81156133d857806133c281614593565b91506133d19050600a836143f7565b91506133b2565b60008167ffffffffffffffff8111156133f3576133f361461a565b6040519080825280601f01601f19166020018201604052801561341d576020820181803683370190505b5090505b841561162a57613432600183614515565b915061343f600a866145ae565b61344a9060306143df565b60f81b81838151811061345f5761345f614604565b60200101906001600160f81b031916908160001a905350613481600a866143f7565b9450613421565b600060068260405160200161349d9190613b7f565b6040516020818303038152906040528051906020012060001c6134c091906145ae565b6104129060016143df565b60408051808201825260008082526020918201528151808301909252825182529182019181019190915290565b6040805180820190915260008082526020820152613517838383613587565b5092915050565b60606000826000015167ffffffffffffffff81111561353f5761353f61461a565b6040519080825280601f01601f191660200182016040528015613569576020820181803683370190505b50905060006020820190506135178185602001518660000151613633565b604080518082019091526000808252602082015260006135b985600001518660200151866000015187602001516136a4565b6020808701805191860191909152519091506135d59082614515565b8352845160208601516135e891906143df565b8114156135f8576000855261362a565b8351835161360691906143df565b85518690613615908390614515565b905250835161362490826143df565b60208601525b50909392505050565b6020811061366b578151835261364a6020846143df565b92506136576020836143df565b9150613664602082614515565b9050613633565b6000600161367a836020614515565b6136869061010061444e565b6136909190614515565b925184518416931916929092179092525050565b600083818685116137aa576020851161375857600060016136c6876020614515565b6136d19060086144f6565b6136dc90600261444e565b6136e69190614515565b85519019915081166000876136fb8b8b6143df565b6137059190614515565b855190915083165b82811461374a57818610613732576137258b8b6143df565b965050505050505061162a565b8561373c81614593565b96505083865116905061370d565b85965050505050505061162a565b508383206000905b61376a8689614515565b82116137a85785832081811415613787578394505050505061162a565b6137926001856143df565b93505081806137a090614593565b925050613760565b505b6131fd87876143df565b60405180608001604052806004906020820280368337509192915050565b60405180608001604052806004905b60608152602001906001900390816137e15790505090565b6040518060c001604052806060815260200160608152602001606081526020016060815260200160608152602001606081525090565b604080516101a0810190915260608152600c602082016137e1565b6040518060a001604052806005906020820280368337509192915050565b600067ffffffffffffffff808411156138835761388361461a565b604051601f8501601f19908116603f011681019082821181831017156138ab576138ab61461a565b816040528093508581528686860111156138c457600080fd5b858560208301376000602087830101525050509392505050565b80356001600160a01b03811681146138f557600080fd5b919050565b60006020828403121561390c57600080fd5b6123df826138de565b6000806040838503121561392857600080fd5b613931836138de565b915061393f602084016138de565b90509250929050565b60008060006060848603121561395d57600080fd5b613966846138de565b9250613974602085016138de565b9150604084013590509250925092565b6000806000806080858703121561399a57600080fd5b6139a3856138de565b93506139b1602086016138de565b925060408501359150606085013567ffffffffffffffff8111156139d457600080fd5b8501601f810187136139e557600080fd5b6139f487823560208401613868565b91505092959194509250565b60008060408385031215613a1357600080fd5b613a1c836138de565b915060208301358015158114613a3157600080fd5b809150509250929050565b60008060408385031215613a4f57600080fd5b613a58836138de565b946020939093013593505050565b600060208284031215613a7857600080fd5b81356123df81614630565b600060208284031215613a9557600080fd5b81516123df81614630565b600060208284031215613ab257600080fd5b813567ffffffffffffffff811115613ac957600080fd5b8201601f81018413613ada57600080fd5b61162a84823560208401613868565b600060208284031215613afb57600080fd5b5035919050565b600080600060608486031215613b1757600080fd5b83359250613974602085016138de565b600080600060608486031215613b3c57600080fd5b505081359360208301359350604090920135919050565b60008151808452613b6b81602086016020860161452c565b601f01601f19169290920160200192915050565b60008251613b9181846020870161452c565b9190910192915050565b60008351613bad81846020880161452c565b835190830190613bc181836020880161452c565b01949350505050565b60008651613bdc818460208b0161452c565b865190830190613bf0818360208b0161452c565b8651910190613c03818360208a0161452c565b8551910190613c1681836020890161452c565b8451910190613c2981836020880161452c565b01979650505050505050565b60008a51613c47818460208f0161452c565b8a51613c598183860160208f0161452c565b8a519184010190613c6e818360208e0161452c565b8951613c808183850160208e0161452c565b8951929091010190613c96818360208c0161452c565b8751910190613ca9818360208b0161452c565b8651613cbb8183850160208b0161452c565b8651929091010190613cd181836020890161452c565b8451613ce3818385016020890161452c565b9101019b9a5050505050505050505050565b60008351613d0781846020880161452c565b835190830190613d1b81836020880161452c565b600d60fa1b9101908152600101949350505050565b60008351613d4281846020880161452c565b835190830190613d5681836020880161452c565b603360f81b9101908152600101949350505050565b60008351613d7d81846020880161452c565b835190830190613d9181836020880161452c565b601960f91b9101908152600101949350505050565b60008351613db881846020880161452c565b835190830190613dcc81836020880161452c565b603160f81b9101908152600101949350505050565b60008251613df381846020870161452c565b63202b534560e01b920191825250600401919050565b60008351613e1b81846020880161452c565b600160fd1b9083019081528351613e3981600184016020880161452c565b01600101949350505050565b60008251613e5781846020870161452c565b605d60f81b920191825250600101919050565b60008351613e7c81846020880161452c565b61016160f51b9083019081528351613e9b81600284016020880161452c565b01600201949350505050565b60008251613eb981846020870161452c565b61013960f51b920191825250600201919050565b60008251613edf81846020870161452c565b651e17b9bb339f60d11b920191825250600601919050565b60008351613f0981846020880161452c565b9190910191825250602001919050565b6a3d90113730b6b2911d101160a91b81526a536861646f776c696e677360a81b600b8201526201116160ed1b60168201526f0113232b9b1b934b83a34b7b711101d160851b60198201527f22536861646f776c696e677320666f6c6c6f7720796f7520696e20796f75722060298201527f6a6f75726e6579206163726f737320636861696e73706163652c20746865207360498201527f6861646f77636861696e2c20616e64206265796f6e642e2e2e222c200000000060698201528251600090613feb81608585016020880161452c565b83519083019061400281608584016020880161452c565b01608501949350505050565b7f22696d616765223a2022646174613a696d6167652f7376672b786d6c3b626173815263194d8d0b60e21b60208201526000825161405381602485016020870161452c565b6201116160ed1b6024939091019283015250602701919050565b605b60f81b81526000825161408981600185016020870161452c565b9190910160010192915050565b602760f81b81526000825161408981600185016020870161452c565b607b60f81b81526e113a3930b4ba2fba3cb832911d101160891b600182015282516000906140e781601085016020880161452c565b6201116160ed1b60109184019182015269113b30b63ab2911d101160b11b6013820152835161411d81601d84016020880161452c565b601160f91b601d9290910191820152607d60f81b601e820152601f01949350505050565b7f646174613a6170706c69636174696f6e2f6a736f6e3b6261736536342c00000081526000825161417981601d85016020870161452c565b91909101601d0192915050565b6d01130ba3a3934b13aba32b9911d160951b815281516000906141b081600e85016020870161452c565b607d60f81b600e939091019283015250600f01919050565b6001600160a01b03858116825284166020820152604081018390526080606082018190526000906141fb90830184613b53565b9695505050505050565b6020815260006123df6020830184613b53565b60208082526032908201527f4552433732313a207472616e7366657220746f206e6f6e20455243373231526560408201527131b2b4bb32b91034b6b83632b6b2b73a32b960711b606082015260800190565b6020808252818101527f4f776e61626c653a2063616c6c6572206973206e6f7420746865206f776e6572604082015260600190565b60208082526031908201527f4552433732313a207472616e736665722063616c6c6572206973206e6f74206f6040820152701ddb995c881b9bdc88185c1c1c9bdd9959607a1b606082015260800190565b6020808252601f908201527f5265656e7472616e637947756172643a207265656e7472616e742063616c6c00604082015260600190565b602081526000825160c0602084015261434360e0840182613b53565b90506020840151601f19808584030160408601526143618383613b53565b9250604086015191508085840301606086015261437e8383613b53565b9250606086015191508085840301608086015261439b8383613b53565b925060808601519150808584030160a08601526143b88383613b53565b925060a08601519150808584030160c0860152506143d68282613b53565b95945050505050565b600082198211156143f2576143f26145c2565b500190565b600082614406576144066145d8565b500490565b600181815b8085111561444657816000190482111561442c5761442c6145c2565b8085161561443957918102915b93841c9390800290614410565b509250929050565b60006123df838360008261446457506001610412565b8161447157506000610412565b81600181146144875760028114614491576144ad565b6001915050610412565b60ff8411156144a2576144a26145c2565b50506001821b610412565b5060208310610133831016604e8410600b84101617156144d0575081810a610412565b6144da838361440b565b80600019048211156144ee576144ee6145c2565b029392505050565b6000816000190483118215151615614510576145106145c2565b500290565b600082821015614527576145276145c2565b500390565b60005b8381101561454757818101518382015260200161452f565b83811115610d265750506000910152565b600181811c9082168061456c57607f821691505b6020821081141561458d57634e487b7160e01b600052602260045260246000fd5b50919050565b60006000198214156145a7576145a76145c2565b5060010190565b6000826145bd576145bd6145d8565b500690565b634e487b7160e01b600052601160045260246000fd5b634e487b7160e01b600052601260045260246000fd5b634e487b7160e01b600052603160045260246000fd5b634e487b7160e01b600052603260045260246000fd5b634e487b7160e01b600052604160045260246000fd5b6001600160e01b031981168114610f8757600080fdfe5361746f7368692c566974616c696b2c566c61642c4164616d2c41696c6d61722c44617266696e2c4a6861616e2c5a61626261732c4e656c646f722c47616e646f722c42656c6c61732c446165616c6c612c4e796d2c56657372796e2c416e676f722c476f67752c4d616c6f6b2c526f746e616d2c4368616c69612c41737472612c46616269656e2c4f72696f6e2c5175696e7475732c52656d75732c526f72696b2c5369726975732c537962656c6c612c417a7572612c446f726174682c46726579612c4f7068656c69612c5976616e6e612c5a656e6979612c4a616d65732c526f626572742c4a6f686e2c4d69636861656c2c57696c6c69616d2c44617669642c526963686172642c4a6f736570682c54686f6d61732c436861726c65732c4d6172792c50617472696369612c4a656e6e696665722c4c696e64612c456c697a61626574682c4b77697361747a2c426172626172612c537573616e2c4a6573736963612c53617261682c4b6172656e2c44696c6962652c4576612c4d6174746865772c426f6c657468652c506f6c79636172702c416d62726f67696e6f2c4a6972692c4368756b77756562756b612c4368696e6f6e79656c756d2c4d696b61656c2c4d6972612c416e69656c612c53616d75656c2c4973616b2c417263686962616c646f2c4368696e79656c752c4b65727374696e2c4162696761696c2c4f6c796d7069612c47726163652c4e6168756d2c456c697361626574682c53657267652c537567616b6f2c5061747269636b2c466c6f7275732c537661746176612c496c6f6e612c4c6163686c616e2c4361737069616e2c46696c697070612c5061756c6f2c44617264612c4c696e64612c477261646173736f2c4361726c792c4a656e732c42657474792c45626f6e792c44656e6e69732c4d617274696e204461766f72696e2c4c617572612c4a65737065722c52656d792c4f6e79656b616368756b77752c4a616e2c44696f73636f726f2c48696c6172696a2c526f73766974612c4e6f61682c5061747269636b2c4d6f68616d6d65642c4368696e77656d6d612c526166662c41726f6e2c4d696775656c2c447a656d61696c2c476177656c2c477573746176652c45667261696d2c4164656c626572742c4a6f64792c4d61636b656e7a69652c566963746f7269612c53656c616d2c4a656e63692c556c726963682c43686973686f752c446f6d6f6e6b6f732c5374616e69736c6175732c466f7274696e627261732c47656f7267652c44616e69656c2c416e6e6162656c6c652c5368756e696368692c426f6764616e2c416e617374617a6a612c4d61726375732c4d6f6e6963612c4d617274696e2c5975756b6f752c486172726965742c47656f66667265792c4a6f6e61732c44656e6e69732c48616e612c416264656c68616b2c526176696c2c5061747269636b2c4b61726c2c4576652c4373696c6c612c49736162656c6c612c526164696d2c54686f6d61732c4661696e612c5261736d75732c416c6d612c436861726c65732c436861642c5a656672616d2c48617964656e2c4a6f736570682c416e6472652c4972656e652c4d6f6c6c792c43696e64792c53752c5374616e692c45642c4a616e65742c43617468792c4b796c652c5a616b692c42656c6c652c42656c6c612c4a6573736963612c416d6f752c53746576656e2c4f6c67752c4576612c4976616e2c566c6c61642c48656c67612c416e79612c4a6f686e2c526974612c4576616e2c4a61736f6e2c446f6e616c642c54796c65722c4368616e6770656e672c53616d3c7465787420783d2231302220793d223134302220636c6173733d2262617365223e3c2f746578743e3c7465787420783d2231302220793d2236302220636c6173733d2262617365223e43726561747572652c4974656d2c4f726967696e2c426c6f6f646c696e652c5065726b2c4e616d653c2f746578743e3c7465787420783d2231302220793d223232302220636c6173733d2262617365223e4f2c576f6b722c566d65772c4b616c692d5a75692c5a6170687468726f742c4c7562616e2c59752d4b6f74682c53747572726f73682c49612d4e6761692c4b68616b682c47796174686e612c4875616361732c5a68617220616e64204c6c6f69676f722c586c2d72686f2c536875646465204d656c6c2c43726574686167752c556e736361204e6f726e612c5068766974687672652c596f7261652c5964686575742c50612763682c576161727a612c4368686e6768752c5368692d59766761612c58696d617979612058616e2c6c27546f746f786c2c57616b616e2c5974686f677468612c55622d6a692c53687561696368612c537468756d612c53656e6e65276c6c2c58796e676f67746861536861646f776b61696e277320446f6d61696e2c4b756c6563686f767320446f6d696e696f6e202c506572696c6f7573204661726d732c4461726b20466f726573742c4d656d706f6f6c2c536861646f77636861696e2c506f6c79676f6e616c204d65736873706163652c4c616e6473206f6620417262697472756d2c436861696e73706163652c436861696e73206f66204e617a61726f762c426c7565204c61676f6f6e2c5377616d702c47656e6573697320437562652c4c616e6473206f66204f7074696d69736d2c457468657220436861696e2c4f75746572626c6f636b736f6620426f72726f77656420536f756c732c6f662053796e746865746963732c6f66205969656c642c6f66205175612744726967612c6f66204c69717569646174696f6e20506f6f6c732c6f662041737465726f6964732c6f662041746f6d732c6f6620426574656c67657573652c6f662043656c65737469616c2c6f662074686520436f736d6963732c6f662043796265726e65746963732c6f66204461726b204e6562756c61732c6f6620446f70706c6572732c6f6620456c656374726f6d61676e657469736d2c6f662074686520456c656d656e74732c6f66204d6574612c6f662074686520487970657273636170652c6f66204d6172732c6f6620506172616c6c61782c6f66205a656e6974682c6f66204a756467656d656e742c6f6620546563686e6f6c6f67792c6f6620487970657273706163652c6f6620437962657273706163653c2f746578743e3c7465787420783d2231302220793d223136302220636c6173733d2262617365223e3c2f746578743e3c7465787420783d2231302220793d223132302220636c6173733d2262617365223e7b226e616d65223a2022536861646f776c696e6773222c20226465736372697074696f6e223a2022536861646f776c696e677320666f6c6c6f7720796f7520696e20796f7572206a6f75726e6579206163726f737320636861696e73706163652c2074686520736861646f77636861696e2c20616e64206265796f6e642e2e2e227d3c2f746578743e3c7465787420783d2231302220793d2238302220636c6173733d2262617365223e3c2f746578743e3c7465787420783d2231302220793d223130302220636c6173733d2262617365223e3c2f746578743e3c7465787420783d2231302220793d223230302220636c6173733d2262617365223e3c2f746578743e3c7465787420783d2231302220793d223234302220636c6173733d2262617365223e43796265726e657469632041726d2c43796265726e65746963204579652c43796265726e65746963204c65672c43796265726e657469632043686573742c43796265726e6574696320466f6f742c506c61736d61205269666c652c426c75652050696c6c2c5265642050696c6c2c4120426c6f636b2c436c6f616b696e67204465766963652c5472616e73706f727465722c427269646765204b65792c4469676974616c204c616e642c4d65746177616c6c65742c4f7262206f662050726f74656374696f6e2c436f696e2c4465636b206f662043617264732c4761732c476f64626c6f6f642c4d656d66727569742c43616c6c646174612c4576656e7420446174612c5472616e73616374696f6e20446174612c4d657461646174612c526f79616c746965732c4b696c6c7377697463682c50726976617465204b65792c43796265726b6e6966652c5669616c206f6620436f7272757074696f6e2c5669616c206f6620526567656e65726174696f6e2c4d65746120506c616e65742c4d65746120476f6c6620436f757273652c4d65746120546f7765722c4d65746120536b797363617065722c4d657461205261636520547261636b2c4b657920746f2074686520436974792c4578747261204c6966652c506f636b65742056656869636c652c4d6574612041706172746d656e742c4d65746120486f7573652c4d65746120436f6d70616e792c446976696e6520426f6479737569742c5068617365204b6174616e612c4f7262206f662053756d6d6f6e696e672c426f74746f6d6c657373204261672c486f766572626f6172642c4d65726b6c6520526f6f742c416e6369656e7420546174746f6f4e6f636f696e65722c4d6178696d75732c446567656e2c416c6c2d496e2c4170657362616e652c426561727362616e652c4d696e696d6178692c42726964676563726f737365722c4272696467656275726e65722c476f6c646d616e2c4265616d2c436f6d6c696e6b2c437962657270756e6b2c44696d656e73696f6e616c2c446973727570746f722c447973746f7069616e2c4e6f6d616469632c5363616e2c47616c61637469632c477261766974792c48756d616e6f69642c487970657273706565642c496e746572706c616e65746172792c4c617365722c4c756e61722c4d61747465722c4d657263757269616c2c4d6f72706869632c4d7574616e742c4e6f76612c4f72626974616c2c506172616c6c656c2c5261792c526f626f742c53617069656e742c536f6c2c5069726174652c54656d706f72616c2c54657272612c576172702c5572616e69756d2c576f726d2c58656e6f3c7465787420783d2231302220793d2232302220636c6173733d2262617365223e4142434445464748494a4b4c4d4e4f505152535455565758595a6162636465666768696a6b6c6d6e6f707172737475767778797a303132333435363738392b2f42616c7468617a61722c4c6172702c5275676765642c446f787865642c53696d702c4d656d652c4d6f6f6e2c4f7261636c652c417374726f676174652c416e64726f69642c426c61737465722c436c6f616b696e672c436f6e74696e75756d2c4379626f72672c4465617468205261792c446973696e7465677261746f722c4561727468626f726e2c4469676974616c2c466f7263652c47656e657469632c486f6c6f677261706869632c487970657264726976652c496f6e69632c4a756d702c4c696768742053706565642c4d61727469616e2c4d6563682c4d61747269782c4d756c746976657273616c2c4e6562756c612c4e756c6c2c4f75746572776f726c642c50686173652c5265706c6963616e742c4d616368696e652c536869656c642c53706163652c53746172626173652c50617261646f782c54696d652c556c74726176696f6c65742c467573696f6e2c5a65726f2c5175616e74756d2c4172746966696369616c2c496e74656c6c6967656e744e6f6e652c54776973746564204d656d7772616974682c48617368656e686f72726f722c536861646f772057656e2c42656172204170652c4d6f6f6e20576f6c662c53697a65204c6f7264652c446567656e647261676f6e2c474d20446f67652c4c697465204c6c616d612c596561726e696e67204e796d70682c4372766163656f757320536e616b652c486f6c6f76797065722c5761696c696e6720496e74656765722c4372616176656e2044656661756c7465722c42797a616e74696e65205072696e63657373732c4d616e626561727069672c4c617270696e6720546572726f722c542d52656b742c446566692d616e742c526f707374656e205768616c652c4c6c616d612c456e6368616e746564205275672c426c696e64204f7261636c652c47776569204163636f756e74616e742c4c617a6172757320436f7474656e2c4d656d706f6f6c205772616974682c5065726e6963696f75732050656e6775696e2c53656564205374616c6b65722c536e61726b2c536861646f77737761707065722c526176616765203078786c2c4d61726b6574205261742c44726561642044697020446f672c4178616c6c617878612c467261676d656e74656420436f6269656c6f646f6e2c4a6f6d6f656f6e2c556d6272616d7973746963732c506570626f692c4379706865722047686f756c732c43656e736f722056696e65732c546f726d656e74656420476f72676f6e2c5375736869204b72616b656e2c416c7068612d656174696e67204f6f7a652c4b697262792c52696e6b656279205261696465722c536d6f6c2062616e7465672c426c6f636b776f726d2c4d657461776f726d3c2f746578743e3c7465787420783d2231302220793d2234302220636c6173733d2262617365223e3327332c53686974706f7374696e672c4469616d6f6e642042756c6c20486f726e732c4d61737465726e6f64652c46726f6e742052756e6e696e672c4d455620436f6c6c6563746f722c4e465420466c69707065722c417274626c6f636b7320436f6e6e6f697373657572202c4469616d6f6e642048616e64732c46726565205472616e73616374696f6e732c4d616465204974202c466c6173682042756e646c65722c507269766174652052656c6179732c436f6d706f756e64696e672c47616c61787920427261696e2c4c6f772049512c486967682049512c5275676765642c446f787865642c4c6971756964617465642c57616966752053696d702c4578706c6f697465642c50617065722048616e64732c466c617368204c6f616e65642c5554584f2c5468656f726973742c4e474d492c4d69642049512c436f7079205472616465722c4c61727065722c466c6f6f722073656c6c65722c476f787865642c4f797374657220466f726b65642c436861642042726f2c45786974204c69717569646974792c4861636b65642c4661696c6564205472616e73616374696f6e2c426c61636b204861742c5768697465204861742c5a65726f204b6e6f776c656467653c73766720786d6c6e733d22687474703a2f2f7777772e77332e6f72672f323030302f73766722207072657365727665417370656374526174696f3d22784d696e594d696e206d656574222076696577426f783d223020302033353020333530223e3c7374796c653e2e62617365207b2066696c6c3a2077686974653b20666f6e742d66616d696c793a2073657269663b20666f6e742d73697a653a20313470783b207d3c2f7374796c653e3c726563742077696474683d223130302522206865696768743d2231303025222066696c6c3d22626c61636b22202f3e3c2f746578743e3c7465787420783d2231302220793d223138302220636c6173733d2262617365223ea264697066735822122042617be4557be651e2e38d9532eba5137acbee405801f1c663b555bef8f26a7064736f6c63430008060033",
  "devdoc": {
    "kind": "dev",
    "methods": {
      "approve(address,uint256)": {
        "details": "See {IERC721-approve}."
      },
      "attributes(uint256)": {
        "details": "Opensea Standards: https://docs.opensea.io/docs/metadata-standards"
      },
      "attributesItem(uint256)": {
        "details": "Opensea Standards: https://docs.opensea.io/docs/metadata-standards",
        "params": {
          "itemId": "A value in propertiesOf[tokenId]"
        },
        "returns": {
          "_0": "Attributes properties of a single item"
        }
      },
      "balanceOf(address)": {
        "details": "See {IERC721-balanceOf}."
      },
      "claim(uint256,address,uint256)": {
        "params": {
          "recipient": "Address which is minted a Shadowling",
          "seed": "Psuedorandom number hopefully generated from commit-reveal scheme",
          "tokenId": "Token with `id` to mint. Maps id to individual item ids in ItemIds"
        }
      },
      "contractURI()": {
        "details": "Opensea contract metadata: https://docs.opensea.io/docs/contract-level-metadata"
      },
      "getApproved(uint256)": {
        "details": "See {IERC721-getApproved}."
      },
      "isApprovedForAll(address,address)": {
        "details": "See {IERC721-isApprovedForAll}."
      },
      "modify(uint256,uint256,uint256)": {
        "params": {
          "currencyId": "Type of currency to use",
          "seed": "Pseudorandom value hopefully generated from a commit-reveal scheme",
          "tokenId": "Shadowling tokenId to modify"
        }
      },
      "name()": {
        "details": "See {IERC721Metadata-name}."
      },
      "owner()": {
        "details": "Returns the address of the current owner."
      },
      "ownerOf(uint256)": {
        "details": "See {IERC721-ownerOf}."
      },
      "properties(uint256)": {
        "returns": {
          "_0": "Each item as a string from a Shadowling with `tokenId`"
        }
      },
      "renounceOwnership()": {
        "details": "Leaves the contract without owner. It will not be possible to call `onlyOwner` functions anymore. Can only be called by the current owner. NOTE: Renouncing ownership will leave the contract without an owner, thereby removing any functionality that is only available to the owner."
      },
      "safeTransferFrom(address,address,uint256)": {
        "details": "See {IERC721-safeTransferFrom}."
      },
      "safeTransferFrom(address,address,uint256,bytes)": {
        "details": "See {IERC721-safeTransferFrom}."
      },
      "setApprovalForAll(address,bool)": {
        "details": "See {IERC721-setApprovalForAll}."
      },
      "supportsInterface(bytes4)": {
        "details": "See {IERC165-supportsInterface}."
      },
      "symbol()": {
        "details": "See {IERC721Metadata-symbol}."
      },
      "tokenByIndex(uint256)": {
        "details": "See {IERC721Enumerable-tokenByIndex}."
      },
      "tokenOfOwnerByIndex(address,uint256)": {
        "details": "See {IERC721Enumerable-tokenOfOwnerByIndex}."
      },
      "totalSupply()": {
        "details": "See {IERC721Enumerable-totalSupply}."
      },
      "transferFrom(address,address,uint256)": {
        "details": "See {IERC721-transferFrom}."
      },
      "transferOwnership(address)": {
        "details": "Transfers ownership of the contract to a new account (`newOwner`). Can only be called by the current owner."
      }
    },
    "version": 1
  },
  "userdoc": {
    "kind": "user",
    "methods": {
      "attributes(uint256)": {
        "notice": "Returns the attributes properties of a `tokenId`"
      },
      "claim(uint256,address,uint256)": {
        "notice": "Mints Shadowlings to `msg.sender`, cannot mint 0 tokenId"
      },
      "modify(uint256,uint256,uint256)": {
        "notice": "Modifies the attributes of Shadowling with `tokenId` using the type of currency"
      },
      "tokenURI(uint256)": {
        "notice": "Returns an SVG for the provided token id"
      }
    },
    "version": 1
  },
  "storageLayout": {
    "storage": [
      {
        "astId": 3542,
        "contract": "contracts/Shadowlings.sol:Shadowlings",
        "label": "_name",
        "offset": 0,
        "slot": "0",
        "type": "t_string_storage"
      },
      {
        "astId": 3544,
        "contract": "contracts/Shadowlings.sol:Shadowlings",
        "label": "_symbol",
        "offset": 0,
        "slot": "1",
        "type": "t_string_storage"
      },
      {
        "astId": 3548,
        "contract": "contracts/Shadowlings.sol:Shadowlings",
        "label": "_owners",
        "offset": 0,
        "slot": "2",
        "type": "t_mapping(t_uint256,t_address)"
      },
      {
        "astId": 3552,
        "contract": "contracts/Shadowlings.sol:Shadowlings",
        "label": "_balances",
        "offset": 0,
        "slot": "3",
        "type": "t_mapping(t_address,t_uint256)"
      },
      {
        "astId": 3556,
        "contract": "contracts/Shadowlings.sol:Shadowlings",
        "label": "_tokenApprovals",
        "offset": 0,
        "slot": "4",
        "type": "t_mapping(t_uint256,t_address)"
      },
      {
        "astId": 3562,
        "contract": "contracts/Shadowlings.sol:Shadowlings",
        "label": "_operatorApprovals",
        "offset": 0,
        "slot": "5",
        "type": "t_mapping(t_address,t_mapping(t_address,t_bool))"
      },
      {
        "astId": 4481,
        "contract": "contracts/Shadowlings.sol:Shadowlings",
        "label": "_ownedTokens",
        "offset": 0,
        "slot": "6",
        "type": "t_mapping(t_address,t_mapping(t_uint256,t_uint256))"
      },
      {
        "astId": 4485,
        "contract": "contracts/Shadowlings.sol:Shadowlings",
        "label": "_ownedTokensIndex",
        "offset": 0,
        "slot": "7",
        "type": "t_mapping(t_uint256,t_uint256)"
      },
      {
        "astId": 4488,
        "contract": "contracts/Shadowlings.sol:Shadowlings",
        "label": "_allTokens",
        "offset": 0,
        "slot": "8",
        "type": "t_array(t_uint256)dyn_storage"
      },
      {
        "astId": 4492,
        "contract": "contracts/Shadowlings.sol:Shadowlings",
        "label": "_allTokensIndex",
        "offset": 0,
        "slot": "9",
        "type": "t_mapping(t_uint256,t_uint256)"
      },
      {
        "astId": 10483,
        "contract": "contracts/Shadowlings.sol:Shadowlings",
        "label": "propertiesOf",
        "offset": 0,
        "slot": "10",
        "type": "t_mapping(t_uint256,t_struct(ItemIds)9093_storage)"
      },
      {
        "astId": 7,
        "contract": "contracts/Shadowlings.sol:Shadowlings",
        "label": "_owner",
        "offset": 0,
        "slot": "11",
        "type": "t_address"
      },
      {
        "astId": 114,
        "contract": "contracts/Shadowlings.sol:Shadowlings",
        "label": "_status",
        "offset": 0,
        "slot": "12",
        "type": "t_uint256"
      }
    ],
    "types": {
      "t_address": {
        "encoding": "inplace",
        "label": "address",
        "numberOfBytes": "20"
      },
      "t_array(t_uint256)dyn_storage": {
        "base": "t_uint256",
        "encoding": "dynamic_array",
        "label": "uint256[]",
        "numberOfBytes": "32"
      },
      "t_bool": {
        "encoding": "inplace",
        "label": "bool",
        "numberOfBytes": "1"
      },
      "t_mapping(t_address,t_bool)": {
        "encoding": "mapping",
        "key": "t_address",
        "label": "mapping(address => bool)",
        "numberOfBytes": "32",
        "value": "t_bool"
      },
      "t_mapping(t_address,t_mapping(t_address,t_bool))": {
        "encoding": "mapping",
        "key": "t_address",
        "label": "mapping(address => mapping(address => bool))",
        "numberOfBytes": "32",
        "value": "t_mapping(t_address,t_bool)"
      },
      "t_mapping(t_address,t_mapping(t_uint256,t_uint256))": {
        "encoding": "mapping",
        "key": "t_address",
        "label": "mapping(address => mapping(uint256 => uint256))",
        "numberOfBytes": "32",
        "value": "t_mapping(t_uint256,t_uint256)"
      },
      "t_mapping(t_address,t_uint256)": {
        "encoding": "mapping",
        "key": "t_address",
        "label": "mapping(address => uint256)",
        "numberOfBytes": "32",
        "value": "t_uint256"
      },
      "t_mapping(t_uint256,t_address)": {
        "encoding": "mapping",
        "key": "t_uint256",
        "label": "mapping(uint256 => address)",
        "numberOfBytes": "32",
        "value": "t_address"
      },
      "t_mapping(t_uint256,t_struct(ItemIds)9093_storage)": {
        "encoding": "mapping",
        "key": "t_uint256",
        "label": "mapping(uint256 => struct Attributes.ItemIds)",
        "numberOfBytes": "32",
        "value": "t_struct(ItemIds)9093_storage"
      },
      "t_mapping(t_uint256,t_uint256)": {
        "encoding": "mapping",
        "key": "t_uint256",
        "label": "mapping(uint256 => uint256)",
        "numberOfBytes": "32",
        "value": "t_uint256"
      },
      "t_string_storage": {
        "encoding": "bytes",
        "label": "string",
        "numberOfBytes": "32"
      },
      "t_struct(ItemIds)9093_storage": {
        "encoding": "inplace",
        "label": "struct Attributes.ItemIds",
        "members": [
          {
            "astId": 9082,
            "contract": "contracts/Shadowlings.sol:Shadowlings",
            "label": "creature",
            "offset": 0,
            "slot": "0",
            "type": "t_uint256"
          },
          {
            "astId": 9084,
            "contract": "contracts/Shadowlings.sol:Shadowlings",
            "label": "item",
            "offset": 0,
            "slot": "1",
            "type": "t_uint256"
          },
          {
            "astId": 9086,
            "contract": "contracts/Shadowlings.sol:Shadowlings",
            "label": "origin",
            "offset": 0,
            "slot": "2",
            "type": "t_uint256"
          },
          {
            "astId": 9088,
            "contract": "contracts/Shadowlings.sol:Shadowlings",
            "label": "bloodline",
            "offset": 0,
            "slot": "3",
            "type": "t_uint256"
          },
          {
            "astId": 9090,
            "contract": "contracts/Shadowlings.sol:Shadowlings",
            "label": "perk",
            "offset": 0,
            "slot": "4",
            "type": "t_uint256"
          },
          {
            "astId": 9092,
            "contract": "contracts/Shadowlings.sol:Shadowlings",
            "label": "name",
            "offset": 0,
            "slot": "5",
            "type": "t_uint256"
          }
        ],
        "numberOfBytes": "192"
      },
      "t_uint256": {
        "encoding": "inplace",
        "label": "uint256",
        "numberOfBytes": "32"
      }
    }
  }
}