{
  "address": "0x8F08F7aC4b50D6E2ffD0FF421B6cF04BB31974Fe",
  "abi": [
    {
      "inputs": [
        {
          "internalType": "address",
          "name": "altar",
          "type": "address"
        }
      ],
      "stateMutability": "nonpayable",
      "type": "constructor"
    },
    {
      "inputs": [],
      "name": "ModifyError",
      "type": "error"
    },
    {
      "anonymous": false,
      "inputs": [
        {
          "indexed": true,
          "internalType": "address",
          "name": "owner",
          "type": "address"
        },
        {
          "indexed": true,
          "internalType": "address",
          "name": "approved",
          "type": "address"
        },
        {
          "indexed": true,
          "internalType": "uint256",
          "name": "tokenId",
          "type": "uint256"
        }
      ],
      "name": "Approval",
      "type": "event"
    },
    {
      "anonymous": false,
      "inputs": [
        {
          "indexed": true,
          "internalType": "address",
          "name": "owner",
          "type": "address"
        },
        {
          "indexed": true,
          "internalType": "address",
          "name": "operator",
          "type": "address"
        },
        {
          "indexed": false,
          "internalType": "bool",
          "name": "approved",
          "type": "bool"
        }
      ],
      "name": "ApprovalForAll",
      "type": "event"
    },
    {
      "anonymous": false,
      "inputs": [
        {
          "indexed": true,
          "internalType": "address",
          "name": "previousOwner",
          "type": "address"
        },
        {
          "indexed": true,
          "internalType": "address",
          "name": "newOwner",
          "type": "address"
        }
      ],
      "name": "OwnershipTransferred",
      "type": "event"
    },
    {
      "anonymous": false,
      "inputs": [
        {
          "indexed": true,
          "internalType": "address",
          "name": "from",
          "type": "address"
        },
        {
          "indexed": true,
          "internalType": "address",
          "name": "to",
          "type": "address"
        },
        {
          "indexed": true,
          "internalType": "uint256",
          "name": "tokenId",
          "type": "uint256"
        }
      ],
      "name": "Transfer",
      "type": "event"
    },
    {
      "inputs": [
        {
          "internalType": "address",
          "name": "to",
          "type": "address"
        },
        {
          "internalType": "uint256",
          "name": "tokenId",
          "type": "uint256"
        }
      ],
      "name": "approve",
      "outputs": [],
      "stateMutability": "nonpayable",
      "type": "function"
    },
    {
      "inputs": [
        {
          "internalType": "uint256",
          "name": "tokenId",
          "type": "uint256"
        }
      ],
      "name": "attributes",
      "outputs": [
        {
          "internalType": "string",
          "name": "",
          "type": "string"
        }
      ],
      "stateMutability": "view",
      "type": "function"
    },
    {
      "inputs": [
        {
          "internalType": "uint256",
          "name": "itemId",
          "type": "uint256"
        }
      ],
      "name": "attributesItem",
      "outputs": [
        {
          "internalType": "string",
          "name": "",
          "type": "string"
        }
      ],
      "stateMutability": "pure",
      "type": "function"
    },
    {
      "inputs": [
        {
          "internalType": "address",
          "name": "owner",
          "type": "address"
        }
      ],
      "name": "balanceOf",
      "outputs": [
        {
          "internalType": "uint256",
          "name": "",
          "type": "uint256"
        }
      ],
      "stateMutability": "view",
      "type": "function"
    },
    {
      "inputs": [
        {
          "internalType": "uint256",
          "name": "tokenId",
          "type": "uint256"
        },
        {
          "internalType": "address",
          "name": "recipient",
          "type": "address"
        }
      ],
      "name": "claim",
      "outputs": [],
      "stateMutability": "nonpayable",
      "type": "function"
    },
    {
      "inputs": [],
      "name": "contractURI",
      "outputs": [
        {
          "internalType": "string",
          "name": "",
          "type": "string"
        }
      ],
      "stateMutability": "pure",
      "type": "function"
    },
    {
      "inputs": [
        {
          "internalType": "uint256",
          "name": "tokenId",
          "type": "uint256"
        }
      ],
      "name": "getApproved",
      "outputs": [
        {
          "internalType": "address",
          "name": "",
          "type": "address"
        }
      ],
      "stateMutability": "view",
      "type": "function"
    },
    {
      "inputs": [
        {
          "internalType": "address",
          "name": "owner",
          "type": "address"
        },
        {
          "internalType": "address",
          "name": "operator",
          "type": "address"
        }
      ],
      "name": "isApprovedForAll",
      "outputs": [
        {
          "internalType": "bool",
          "name": "",
          "type": "bool"
        }
      ],
      "stateMutability": "view",
      "type": "function"
    },
    {
      "inputs": [
        {
          "internalType": "uint256",
          "name": "tokenId",
          "type": "uint256"
        },
        {
          "internalType": "uint256",
          "name": "currencyId",
          "type": "uint256"
        }
      ],
      "name": "modify",
      "outputs": [],
      "stateMutability": "nonpayable",
      "type": "function"
    },
    {
      "inputs": [],
      "name": "name",
      "outputs": [
        {
          "internalType": "string",
          "name": "",
          "type": "string"
        }
      ],
      "stateMutability": "view",
      "type": "function"
    },
    {
      "inputs": [],
      "name": "owner",
      "outputs": [
        {
          "internalType": "address",
          "name": "",
          "type": "address"
        }
      ],
      "stateMutability": "view",
      "type": "function"
    },
    {
      "inputs": [
        {
          "internalType": "uint256",
          "name": "tokenId",
          "type": "uint256"
        }
      ],
      "name": "ownerOf",
      "outputs": [
        {
          "internalType": "address",
          "name": "",
          "type": "address"
        }
      ],
      "stateMutability": "view",
      "type": "function"
    },
    {
      "inputs": [
        {
          "internalType": "uint256",
          "name": "tokenId",
          "type": "uint256"
        }
      ],
      "name": "properties",
      "outputs": [
        {
          "components": [
            {
              "internalType": "string",
              "name": "creature",
              "type": "string"
            },
            {
              "internalType": "string",
              "name": "flaw",
              "type": "string"
            },
            {
              "internalType": "string",
              "name": "origin",
              "type": "string"
            },
            {
              "internalType": "string",
              "name": "bloodline",
              "type": "string"
            },
            {
              "internalType": "string",
              "name": "ability",
              "type": "string"
            },
            {
              "internalType": "string",
              "name": "name",
              "type": "string"
            }
          ],
          "internalType": "struct Attributes.ItemStrings",
          "name": "",
          "type": "tuple"
        }
      ],
      "stateMutability": "view",
      "type": "function"
    },
    {
      "inputs": [
        {
          "internalType": "uint256",
          "name": "",
          "type": "uint256"
        }
      ],
      "name": "propertiesOf",
      "outputs": [
        {
          "internalType": "uint256",
          "name": "creature",
          "type": "uint256"
        },
        {
          "internalType": "uint256",
          "name": "flaw",
          "type": "uint256"
        },
        {
          "internalType": "uint256",
          "name": "origin",
          "type": "uint256"
        },
        {
          "internalType": "uint256",
          "name": "bloodline",
          "type": "uint256"
        },
        {
          "internalType": "uint256",
          "name": "ability",
          "type": "uint256"
        },
        {
          "internalType": "uint256",
          "name": "name",
          "type": "uint256"
        }
      ],
      "stateMutability": "view",
      "type": "function"
    },
    {
      "inputs": [],
      "name": "renounceOwnership",
      "outputs": [],
      "stateMutability": "nonpayable",
      "type": "function"
    },
    {
      "inputs": [
        {
          "internalType": "address",
          "name": "from",
          "type": "address"
        },
        {
          "internalType": "address",
          "name": "to",
          "type": "address"
        },
        {
          "internalType": "uint256",
          "name": "tokenId",
          "type": "uint256"
        }
      ],
      "name": "safeTransferFrom",
      "outputs": [],
      "stateMutability": "nonpayable",
      "type": "function"
    },
    {
      "inputs": [
        {
          "internalType": "address",
          "name": "from",
          "type": "address"
        },
        {
          "internalType": "address",
          "name": "to",
          "type": "address"
        },
        {
          "internalType": "uint256",
          "name": "tokenId",
          "type": "uint256"
        },
        {
          "internalType": "bytes",
          "name": "_data",
          "type": "bytes"
        }
      ],
      "name": "safeTransferFrom",
      "outputs": [],
      "stateMutability": "nonpayable",
      "type": "function"
    },
    {
      "inputs": [
        {
          "internalType": "address",
          "name": "operator",
          "type": "address"
        },
        {
          "internalType": "bool",
          "name": "approved",
          "type": "bool"
        }
      ],
      "name": "setApprovalForAll",
      "outputs": [],
      "stateMutability": "nonpayable",
      "type": "function"
    },
    {
      "inputs": [
        {
          "internalType": "uint256",
          "name": "tokenId",
          "type": "uint256"
        },
        {
          "internalType": "address",
          "name": "recipient",
          "type": "address"
        }
      ],
      "name": "summon",
      "outputs": [],
      "stateMutability": "nonpayable",
      "type": "function"
    },
    {
      "inputs": [
        {
          "internalType": "bytes4",
          "name": "interfaceId",
          "type": "bytes4"
        }
      ],
      "name": "supportsInterface",
      "outputs": [
        {
          "internalType": "bool",
          "name": "",
          "type": "bool"
        }
      ],
      "stateMutability": "view",
      "type": "function"
    },
    {
      "inputs": [],
      "name": "symbol",
      "outputs": [
        {
          "internalType": "string",
          "name": "",
          "type": "string"
        }
      ],
      "stateMutability": "view",
      "type": "function"
    },
    {
      "inputs": [
        {
          "internalType": "uint256",
          "name": "index",
          "type": "uint256"
        }
      ],
      "name": "tokenByIndex",
      "outputs": [
        {
          "internalType": "uint256",
          "name": "",
          "type": "uint256"
        }
      ],
      "stateMutability": "view",
      "type": "function"
    },
    {
      "inputs": [
        {
          "internalType": "address",
          "name": "owner",
          "type": "address"
        },
        {
          "internalType": "uint256",
          "name": "index",
          "type": "uint256"
        }
      ],
      "name": "tokenOfOwnerByIndex",
      "outputs": [
        {
          "internalType": "uint256",
          "name": "",
          "type": "uint256"
        }
      ],
      "stateMutability": "view",
      "type": "function"
    },
    {
      "inputs": [
        {
          "internalType": "uint256",
          "name": "tokenId",
          "type": "uint256"
        }
      ],
      "name": "tokenURI",
      "outputs": [
        {
          "internalType": "string",
          "name": "",
          "type": "string"
        }
      ],
      "stateMutability": "view",
      "type": "function"
    },
    {
      "inputs": [],
      "name": "totalSupply",
      "outputs": [
        {
          "internalType": "uint256",
          "name": "",
          "type": "uint256"
        }
      ],
      "stateMutability": "view",
      "type": "function"
    },
    {
      "inputs": [
        {
          "internalType": "address",
          "name": "from",
          "type": "address"
        },
        {
          "internalType": "address",
          "name": "to",
          "type": "address"
        },
        {
          "internalType": "uint256",
          "name": "tokenId",
          "type": "uint256"
        }
      ],
      "name": "transferFrom",
      "outputs": [],
      "stateMutability": "nonpayable",
      "type": "function"
    },
    {
      "inputs": [
        {
          "internalType": "address",
          "name": "newOwner",
          "type": "address"
        }
      ],
      "name": "transferOwnership",
      "outputs": [],
      "stateMutability": "nonpayable",
      "type": "function"
    }
  ],
  "transactionHash": "0x99169c5cdbb1203a28aa7becf4030a2a092e489c6c8707a3ce925e5415ed8841",
  "args": [
    "0xf952441B7997bC229e883988F34d9eBC6C1105bd"
  ],
  "solcInputHash": "6033effa045c60e762cff4c40681be6f",
  "bytecode": "0x60806040523480156200001157600080fd5b5060405162005fe738038062005fe783398101604081905262000034916200029d565b604080518082018252600a815269536861646f776c696e6760b01b6020808301918252835180850190945260048452635348445760e01b9084015281519192916200008291600091620001f7565b50805162000098906001906020840190620001f7565b505050620000b5620000af620000cc60201b60201c565b620000d0565b6001600c55620000c58162000122565b506200030c565b3390565b600b80546001600160a01b038381166001600160a01b0319831681179093556040519116919082907f8be0079c531659141344cd1fd0a4f28419497f9722a3daafe3b4186f6b6457e090600090a35050565b600b546001600160a01b03163314620001825760405162461bcd60e51b815260206004820181905260248201527f4f776e61626c653a2063616c6c6572206973206e6f7420746865206f776e657260448201526064015b60405180910390fd5b6001600160a01b038116620001e95760405162461bcd60e51b815260206004820152602660248201527f4f776e61626c653a206e6577206f776e657220697320746865207a65726f206160448201526564647265737360d01b606482015260840162000179565b620001f481620000d0565b50565b8280546200020590620002cf565b90600052602060002090601f01602090048101928262000229576000855562000274565b82601f106200024457805160ff191683800117855562000274565b8280016001018555821562000274579182015b828111156200027457825182559160200191906001019062000257565b506200028292915062000286565b5090565b5b8082111562000282576000815560010162000287565b600060208284031215620002b057600080fd5b81516001600160a01b0381168114620002c857600080fd5b9392505050565b600181811c90821680620002e457607f821691505b602082108114156200030657634e487b7160e01b600052602260045260246000fd5b50919050565b615ccb806200031c6000396000f3fe608060405234801561001057600080fd5b50600436106101795760003560e01c806385d05887116100d9578063d05dcc6a11610087578063d05dcc6a14610366578063dd77868614610379578063ddd5e1b21461038c578063e8a3d4851461039f578063e985e9c5146103a7578063f2fde38b146103ba578063f7b10808146103cd57600080fd5b806385d05887146102f75780638da5cb5b1461030a57806395d89b4114610312578063a22cb4651461031a578063b88d4fde1461032d578063c77eefa614610340578063c87b56dd1461035357600080fd5b80632f745c59116101365780632f745c591461022057806342842e0e146102335780634f6ccce714610246578063606cf27e146102595780636352211e146102c957806370a08231146102dc578063715018a6146102ef57600080fd5b806301ffc9a71461017e57806306fdde03146101a6578063081812fc146101bb578063095ea7b3146101e657806318160ddd146101fb57806323b872dd1461020d575b600080fd5b61019161018c366004613d0d565b6103ed565b60405190151581526020015b60405180910390f35b6101ae610418565b60405161019d9190614551565b6101ce6101c9366004613d47565b6104aa565b6040516001600160a01b03909116815260200161019d565b6101f96101f4366004613ce3565b610537565b005b6008545b60405190815260200161019d565b6101f961021b366004613b8f565b610648565b6101ff61022e366004613ce3565b610679565b6101f9610241366004613b8f565b61070f565b6101ff610254366004613d47565b61072a565b61029c610267366004613d47565b600a60205260009081526040902080546001820154600283015460038401546004850154600590950154939492939192909186565b604080519687526020870195909552938501929092526060840152608083015260a082015260c00161019d565b6101ce6102d7366004613d47565b6107bd565b6101ff6102ea366004613b41565b610834565b6101f96108bb565b6101f9610305366004613d83565b6108f6565b6101ce610b1a565b6101ae610b29565b6101f9610328366004613ca7565b610b38565b6101f961033b366004613bcb565b610bf9565b6101f961034e366004613d60565b610c31565b6101ae610361366004613d47565b610cfe565b6101ae610374366004613d47565b610d86565b6101ae610387366004613d47565b610d99565b6101f961039a366004613d60565b610da4565b6101ae610e5f565b6101916103b5366004613b5c565b610eb6565b6101f96103c8366004613b41565b610ee4565b6103e06103db366004613d47565b610f84565b60405161019d9190614673565b60006001600160e01b0319821663780e9d6360e01b1480610412575061041282610fee565b92915050565b606060008054610427906148a4565b80601f0160208091040260200160405190810160405280929190818152602001828054610453906148a4565b80156104a05780601f10610475576101008083540402835291602001916104a0565b820191906000526020600020905b81548152906001019060200180831161048357829003601f168201915b5050505050905090565b60006104b58261103e565b61051b5760405162461bcd60e51b815260206004820152602c60248201527f4552433732313a20617070726f76656420717565727920666f72206e6f6e657860448201526b34b9ba32b73a103a37b5b2b760a11b60648201526084015b60405180910390fd5b506000908152600460205260409020546001600160a01b031690565b6000610542826107bd565b9050806001600160a01b0316836001600160a01b031614156105b05760405162461bcd60e51b815260206004820152602160248201527f4552433732313a20617070726f76616c20746f2063757272656e74206f776e656044820152603960f91b6064820152608401610512565b336001600160a01b03821614806105cc57506105cc8133610eb6565b6106395760405162461bcd60e51b815260206004820152603860248201527f4552433732313a20617070726f76652063616c6c6572206973206e6f74206f776044820152771b995c881b9bdc88185c1c1c9bdd995908199bdc88185b1b60421b6064820152608401610512565b610643838361105b565b505050565b61065233826110c9565b61066e5760405162461bcd60e51b8152600401610512906145eb565b610643838383611193565b600061068483610834565b82106106e65760405162461bcd60e51b815260206004820152602b60248201527f455243373231456e756d657261626c653a206f776e657220696e646578206f7560448201526a74206f6620626f756e647360a81b6064820152608401610512565b506001600160a01b03919091166000908152600660209081526040808320938352929052205490565b61064383838360405180602001604052806000815250610bf9565b600061073560085490565b82106107985760405162461bcd60e51b815260206004820152602c60248201527f455243373231456e756d657261626c653a20676c6f62616c20696e646578206f60448201526b7574206f6620626f756e647360a01b6064820152608401610512565b600882815481106107ab576107ab614950565b90600052602060002001549050919050565b6000818152600260205260408120546001600160a01b0316806104125760405162461bcd60e51b815260206004820152602960248201527f4552433732313a206f776e657220717565727920666f72206e6f6e657869737460448201526832b73a103a37b5b2b760b91b6064820152608401610512565b60006001600160a01b03821661089f5760405162461bcd60e51b815260206004820152602a60248201527f4552433732313a2062616c616e636520717565727920666f7220746865207a65604482015269726f206164647265737360b01b6064820152608401610512565b506001600160a01b031660009081526003602052604090205490565b336108c4610b1a565b6001600160a01b0316146108ea5760405162461bcd60e51b8152600401610512906145b6565b6108f4600061133e565b565b6002600c5414156109195760405162461bcd60e51b81526004016105129061463c565b6002600c5533610927610b1a565b6001600160a01b03161461094d5760405162461bcd60e51b8152600401610512906145b6565b6000828152600a60209081526040808320815160c081018352815481526001820154938101939093526002810154918301919091526003810154606083018190526004820154608084015260059091015460a08301529091906109af90611390565b905060006109bd85836113ac565b905060006109ca82611402565b905060006109d7866115d7565b826040516020016109e99291906142f0565b6040516020818303038152906040528051906020012060001c9050610a0c613a51565b85518152602080870151908201526080860151604082015260a08601516060820152610a398782846116d5565b8051909150610a49576000610a54565b8051610a5490611b1a565b86526020810151610a66576000610a74565b6020810151610a7490611b2f565b60208701526040810151610a89576000610a97565b6040810151610a9790611b44565b60808701526060810151610aac576000610aba565b6060810151610aba90611b59565b60a087019081526000988952600a60209081526040998a9020885181559088015160018083019190915599880151600282015560608801516003820155608090970151600488015551600590960195909555505050600c93909355505050565b600b546001600160a01b031690565b606060018054610427906148a4565b6001600160a01b038216331415610b8d5760405162461bcd60e51b815260206004820152601960248201527822a9219b99189d1030b8383937bb32903a379031b0b63632b960391b6044820152606401610512565b3360008181526005602090815260408083206001600160a01b03871680855290835292819020805460ff191686151590811790915590519081529192917f17307eab39ab6107e8899845ad3d59bd9653f200f220920489ca2b5937696c31910160405180910390a35050565b610c0333836110c9565b610c1f5760405162461bcd60e51b8152600401610512906145eb565b610c2b84848484611b6e565b50505050565b6002600c541415610c545760405162461bcd60e51b81526004016105129061463c565b6002600c5533610c62610b1a565b6001600160a01b031614610c885760405162461bcd60e51b8152600401610512906145b6565b6000610c9383611ba1565b9050610ca0836001611c3e565b60408083019182526000858152600a60209081529190208351815590830151600182015590516002820155606082015160038201556080820151600482015560a0820151600590910155610cf48284611c5b565b50506001600c5550565b60606000610d0b83610f84565b90506000610d1884611c79565b90506000610d57610d298484611dd9565b610d3285611fd7565b604051602001610d439291906141fc565b604051602081830303815290604052612166565b9050600081604051602001610d6c9190614467565b60408051601f198184030181529190529695505050505050565b6060610412610d9483610f84565b611fd7565b6060610412826122cc565b6002600c541415610dc75760405162461bcd60e51b81526004016105129061463c565b6002600c5533610dd5610b1a565b6001600160a01b031614610dfb5760405162461bcd60e51b8152600401610512906145b6565b610e0482611ba1565b6000838152600a602090815260409182902083518155908301516001820155908201516002820155606082015160038201556080820151600482015560a090910151600590910155610e568183611c5b565b50506001600c55565b606060006040518060c0016040528060818152602001614fa26081913990506000610e8982612166565b9050600081604051602001610e9e9190614467565b60408051601f19818403018152919052949350505050565b6001600160a01b03918216600090815260056020908152604080832093909416825291909152205460ff1690565b33610eed610b1a565b6001600160a01b031614610f135760405162461bcd60e51b8152600401610512906145b6565b6001600160a01b038116610f785760405162461bcd60e51b815260206004820152602660248201527f4f776e61626c653a206e6577206f776e657220697320746865207a65726f206160448201526564647265737360d01b6064820152608401610512565b610f818161133e565b50565b610f8c613a6f565b610412600a60008481526020019081526020016000206040518060c001604052908160008201548152602001600182015481526020016002820154815260200160038201548152602001600482015481526020016005820154815250506125a8565b60006001600160e01b031982166380ac58cd60e01b148061101f57506001600160e01b03198216635b5e139f60e01b145b8061041257506301ffc9a760e01b6001600160e01b0319831614610412565b6000908152600260205260409020546001600160a01b0316151590565b600081815260046020526040902080546001600160a01b0319166001600160a01b0384169081179091558190611090826107bd565b6001600160a01b03167f8c5be1e5ebec7d5bd14f71427d1e84f3dd0314c0f7b2291e5b200ac8c7c3b92560405160405180910390a45050565b60006110d48261103e565b6111355760405162461bcd60e51b815260206004820152602c60248201527f4552433732313a206f70657261746f7220717565727920666f72206e6f6e657860448201526b34b9ba32b73a103a37b5b2b760a11b6064820152608401610512565b6000611140836107bd565b9050806001600160a01b0316846001600160a01b0316148061117b5750836001600160a01b0316611170846104aa565b6001600160a01b0316145b8061118b575061118b8185610eb6565b949350505050565b826001600160a01b03166111a6826107bd565b6001600160a01b03161461120e5760405162461bcd60e51b815260206004820152602960248201527f4552433732313a207472616e73666572206f6620746f6b656e2074686174206960448201526839903737ba1037bbb760b91b6064820152608401610512565b6001600160a01b0382166112705760405162461bcd60e51b8152602060048201526024808201527f4552433732313a207472616e7366657220746f20746865207a65726f206164646044820152637265737360e01b6064820152608401610512565b61127b838383612622565b61128660008261105b565b6001600160a01b03831660009081526003602052604081208054600192906112af908490614861565b90915550506001600160a01b03821660009081526003602052604081208054600192906112dd90849061472b565b909155505060008181526002602052604080822080546001600160a01b0319166001600160a01b0386811691821790925591518493918716917fddf252ad1be2c89b69c2b068fc378daa952ba7f163c4a11628f55a4df523b3ef91a4505050565b600b80546001600160a01b038381166001600160a01b0319831681179093556040519116919082907f8be0079c531659141344cd1fd0a4f28419497f9722a3daafe3b4186f6b6457e090600090a35050565b606060008061139e846126da565b9150915061118b8282612745565b6000806113b8846128ac565b836040516020016113ca9291906144ee565b60408051808303601f190181528282528051602091820120818401528151808403820181529282019091528151910120949350505050565b606061140c613aa5565b60326114196064856148fa565b11611425576000611428565b60015b815260c36114386101f4856148fa565b11611444576002611447565b60015b602082015261068361145b6107d0856148fa565b1161146757600061146a565b60025b604082015280516001148015611481575080516001145b61148c57600161148f565b60005b60608201526020810151156114a55760016114a8565b60035b6080820152602081015160031480156114cd57506106836114cb6107d0856148fa565b115b6114d85760006114db565b60015b60a0820152805160011480156114f057508051155b6114fb5760016114fe565b60005b60c08201526040810151600114611516576001611519565b60035b60e08201526060810151600114611531576001611534565b60005b816008602002015260008181602002015182600160200201518360026020020151846003602002015185600460200201518660056020020151876006602002015188600760200201518960086020020151604051602001610e9e99989796959493929190988952602089019790975260408801959095526060870193909352608086019190915260a085015260c084015260e08301526101008201526101200190565b6060816115fb5750506040805180820190915260018152600360fc1b602082015290565b8160005b8115611625578061160f816148df565b915061161e9050600a83614743565b91506115ff565b60008167ffffffffffffffff81111561164057611640614966565b6040519080825280601f01601f19166020018201604052801561166a576020820181803683370190505b5090505b841561118b5761167f600183614861565b915061168c600a866148fa565b61169790603061472b565b60f81b8183815181106116ac576116ac614950565b60200101906001600160f81b031916908160001a9053506116ce600a86614743565b945061166e565b6116dd613a51565b6116e9612710836148fa565b9150600460006116f885612950565b905060078614156117ea57806001146117245760405163fd88b53d60e01b815260040160405180910390fd5b60005b828110156117e857600086826004811061174357611743614950565b60200201519050611755600185614861565b82141561178657611783604051806040016040528060058152602001640534c4f54360dc1b815250876129a9565b87525b80156117d5576117b360405180604001604052806005815260200164534c4f543160d81b815250876129a9565b876117bf84600161472b565b600481106117cf576117cf614950565b60200201525b50806117e0816148df565b915050611727565b505b600886141561189357806003146118145760405163fd88b53d60e01b815260040160405180910390fd5b60005b8281101561189157600086826004811061183357611833614950565b602002015190508061187e5761186660405180604001604052806005815260200164534c4f543160d81b815250876129a9565b87836004811061187857611878614950565b60200201525b5080611889816148df565b915050611817565b505b60068614156118f75760005b828110156118f55760008682600481106118bb576118bb614950565b6020020151905080156118e25760008783600481106118dc576118dc614950565b60200201525b50806118ed816148df565b91505061189f565b505b60048614156119a357801561191f5760405163fd88b53d60e01b815260040160405180910390fd5b61138884111561195a5761195060405180604001604052806005815260200164534c4f543160d81b815250856129a9565b60208601526119a3565b6119816040518060400160405280600581526020016429a627aa1960d91b815250856129a9565b8561198d600185614861565b6004811061199d5761199d614950565b60200201525b6005861415611a515780156119cb5760405163fd88b53d60e01b815260040160405180910390fd5b60005b82811015611a4f576123288511156119fe5760008682600481106119f4576119f4614950565b6020020152611a3d565b611a2560405180604001604052806005815260200164534c4f543160d81b815250866129a9565b868260048110611a3757611a37614950565b60200201525b80611a47816148df565b9150506119ce565b505b6002861415611abb57612328841115611a7657611a6f8460016129b8565b9450611abb565b6101f4841015611a8b57611a6f8460026129b8565b61232884108015611a9d5750611b5884115b15611aad57611a6f8460036129b8565b611ab88460046129b8565b94505b6003861415611b10576002811115611ae65760405163fd88b53d60e01b815260040160405180910390fd5b611388841115611b0257611afb8460016129b8565b9450611b10565b611b0d8460026129b8565b94505b5092949350505050565b6000610412611b2883612ac6565b6000612afa565b6000610412611b3d83612b8e565b6001612afa565b6000610412611b5283612bbe565b6004612afa565b6000610412611b6783612bf1565b6005612afa565b611b79848484611193565b611b8584848484612c21565b610c2b5760405162461bcd60e51b815260040161051290614564565b611bda6040518060c001604052806000815260200160008152602001600081526020016000815260200160008152602001600081525090565b6040518060c00160405280611bee84611b1a565b8152602001611bfc84611b2f565b8152602001611c0c846000611c3e565b8152602001611c1a84612d2e565b8152602001611c2884611b44565b8152602001611c3684611b59565b905292915050565b6000611c54611c4d8484612d43565b6002612afa565b9392505050565b611c75828260405180602001604052806000815250612dac565b5050565b6060611c83613ac4565b611c8c83612ddf565b81526040805160608101909152602980825261504c60208301396020820152611cb483612e0b565b6040808301919091528051606081019091526029808252615b8f60208301396060820152611ce183612e38565b6080820152604080516060810190915260298082526150ef602083013960a0820152611d0c83612e68565b60c082015260408051606081019091526029808252615023602083013960e0820152611d3783612e98565b610100820152604080516060810190915260298082526151186020830139610120820152611d6483612ec2565b61014082015280516020808301516040808501516060860151608087015160a088015160c089015160e08a01516101008b0151965160009a611daa9a9099989101613eca565b60408051808303601f1901815290829052610120840151610140850151919350610e9e92849290602001613e1c565b6060611de3613aec565b60405180610120016040528060fd815260200161524d60fd913981528351602080830191909152604080516060810190915260288082529091615a399083013960408201526020840151816003602002018190525060405180606001604052806028815260200161499360289139608082015260408481015160a0830152805160608101909152602880825261509e602083013960c082015260608481015160e083015260408051918201905260298082526150c66020830139610100820152608084015161012082015260408051606081019091526029808252615075602083013961014082015260a0840151610160820152604080516060810190915260298082526154ff602083013961018082015280516020808301516040808501516060860151608087015160a088015160c089015160e08a01516101008b0151965160009a611f359a9099989101613eca565b60408051808303601f1901815290829052610120840151610140850151610160860151610180870151939550611f7094869490602001613e5f565b60405160208183030381529060405290508084604051602001611f94929190614001565b6040516020818303038152906040529050611fae81612166565b604051602001611fbe9190614334565b60408051808303601f1901815291905295945050505050565b6060806000611ff0611fe96000612eee565b8551612f12565b6040516020016120009190614393565b60405160208183030381529060405290508061202961201f6001612eee565b8660200151612f12565b60405160200161203a92919061411f565b6040516020818303038152906040529050806120636120596002612eee565b8660400151612f12565b60405160200161207492919061411f565b60405160208183030381529060405290508061209d6120936003612eee565b8660600151612f12565b6040516020016120ae92919061411f565b6040516020818303038152906040529050806120d76120cd6004612eee565b8660800151612f12565b6040516020016120e892919061411f565b6040516020818303038152906040529050806121116121076005612eee565b8660a00151612f12565b60405160200161212292919061411f565b60405160208183030381529060405290508060405160200161214491906140fa565b604051602081830303815290604052905080604051602001610e9e91906144ac565b805160609080612186575050604080516020810190915260008152919050565b6000600361219583600261472b565b61219f9190614743565b6121aa906004614842565b905060006121b982602061472b565b67ffffffffffffffff8111156121d1576121d1614966565b6040519080825280601f01601f1916602001820160405280156121fb576020820181803683370190505b5090506000604051806060016040528060408152602001615528604091399050600181016020830160005b86811015612287576003818a01810151603f601282901c8116860151600c83901c8216870151600684901c831688015192909316870151600891821b60ff94851601821b92841692909201901b91160160e01b835260049092019101612226565b5060038606600181146122a157600281146122b2576122be565b613d3d60f01b6001198301526122be565b603d60f81b6000198301525b505050918152949350505050565b60606000806122da846126da565b9150915060006122e982612eee565b905060006123136040518060400160405280600481526020016314db1bdd60e21b81525083612f12565b6040516020016123239190614393565b60408051601f19818403018152919052905060006123488486835b6020020151612f3e565b905081612371604051806040016040528060048152602001634974656d60e01b81525083612f12565b60405160200161238292919061411f565b60408051808303601f1901815291905260208601519092501561240b5760006123bc6001878160200201516123b79190614861565b613087565b9050826123e7604051806040016040528060068152602001650a6eaccccd2f60d31b81525083612f12565b6040516020016123f892919061411f565b6040516020818303038152906040529250505b60408501511561248857600061243460018760025b602002015161242f9190614861565b6130ae565b9050826124646040518060400160405280600b81526020016a09cc2daca40a0e4caccd2f60ab1b81525083612f12565b60405160200161247592919061411f565b6040516020818303038152906040529250505b6060850151156125055760006124b160018760035b60200201516124ac9190614861565b6130d5565b9050826124e16040518060400160405280600b81526020016a09cc2daca40a6eaccccd2f60ab1b81525083612f12565b6040516020016124f292919061411f565b6040516020818303038152906040529250505b60808501511561257c57816125596040518060400160405280600c81526020016b20bab3b6b2b73a30ba34b7b760a11b8152506040518060400160405280600381526020016259657360e81b815250612f12565b60405160200161256a92919061411f565b60405160208183030381529060405291505b8160405160200161258d91906140fa565b60408051601f19818403018152919052979650505050505050565b6125b0613a6f565b6040518060c001604052806125c88460000151611390565b81526020016125da8460200151611390565b81526020016125ec8460400151611390565b81526020016125fe8460600151611390565b81526020016126108460800151611390565b8152602001611c368460a00151611390565b6001600160a01b03831661267d5761267881600880546000838152600960205260408120829055600182018355919091527ff3f7a9fe364faab93b216da50a3214154f22a0a2b415b23a84c8169e8b636ee30155565b6126a0565b816001600160a01b0316836001600160a01b0316146126a0576126a083826130fa565b6001600160a01b0382166126b75761064381613197565b826001600160a01b0316826001600160a01b031614610643576106438282613246565b6126e2613b07565b60006126ef83600061328a565b90506126fc83600161328a565b825261270983600261328a565b602083015261271983600361328a565b604083015261272983600461328a565b606083015261273983600561328a565b60808301529092909150565b6060600061275483858361233e565b6020850151909150156127ba57806127976040518061014001604052806101038152602001615a616101039139602087015161279290600190614861565b6132a5565b6040516020016127a89291906140be565b60405160208183030381529060405290505b6040840151156128795760006127d36001866002612420565b6040516020016127e391906143bc565b60408051808303601f19018152919052606086015190915015612831578061280e600187600361249d565b60405160200161281f9291906140be565b60405160208183030381529060405290505b8060405160200161284291906141b4565b60405160208183030381529060405290508082604051602001612866929190613ded565b6040516020818303038152906040529150505b608084015115611c545780604051602001612894919061415c565b60405160208183030381529060405290509392505050565b600080424332335a8743406045436128c49190614861565b6040805160208101999099528801969096526bffffffffffffffffffffffff19606095861b8116868901529390941b9092166074860152608885015260a884015260c88301524060e88201526101080160408051601f198184030181528282528051602091820120908301520160408051601f1981840301815291905280516020909101209392505050565b6000600481805b828110156129a157600085826004811061297357612973614950565b60200201519050801561298e578261298a816148df565b9350505b5080612999816148df565b915050612957565b509392505050565b6000611c548383612710613334565b6129c0613a51565b6129c8613a51565b6040805180820190915260058152640534c4f54360dc1b60208201526001906129f190866129a9565b8252838110612a0257509050610412565b80612a0c816148df565b915050612a3660405180604001604052806005815260200164534c4f543160d81b815250866129a9565b6020830152838110612a4a57509050610412565b80612a54816148df565b915050612a7e6040518060400160405280600581526020016429a627aa1960d91b815250866129a9565b6040830152838110612a9257509050610412565b612ab960405180604001604052806005815260200164534c4f543360d81b815250866129a9565b6060830152509392505050565b612ace613b07565b6104128260405180604001604052806008815260200167435245415455524560c01b815250602f61336b565b81516000908290612b0c90600161344a565b612b16908261472b565b9050612b2a8460016020020151600261344a565b612b34908261472b565b9050612b488460026020020151600361344a565b612b52908261472b565b9050612b668460036020020151600461344a565b612b70908261472b565b9050612b848460046020020151600561344a565b61118b908261472b565b612b96613b07565b6104128260405180604001604052806004815260200163464c415760e01b815250601461336b565b612bc6613b07565b61041282604051806040016040528060078152602001664142494c49545960c81b815250601261336b565b612bf9613b07565b61041282604051806040016040528060048152602001634e414d4560e01b81525060ba61336b565b60006001600160a01b0384163b15612d2357604051630a85bd0160e11b81526001600160a01b0385169063150b7a0290612c65903390899088908890600401614514565b602060405180830381600087803b158015612c7f57600080fd5b505af1925050508015612caf575060408051601f3d908101601f19168201909252612cac91810190613d2a565b60015b612d09573d808015612cdd576040519150601f19603f3d011682016040523d82523d6000602084013e612ce2565b606091505b508051612d015760405162461bcd60e51b815260040161051290614564565b805181602001fd5b6001600160e01b031916630a85bd0160e11b14905061118b565b506001949350505050565b6000610412612d3c83613465565b6003612afa565b612d4b613b07565b8115612d8257612d7b836040518060400160405280600681526020016527a924a3a4a760d11b815250600561336b565b9050610412565b611c54836040518060400160405280600681526020016527a924a3a4a760d11b815250600e61336b565b612db6838361349a565b612dc36000848484612c21565b6106435760405162461bcd60e51b815260040161051290614564565b606061041282604051806040016040528060088152602001670a6a8a48a9c8ea8960c31b8152506135d9565b6060610412826040518060400160405280600981526020016844455854455249545960b81b8152506135d9565b6060610412826040518060400160405280600c81526020016b21a7a729aa24aa2aaa24a7a760a11b8152506135d9565b6060610412826040518060400160405280600c81526020016b494e54454c4c4947454e434560a01b8152506135d9565b60606104128260405180604001604052806006815260200165574953444f4d60d01b8152506135d9565b606061041282604051806040016040528060088152602001674348415249534d4160c01b8152506135d9565b60606104126040518060600160405280602b8152602001615b64602b9139836132a5565b60608282604051602001612f279291906143d8565b604051602081830303815290604052905092915050565b60608083612f6957604051806102a0016040528061027481526020016155686102749139905061307d565b6001841415612f935760405180610100016040528060c8815260200161543760c89139905061307d565b6002841415612fbd5760405180610100016040528060d881526020016149bb60d89139905061307d565b6003841415612fe95760405180610140016040528061010c815260200161514161010c9139905061307d565b60048414156130135760405180610120016040528060ed815260200161534a60ed9139905061307d565b600584141561303f5760405180610540016040528061050f8152602001614a9361050f9139905061307d565b60405162461bcd60e51b8152602060048201526013602482015272556e65787065637465642070726f706572747960681b6044820152606401610512565b61118b81846132a5565b60606104126040518061014001604052806101038152602001615a616101039139836132a5565b606061041260405180610280016040528061025d81526020016157dc61025d9139836132a5565b606061041260405180610100016040528060de8152602001615bb860de9139836132a5565b6000600161310784610834565b6131119190614861565b600083815260076020526040902054909150808214613164576001600160a01b03841660009081526006602090815260408083208584528252808320548484528184208190558352600790915290208190555b5060009182526007602090815260408084208490556001600160a01b039094168352600681528383209183525290812055565b6008546000906131a990600190614861565b600083815260096020526040812054600880549394509092849081106131d1576131d1614950565b9060005260206000200154905080600883815481106131f2576131f2614950565b600091825260208083209091019290925582815260099091526040808220849055858252812055600880548061322a5761322a61493a565b6001900381819060005260206000200160009055905550505050565b600061325183610834565b6001600160a01b039093166000908152600660209081526040808320868452825280832085905593825260079052919091209190915550565b6000613297826010614842565b83901c60ff16905092915050565b606060006132b284613715565b6040805180820190915260018152600b60fa1b602082015290915060006132d882613715565b90506132f7604051806040016040528060008152602001600081525090565b60005b86811161331f5761330b8584613742565b915080613317816148df565b9150506132fa565b5061332981613768565b979650505050505050565b600081613361858560405160200161334d9291906141da565b6040516020818303038152906040526137d1565b61118b91906148fa565b613373613b07565b61337b613b07565b600061339b8561338a886115d7565b60405160200161334d929190613ded565b90506133a784826148fa565b8252600060208301819052604083018190526133c46015836148fa565b9050600e8111156133eb576133da6015836148fa565b6133e590600161472b565b60208401525b6013811061343f576133fe6050836148fa565b61340990600161472b565b6040840152613419601f836148fa565b61342490600161472b565b606084015260138114156134375761343f565b600160808401525b509095945050505050565b6000613457826010614842565b8360ff16901b905092915050565b61346d613b07565b6104128260405180604001604052806009815260200168424c4f4f444c494e4560b81b815250602161336b565b6001600160a01b0382166134f05760405162461bcd60e51b815260206004820181905260248201527f4552433732313a206d696e7420746f20746865207a65726f20616464726573736044820152606401610512565b6134f98161103e565b156135465760405162461bcd60e51b815260206004820152601c60248201527f4552433732313a20746f6b656e20616c7265616479206d696e746564000000006044820152606401610512565b61355260008383612622565b6001600160a01b038216600090815260036020526040812080546001929061357b90849061472b565b909155505060008181526002602052604080822080546001600160a01b0319166001600160a01b03861690811790915590518392907fddf252ad1be2c89b69c2b068fc378daa952ba7f163c4a11628f55a4df523b3ef908290a45050565b6060600061360f836135ea866115d7565b6040516020016135fb929190614083565b604051602081830303815290604052613802565b905080600061363285613621886115d7565b6040516020016135fb929190614048565b90508082116136415781613643565b805b9150600061366586613654896115d7565b6040516020016135fb929190613fc6565b90508083116136745782613676565b805b92506000613698876136878a6115d7565b6040516020016135fb929190613f8b565b90508084116136a757836136a9565b805b935060008482846136ba878a61472b565b6136c4919061472b565b6136ce919061472b565b6136d89190614861565b90506000886136e6836115d7565b6040516020016136f7929190614183565b60408051808303601f190181529190529a9950505050505050505050565b60408051808201825260008082526020918201528151808301909252825182529182019181019190915290565b6040805180820190915260008082526020820152613761838383613824565b5092915050565b60606000826000015167ffffffffffffffff81111561378957613789614966565b6040519080825280601f01601f1916602001820160405280156137b3576020820181803683370190505b509050600060208201905061376181856020015186600001516138d0565b6000816040516020016137e49190613dd1565b60408051601f19818403018152919052805160209091012092915050565b6000600661380f836137d1565b61381991906148fa565b61041290600161472b565b604080518082019091526000808252602082015260006138568560000151866020015186600001518760200151613941565b6020808701805191860191909152519091506138729082614861565b835284516020860151613885919061472b565b81141561389557600085526138c7565b835183516138a3919061472b565b855186906138b2908390614861565b90525083516138c1908261472b565b60208601525b50909392505050565b6020811061390857815183526138e760208461472b565b92506138f460208361472b565b9150613901602082614861565b90506138d0565b60006001613917836020614861565b6139239061010061479a565b61392d9190614861565b925184518416931916929092179092525050565b60008381868511613a4757602085116139f55760006001613963876020614861565b61396e906008614842565b61397990600261479a565b6139839190614861565b85519019915081166000876139988b8b61472b565b6139a29190614861565b855190915083165b8281146139e7578186106139cf576139c28b8b61472b565b965050505050505061118b565b856139d9816148df565b9650508386511690506139aa565b85965050505050505061118b565b508383206000905b613a078689614861565b8211613a455785832081811415613a24578394505050505061118b565b613a2f60018561472b565b9350508180613a3d906148df565b9250506139fd565b505b613329878761472b565b60405180608001604052806004906020820280368337509192915050565b6040518060c001604052806060815260200160608152602001606081526020016060815260200160608152602001606081525090565b6040518061012001604052806009906020820280368337509192915050565b604051806101600160405280600b905b6060815260200190600190039081613ad45790505090565b604080516101a0810190915260608152600c60208201613ad4565b6040518060a001604052806005906020820280368337509192915050565b80356001600160a01b0381168114613b3c57600080fd5b919050565b600060208284031215613b5357600080fd5b611c5482613b25565b60008060408385031215613b6f57600080fd5b613b7883613b25565b9150613b8660208401613b25565b90509250929050565b600080600060608486031215613ba457600080fd5b613bad84613b25565b9250613bbb60208501613b25565b9150604084013590509250925092565b60008060008060808587031215613be157600080fd5b613bea85613b25565b9350613bf860208601613b25565b925060408501359150606085013567ffffffffffffffff80821115613c1c57600080fd5b818701915087601f830112613c3057600080fd5b813581811115613c4257613c42614966565b604051601f8201601f19908116603f01168101908382118183101715613c6a57613c6a614966565b816040528281528a6020848701011115613c8357600080fd5b82602086016020830137600060208483010152809550505050505092959194509250565b60008060408385031215613cba57600080fd5b613cc383613b25565b915060208301358015158114613cd857600080fd5b809150509250929050565b60008060408385031215613cf657600080fd5b613cff83613b25565b946020939093013593505050565b600060208284031215613d1f57600080fd5b8135611c548161497c565b600060208284031215613d3c57600080fd5b8151611c548161497c565b600060208284031215613d5957600080fd5b5035919050565b60008060408385031215613d7357600080fd5b82359150613b8660208401613b25565b60008060408385031215613d9657600080fd5b50508035926020909101359150565b60008151808452613dbd816020860160208601614878565b601f01601f19169290920160200192915050565b60008251613de3818460208701614878565b9190910192915050565b60008351613dff818460208801614878565b835190830190613e13818360208801614878565b01949350505050565b60008451613e2e818460208901614878565b845190830190613e42818360208901614878565b8451910190613e55818360208801614878565b0195945050505050565b60008651613e71818460208b01614878565b865190830190613e85818360208b01614878565b8651910190613e98818360208a01614878565b8551910190613eab818360208901614878565b8451910190613ebe818360208801614878565b01979650505050505050565b60008a51613edc818460208f01614878565b8a51613eee8183860160208f01614878565b8a519184010190613f03818360208e01614878565b8951613f158183850160208e01614878565b8951929091010190613f2b818360208c01614878565b8751613f3d8183850160208c01614878565b8751929091010190613f53818360208a01614878565b8551613f658183850160208a01614878565b8551929091010190613f7b818360208801614878565b019b9a5050505050505050505050565b60008351613f9d818460208801614878565b835190830190613fb1818360208801614878565b600d60fa1b9101908152600101949350505050565b60008351613fd8818460208801614878565b835190830190613fec818360208801614878565b603360f81b9101908152600101949350505050565b60008351614013818460208801614878565b835190830190614027818360208801614878565b6c1e17ba32bc3a1f1e17b9bb339f60991b9101908152600d01949350505050565b6000835161405a818460208801614878565b83519083019061406e818360208801614878565b601960f91b9101908152600101949350505050565b60008351614095818460208801614878565b8351908301906140a9818360208801614878565b603160f81b9101908152600101949350505050565b600083516140d0818460208801614878565b600160fd1b90830190815283516140ee816001840160208801614878565b01600101949350505050565b6000825161410c818460208701614878565b605d60f81b920191825250600101919050565b60008351614131818460208801614878565b61016160f51b9083019081528351614150816002840160208801614878565b01600201949350505050565b6000825161416e818460208701614878565b62202b3160e81b920191825250600301919050565b60008351614195818460208801614878565b6101d160f51b9083019081528351614150816002840160208801614878565b600082516141c6818460208701614878565b61013960f51b920191825250600201919050565b600083516141ec818460208801614878565b9190910191825250602001919050565b6a3d90113730b6b2911d101160a91b815269536861646f776c696e6760b01b600b8201526201116160ed1b60158201526f0113232b9b1b934b83a34b7b711101d160851b60188201527f22536861646f776c696e677320666f6c6c6f7720796f7520696e20796f75722060288201527f6a6f75726e6579206163726f737320636861696e73706163652c20746865207360488201527f6861646f77636861696e2c20616e64206265796f6e642e2e2e222c2000000000606882015282516000906142cd816084850160208801614878565b8351908301906142e4816084840160208801614878565b01608401949350505050565b654d4f4449465960d01b815260008351614311816006850160208801614878565b835190830190614328816006840160208801614878565b01600601949350505050565b7f22696d616765223a2022646174613a696d6167652f7376672b786d6c3b626173815263194d8d0b60e21b602082015260008251614379816024850160208701614878565b6201116160ed1b6024939091019283015250602701919050565b605b60f81b8152600082516143af816001850160208701614878565b9190910160010192915050565b602760f81b8152600082516143af816001850160208701614878565b607b60f81b81526e113a3930b4ba2fba3cb832911d101160891b6001820152825160009061440d816010850160208801614878565b6201116160ed1b60109184019182015269113b30b63ab2911d101160b11b6013820152835161444381601d840160208801614878565b601160f91b601d9290910191820152607d60f81b601e820152601f01949350505050565b7f646174613a6170706c69636174696f6e2f6a736f6e3b6261736536342c00000081526000825161449f81601d850160208701614878565b91909101601d0192915050565b6d01130ba3a3934b13aba32b9911d160951b815281516000906144d681600e850160208701614878565b607d60f81b600e939091019283015250600f01919050565b82815260008251614506816020850160208701614878565b919091016020019392505050565b6001600160a01b038581168252841660208201526040810183905260806060820181905260009061454790830184613da5565b9695505050505050565b602081526000611c546020830184613da5565b60208082526032908201527f4552433732313a207472616e7366657220746f206e6f6e20455243373231526560408201527131b2b4bb32b91034b6b83632b6b2b73a32b960711b606082015260800190565b6020808252818101527f4f776e61626c653a2063616c6c6572206973206e6f7420746865206f776e6572604082015260600190565b60208082526031908201527f4552433732313a207472616e736665722063616c6c6572206973206e6f74206f6040820152701ddb995c881b9bdc88185c1c1c9bdd9959607a1b606082015260800190565b6020808252601f908201527f5265656e7472616e637947756172643a207265656e7472616e742063616c6c00604082015260600190565b602081526000825160c0602084015261468f60e0840182613da5565b90506020840151601f19808584030160408601526146ad8383613da5565b925060408601519150808584030160608601526146ca8383613da5565b925060608601519150808584030160808601526146e78383613da5565b925060808601519150808584030160a08601526147048383613da5565b925060a08601519150808584030160c0860152506147228282613da5565b95945050505050565b6000821982111561473e5761473e61490e565b500190565b60008261475257614752614924565b500490565b600181815b808511156147925781600019048211156147785761477861490e565b8085161561478557918102915b93841c939080029061475c565b509250929050565b6000611c5483836000826147b057506001610412565b816147bd57506000610412565b81600181146147d357600281146147dd576147f9565b6001915050610412565b60ff8411156147ee576147ee61490e565b50506001821b610412565b5060208310610133831016604e8410600b841016171561481c575081810a610412565b6148268383614757565b806000190482111561483a5761483a61490e565b029392505050565b600081600019048311821515161561485c5761485c61490e565b500290565b6000828210156148735761487361490e565b500390565b60005b8381101561489357818101518382015260200161487b565b83811115610c2b5750506000910152565b600181811c908216806148b857607f821691505b602082108114156148d957634e487b7160e01b600052602260045260246000fd5b50919050565b60006000198214156148f3576148f361490e565b5060010190565b60008261490957614909614924565b500690565b634e487b7160e01b600052601160045260246000fd5b634e487b7160e01b600052601260045260246000fd5b634e487b7160e01b600052603160045260246000fd5b634e487b7160e01b600052603260045260246000fd5b634e487b7160e01b600052604160045260246000fd5b6001600160e01b031981168114610f8157600080fdfe3c2f746578743e3c7465787420783d2231302220793d2236302220636c6173733d2262617365223e536861646f776b61696e277320446f6d61696e2c4b756c6563686f767320446f6d696e696f6e202c506572696c6f7573204661726d732c4f6365616e73206f6620446567656e2054656172732c4461726b20466f726573742c4d656d706f6f6c2c536861646f77636861696e2c506f6c79676f6e616c204d65736873706163652c4c616e6473206f6620417262697472617279204f7074696d69736d2c436861696e73706163652c436861696e73206f66204e617a61726f762c426c7565204c61676f6f6e2c5377616d702c47656e6573697320437562655361746f7368692c566974616c696b2c566c61642c4164616d2c41696c6d61722c44617266696e2c4a6861616e2c5a61626261732c4e656c646f722c47616e646f722c42656c6c61732c446165616c6c612c4e796d2c56657372796e2c416e676f722c476f67752c4d616c6f6b2c526f746e616d2c4368616c69612c41737472612c46616269656e2c4f72696f6e2c5175696e7475732c52656d75732c526f72696b2c5369726975732c537962656c6c612c417a7572612c446f726174682c46726579612c4f7068656c69612c5976616e6e612c5a656e6979612c4a616d65732c526f626572742c4a6f686e2c4d69636861656c2c57696c6c69616d2c44617669642c526963686172642c4a6f736570682c54686f6d61732c436861726c65732c4d6172792c50617472696369612c4a656e6e696665722c4c696e64612c456c697a61626574682c426172626172612c537573616e2c4a6573736963612c53617261682c4b6172656e2c44696c6962652c4576612c4d6174746865772c426f6c657468652c506f6c79636172702c416d62726f67696e6f2c4a6972692c4368756b77756562756b612c4368696e6f6e79656c756d2c4d696b61656c2c4d6972612c416e69656c612c53616d75656c2c4973616b2c417263686962616c646f2c4368696e79656c752c4b65727374696e2c4162696761696c2c4f6c796d7069612c47726163652c4e6168756d2c456c697361626574682c53657267652c537567616b6f2c5061747269636b2c466c6f7275732c537661746176612c496c6f6e612c4c6163686c616e2c4361737069616e2c46696c697070612c5061756c6f2c44617264612c4c696e64612c477261646173736f2c4361726c792c4a656e732c42657474792c45626f6e792c44656e6e69732c4d617274696e204461766f72696e2c4c617572612c4a65737065722c52656d792c4f6e79656b616368756b77752c4a616e2c44696f73636f726f2c48696c6172696a2c526f73766974612c4e6f61682c5061747269636b2c4d6f68616d6d65642c4368696e77656d6d612c526166662c41726f6e2c4d696775656c2c447a656d61696c2c476177656c2c477573746176652c45667261696d2c4164656c626572742c4a6f64792c4d61636b656e7a69652c566963746f7269612c53656c616d2c4a656e63692c556c726963682c43686973686f752c446f6d6f6e6b6f732c5374616e69736c6175732c466f7274696e627261732c47656f7267652c44616e69656c2c416e6e6162656c6c652c5368756e696368692c426f6764616e2c416e617374617a6a612c4d61726375732c4d6f6e6963612c4d617274696e2c5975756b6f752c486172726965742c47656f66667265792c4a6f6e61732c44656e6e69732c48616e612c416264656c68616b2c526176696c2c5061747269636b2c4b61726c2c4576652c4373696c6c612c49736162656c6c612c526164696d2c54686f6d61732c4661696e612c5261736d75732c416c6d612c436861726c65732c436861642c5a656672616d2c48617964656e2c4a6f736570682c416e6472652c4972656e652c4d6f6c6c792c43696e64792c53752c5374616e692c45642c4a616e65742c43617468792c4b796c652c5a616b692c42656c6c652c42656c6c612c4a6573736963612c416d6f752c53746576656e2c4f6c67752c4576612c4976616e2c566c6c61642c48656c67612c416e79612c4a6f686e2c526974612c4576616e2c4a61736f6e2c446f6e616c642c54796c65722c4368616e6770656e672c53616d7b226e616d65223a2022536861646f776c696e67222c20226465736372697074696f6e223a2022536861646f776c696e677320666f6c6c6f7720796f7520696e20796f7572206a6f75726e6579206163726f737320636861696e73706163652c2074686520736861646f77636861696e2c20616e64206265796f6e642e2e2e227d3c2f746578743e3c7465787420783d2231302220793d223232302220636c6173733d2262617365223e3c2f746578743e3c7465787420783d2231302220793d223136302220636c6173733d2262617365223e3c2f746578743e3c7465787420783d2231302220793d223132302220636c6173733d2262617365223e3c2f746578743e3c7465787420783d2231302220793d2238302220636c6173733d2262617365223e3c2f746578743e3c7465787420783d2231302220793d223130302220636c6173733d2262617365223e3c2f746578743e3c7465787420783d2231302220793d223230302220636c6173733d2262617365223e3c2f746578743e3c7465787420783d2231302220793d223234302220636c6173733d2262617365223e4f2c576f6b722c566d65772c4b616c692d5a75692c5a6170687468726f742c4c7562616e2c59752d4b6f74682c53747572726f73682c49612d4e6761692c4b68616b682c47796174686e612c4875616361732c5a6861722026204c6c6f69676f722c586c2d72686f2c536875646465204d656c6c2c43726574686167752c556e736361204e6f726e612c5068766974687672652c596f7261652c5964686575742c50612763682c576161727a612c4368686e6768752c5368692d59766761612c58696d617979612058616e2c6c27546f746f786c2c57616b616e2c5974686f677468612c55622d6a692c53687561696368612c537468756d612c53656e6e65276c6c2c58796e676f677468613c73766720786d6c6e733d22687474703a2f2f7777772e77332e6f72672f323030302f73766722207072657365727665417370656374526174696f3d22784d696e594d696e206d656574222076696577426f783d223020302033353020333530223e3c7374796c653e2e62617365207b2066696c6c3a2077686974653b20666f6e742d66616d696c793a2073657269663b20666f6e742d73697a653a20313470783b207d3c2f7374796c653e3c726563742077696474683d223130302522206865696768743d2231303025222066696c6c3d22626c61636b22202f3e3c7465787420783d2231302220793d2232302220636c6173733d2262617365223e3327332c53686974706f7374696e672c4469616d6f6e642042756c6c20486f726e732c4d61737465726e6f64652c46726f6e742052756e6e696e672c4d455620436f6c6c6563746f722c4e465420466c69707065722c417274626c6f636b7320636f6e6e6f697373657572202c4469616d6f6e642068616e64732c46726565207472616e73616374696f6e732c5065726d61204c6f772047617320466565732c4d616465206974202c466c6173682042756e646c65722c507269766174652072656c6179732c436f6d706f756e64696e672c47616c61787920427261696e2c4c6f772049512c48696768204951527567676564202c446f787865642c4c6971756964617465642c57616966752073696d702c4578706c6f697465642c50617065722068616e64732c466c617368204c6f616e65642c5554584f2c5468656f726973742c4e474d492c4d69642049512c436f7079205472616465722c4c61727065722c466c6f6f722073656c6c65722c476f787865642c4f797374657220466f726b65642c436861642042726f2c45786974204c69717569646974792c4861636b65642c4661696c6564205472616e73616374696f6e3c2f746578743e3c7465787420783d2231302220793d223134302220636c6173733d2262617365223e4142434445464748494a4b4c4d4e4f505152535455565758595a6162636465666768696a6b6c6d6e6f707172737475767778797a303132333435363738392b2f4e6f6e652c54776973746564204d656d7772616974682c48617368656e686f72726f722c536861646f772057656e2c42656172204170652c4d6f6f6e20576f6c662c53697a65204c6f7264652c446567656e647261676f6e2c474d20446f67652c4c697465204c6c616d612c596561726e696e67204e796d70682c4372766163656f757320536e616b652c486f6c6f76797065722c5761696c696e6720496e74656765722c4372616176656e2044656661756c7465722c466c6f6174696e672045796573206f66205365632c42797a616e74696e65205072696e63657373732c4d616e626561727069672c4c617270696e6720546572726f722c542d52656b742c446566692d616e74202c526f707374656e205768616c652c4c6c616d612c456e6368616e746564205275672c426c696e64204f7261636c652c47776569204163636f756e74616e742c4c617a6172757320436f7474656e2c4d656d706f6f6c205772616974682c5065726e6963696f75732070656e6775696e732c53656564205374616c6b65722c536e61726b2c536861646f77737761707065722c526176616765203078786c2c4d61726b6574205261742c44726561642044697020446f672c4178616c6c617878612c467261676d656e74656420436f6269656c6f646f6e2c4a6f6d6f656f6e2c556d6272616d7973746963732c506570626f692c4379706865722047686f756c732c43656e736f722056696e65732c546f726d656e74656420476f72676f6e2c5375736869204b72616b656e2c416c7068612d656174696e67204f6f7a652c426c6174686572696e67204b697262792c52696e6b656279205261696465722c536d6f6c2062616e74656742616c7468617a61722c4e6f476d2c546865204c6172702c546865205275676765642c54686520446f787865642c5468652053696d702c546865204d656d652c54686520546f702062757965722c54686520426f74746f6d2073656c6c65722c546865204d6f6f6e2c546865204f7261636c652c41676f6e792c41706f63616c797073652c41726d61676564646f6e2c42656173742c426568656d6f74682c426c696768742c426c6f6f642c4272616d626c652c4272696d73746f6e652c42726f6f642c43617272696f6e2c43617461636c79736d2c4368696d657269632c436f727073652c436f7272757074696f6e2c44616d6e6174696f6e2c44656174682c44656d6f6e2c446972652c447261676f6e2c44726561642c446f6f6d2c4475736b2c4561676c652c456d70797265616e2c466174652c466f652c47616c652c47686f756c2c476c6f6f6d2c476c7970682c476f6c656d2c4772696d2c486174652c4861766f632c486f6e6f75722c486f72726f722c4879706e6f7469632c4b72616b656e2c4c6f6174682c4d61656c7374726f6d2c4d696e642c4d697261636c652c4d6f726269642c4f626c6976696f6e2c4f6e736c61756768742c5061696e2c50616e64656d6f6e69756d2c50686f656e69782c506c616775652c526167652c526170747572652c52756e652c536b756c6c2c536f6c2c536f756c2c536f72726f772c5370697269742c53746f726d2c54656d706573742c546f726d656e742c56656e6765616e63652c566963746f72792c56697065722c566f727465782c576f652c57726174682c4c6967687427732c5368696d6d6572696e673c2f746578743e3c7465787420783d2231302220793d2234302220636c6173733d2262617365223e6f6620426f72726f77656420536f756c732c6f662053796e746865746963732c6f66205969656c642c206f66205175612744726967612c6f66204c69717569646174696f6e20506f6f6c732c6f6620506f7765722c6f66204769616e74732c6f6620546974616e732c6f6620536b696c6c2c6f662050657266656374696f6e2c6f66204272696c6c69616e63652c6f6620456e6c69676874656e6d656e742c6f662050726f74656374696f6e2c6f6620416e6765722c6f6620526167652c6f6620467572792c6f662056697472696f6c2c6f662074686520466f782c6f6620446574656374696f6e2c6f66205265666c656374696f6e2c6f6620746865205477696e7343726561747572652c466c61772c4f726967696e2c426c6f6f646c696e652c4162696c6974792c4e616d653c2f746578743e3c7465787420783d2231302220793d223138302220636c6173733d2262617365223e4e6f636f696e65722c4d6178696d75732c4e676d692c446567656e2c426c61636b204861742c5768697465204861742c416c6c2d496e2c4170657362616e652c426561727362616e652c4d696e696d6178692c42726964676563726f737365722c4272696467656275726e65722c476f6c646d616e2c42616e652c526f6f742c426974652c536f6e672c526f61722c47726173702c496e737472756d656e742c476c6f772c42656e6465722c536861646f772c576869737065722c53686f75742c47726f776c2c546561722c5065616b2c466f726d2c53756e2c4d6f6f6ea2646970667358221220dbd189aba35b863231d023b4fbec76084f420c4a9376491da02cbc1d5bfe201564736f6c63430008060033",
  "devdoc": {
    "kind": "dev",
    "methods": {
      "approve(address,uint256)": {
        "details": "See {IERC721-approve}."
      },
      "attributes(uint256)": {
        "details": "Opensea Standards: https://docs.opensea.io/docs/metadata-standards"
      },
      "attributesItem(uint256)": {
        "details": "Opensea Standards: https://docs.opensea.io/docs/metadata-standards",
        "params": {
          "itemId": "A value in propertiesOf[tokenId]"
        }
      },
      "balanceOf(address)": {
        "details": "See {IERC721-balanceOf}."
      },
      "claim(uint256,address)": {
        "params": {
          "tokenId": "Token with `id` to mint. Maps id to individual item ids in ItemIds"
        }
      },
      "contractURI()": {
        "details": "Opensea contract metadata: https://docs.opensea.io/docs/contract-level-metadata"
      },
      "getApproved(uint256)": {
        "details": "See {IERC721-getApproved}."
      },
      "isApprovedForAll(address,address)": {
        "details": "See {IERC721-isApprovedForAll}."
      },
      "name()": {
        "details": "See {IERC721Metadata-name}."
      },
      "owner()": {
        "details": "Returns the address of the current owner."
      },
      "ownerOf(uint256)": {
        "details": "See {IERC721-ownerOf}."
      },
      "renounceOwnership()": {
        "details": "Leaves the contract without owner. It will not be possible to call `onlyOwner` functions anymore. Can only be called by the current owner. NOTE: Renouncing ownership will leave the contract without an owner, thereby removing any functionality that is only available to the owner."
      },
      "safeTransferFrom(address,address,uint256)": {
        "details": "See {IERC721-safeTransferFrom}."
      },
      "safeTransferFrom(address,address,uint256,bytes)": {
        "details": "See {IERC721-safeTransferFrom}."
      },
      "setApprovalForAll(address,bool)": {
        "details": "See {IERC721-setApprovalForAll}."
      },
      "supportsInterface(bytes4)": {
        "details": "See {IERC165-supportsInterface}."
      },
      "symbol()": {
        "details": "See {IERC721Metadata-symbol}."
      },
      "tokenByIndex(uint256)": {
        "details": "See {IERC721Enumerable-tokenByIndex}."
      },
      "tokenOfOwnerByIndex(address,uint256)": {
        "details": "See {IERC721Enumerable-tokenOfOwnerByIndex}."
      },
      "totalSupply()": {
        "details": "See {IERC721Enumerable-totalSupply}."
      },
      "transferFrom(address,address,uint256)": {
        "details": "See {IERC721-transferFrom}."
      },
      "transferOwnership(address)": {
        "details": "Transfers ownership of the contract to a new account (`newOwner`). Can only be called by the current owner."
      }
    },
    "version": 1
  },
  "userdoc": {
    "kind": "user",
    "methods": {
      "attributes(uint256)": {
        "notice": "Returns the attributes properties of a `tokenId`"
      },
      "attributesItem(uint256)": {
        "notice": "Returns the attributes properties of a single item"
      },
      "claim(uint256,address)": {
        "notice": "Mints Shadowlings to `msg.sender`, cannot mint 0 tokenId"
      },
      "summon(uint256,address)": {
        "notice": "Mints Shadowchain Origin Shadowlings to shadowpakt members, cannot mint 0 tokenId"
      },
      "tokenURI(uint256)": {
        "notice": "Returns an SVG for the provided token id"
      }
    },
    "version": 1
  },
  "storageLayout": {
    "storage": [
      {
        "astId": 3542,
        "contract": "contracts/Shadowling.sol:Shadowling",
        "label": "_name",
        "offset": 0,
        "slot": "0",
        "type": "t_string_storage"
      },
      {
        "astId": 3544,
        "contract": "contracts/Shadowling.sol:Shadowling",
        "label": "_symbol",
        "offset": 0,
        "slot": "1",
        "type": "t_string_storage"
      },
      {
        "astId": 3548,
        "contract": "contracts/Shadowling.sol:Shadowling",
        "label": "_owners",
        "offset": 0,
        "slot": "2",
        "type": "t_mapping(t_uint256,t_address)"
      },
      {
        "astId": 3552,
        "contract": "contracts/Shadowling.sol:Shadowling",
        "label": "_balances",
        "offset": 0,
        "slot": "3",
        "type": "t_mapping(t_address,t_uint256)"
      },
      {
        "astId": 3556,
        "contract": "contracts/Shadowling.sol:Shadowling",
        "label": "_tokenApprovals",
        "offset": 0,
        "slot": "4",
        "type": "t_mapping(t_uint256,t_address)"
      },
      {
        "astId": 3562,
        "contract": "contracts/Shadowling.sol:Shadowling",
        "label": "_operatorApprovals",
        "offset": 0,
        "slot": "5",
        "type": "t_mapping(t_address,t_mapping(t_address,t_bool))"
      },
      {
        "astId": 4481,
        "contract": "contracts/Shadowling.sol:Shadowling",
        "label": "_ownedTokens",
        "offset": 0,
        "slot": "6",
        "type": "t_mapping(t_address,t_mapping(t_uint256,t_uint256))"
      },
      {
        "astId": 4485,
        "contract": "contracts/Shadowling.sol:Shadowling",
        "label": "_ownedTokensIndex",
        "offset": 0,
        "slot": "7",
        "type": "t_mapping(t_uint256,t_uint256)"
      },
      {
        "astId": 4488,
        "contract": "contracts/Shadowling.sol:Shadowling",
        "label": "_allTokens",
        "offset": 0,
        "slot": "8",
        "type": "t_array(t_uint256)dyn_storage"
      },
      {
        "astId": 4492,
        "contract": "contracts/Shadowling.sol:Shadowling",
        "label": "_allTokensIndex",
        "offset": 0,
        "slot": "9",
        "type": "t_mapping(t_uint256,t_uint256)"
      },
      {
        "astId": 10894,
        "contract": "contracts/Shadowling.sol:Shadowling",
        "label": "propertiesOf",
        "offset": 0,
        "slot": "10",
        "type": "t_mapping(t_uint256,t_struct(ItemIds)9440_storage)"
      },
      {
        "astId": 7,
        "contract": "contracts/Shadowling.sol:Shadowling",
        "label": "_owner",
        "offset": 0,
        "slot": "11",
        "type": "t_address"
      },
      {
        "astId": 114,
        "contract": "contracts/Shadowling.sol:Shadowling",
        "label": "_status",
        "offset": 0,
        "slot": "12",
        "type": "t_uint256"
      }
    ],
    "types": {
      "t_address": {
        "encoding": "inplace",
        "label": "address",
        "numberOfBytes": "20"
      },
      "t_array(t_uint256)dyn_storage": {
        "base": "t_uint256",
        "encoding": "dynamic_array",
        "label": "uint256[]",
        "numberOfBytes": "32"
      },
      "t_bool": {
        "encoding": "inplace",
        "label": "bool",
        "numberOfBytes": "1"
      },
      "t_mapping(t_address,t_bool)": {
        "encoding": "mapping",
        "key": "t_address",
        "label": "mapping(address => bool)",
        "numberOfBytes": "32",
        "value": "t_bool"
      },
      "t_mapping(t_address,t_mapping(t_address,t_bool))": {
        "encoding": "mapping",
        "key": "t_address",
        "label": "mapping(address => mapping(address => bool))",
        "numberOfBytes": "32",
        "value": "t_mapping(t_address,t_bool)"
      },
      "t_mapping(t_address,t_mapping(t_uint256,t_uint256))": {
        "encoding": "mapping",
        "key": "t_address",
        "label": "mapping(address => mapping(uint256 => uint256))",
        "numberOfBytes": "32",
        "value": "t_mapping(t_uint256,t_uint256)"
      },
      "t_mapping(t_address,t_uint256)": {
        "encoding": "mapping",
        "key": "t_address",
        "label": "mapping(address => uint256)",
        "numberOfBytes": "32",
        "value": "t_uint256"
      },
      "t_mapping(t_uint256,t_address)": {
        "encoding": "mapping",
        "key": "t_uint256",
        "label": "mapping(uint256 => address)",
        "numberOfBytes": "32",
        "value": "t_address"
      },
      "t_mapping(t_uint256,t_struct(ItemIds)9440_storage)": {
        "encoding": "mapping",
        "key": "t_uint256",
        "label": "mapping(uint256 => struct Attributes.ItemIds)",
        "numberOfBytes": "32",
        "value": "t_struct(ItemIds)9440_storage"
      },
      "t_mapping(t_uint256,t_uint256)": {
        "encoding": "mapping",
        "key": "t_uint256",
        "label": "mapping(uint256 => uint256)",
        "numberOfBytes": "32",
        "value": "t_uint256"
      },
      "t_string_storage": {
        "encoding": "bytes",
        "label": "string",
        "numberOfBytes": "32"
      },
      "t_struct(ItemIds)9440_storage": {
        "encoding": "inplace",
        "label": "struct Attributes.ItemIds",
        "members": [
          {
            "astId": 9429,
            "contract": "contracts/Shadowling.sol:Shadowling",
            "label": "creature",
            "offset": 0,
            "slot": "0",
            "type": "t_uint256"
          },
          {
            "astId": 9431,
            "contract": "contracts/Shadowling.sol:Shadowling",
            "label": "flaw",
            "offset": 0,
            "slot": "1",
            "type": "t_uint256"
          },
          {
            "astId": 9433,
            "contract": "contracts/Shadowling.sol:Shadowling",
            "label": "origin",
            "offset": 0,
            "slot": "2",
            "type": "t_uint256"
          },
          {
            "astId": 9435,
            "contract": "contracts/Shadowling.sol:Shadowling",
            "label": "bloodline",
            "offset": 0,
            "slot": "3",
            "type": "t_uint256"
          },
          {
            "astId": 9437,
            "contract": "contracts/Shadowling.sol:Shadowling",
            "label": "ability",
            "offset": 0,
            "slot": "4",
            "type": "t_uint256"
          },
          {
            "astId": 9439,
            "contract": "contracts/Shadowling.sol:Shadowling",
            "label": "name",
            "offset": 0,
            "slot": "5",
            "type": "t_uint256"
          }
        ],
        "numberOfBytes": "192"
      },
      "t_uint256": {
        "encoding": "inplace",
        "label": "uint256",
        "numberOfBytes": "32"
      }
    }
  }
}